:020000040802F0
:10000000000004204D1F0208991C02087D170208F9
:100010009B1C02089D1C02089F1C02080000000097
:100020000000000000000000000000001164020851
:10003000A11C020800000000B16402081565020856
:100040009D1F02089D1F02089D1F02089D1F020898
:100050009D1F02089D1F02089D1F02089D1F020888
:100060009D1F02089D1F02089D1F02089D1F020878
:100070009D1F02089D1F02089D1F02089D1F020868
:100080009D1F02089D1F02089D1F02089D1F020858
:100090009D1F02089D1F02089D1F0208B11C020837
:1000A0009D1F02089D1F02089D1F02089D1F020838
:1000B0009D1F02089D1F02089D1F02089D1F020828
:1000C0009D1F02089D1F02089D1F02089D1F020818
:1000D0009D1F02089D1F02089D1F02089D1F020808
:1000E0009D1F02089D1F02089D1F02089D1F0208F8
:1000F0009D1F02089D1F02089D1F02089D1F0208E8
:100100009D1F02089D1F02089D1F02089D1F0208D7
:100110009D1F02089D1F0208A51C02089D1F0208C2
:100120009D1F02089D1F02089D1F02089D1F0208B7
:100130009D1F0208000000000000000000000000F9
:100140000000000000000000000000009D1F0208E9
:100150009D1F02089D1F02089D1F02089D1F020887
:100160009D1F02089D1F02089D1F02089D1F020877
:100170009D1F02089D1F02080000000000000000F3
:100180009D1F02089D1F02089D1F02089D1F020857
:100190009D1F02089D1F0208000000009D1F02080D
:1001A0000000000000000000000000009D1F020889
:1001B0009D1F02089D1F02080000000000000000B3
:1001C000000000000000000000000000000000002F
:1001D0000000000000000000000000009D1F020859
:1001E00010B5054C237833B9044B13B10448AFF371
:1001F00000800123237010BD940000200000000047
:10020000448C020808B5034B1BB103490348AFF304
:10021000008008BD0000000098000020448C020807
:100220004B1C012B98BF70472DE9F003911C9B08D4
:10023000B1F80480B1F802900A8831F802CC804409
:10024000814402448444D9F80070D8F800601568ED
:10025000DCF80040C9F80060C8F80070CCF8005025
:100260001460D9F80470D8F804605568DCF80440CC
:10027000C9F80460C8F80470CCF804505460083120
:10028000013BD5D1BDE8F00370474B1C012B98BF53
:1002900070472DE9F003911C9B08B1F80480B1F878
:1002A00002900A8831F802CC00EB580800EB59099B
:1002B00000EB520200EB5C0CD9F80070D8F800603B
:1002C0001568DCF80040C9F80060C8F80070CCF888
:1002D000005014600831013BDFD1BDE8F0037047E6
:1002E000034613F8012B002AFBD1181A0138704776
:1002F00001F0FF01102A2BDB10F0070F08D010F8D7
:10030000013B013A8B422DD010F0070F42B3F6D1DA
:10031000F0B441EA012141EA014122F007047FF0F3
:1003200000070023F0E80256083C85EA010586EA4A
:10033000010685FA47F5A3FA87F586FA47F6A5FA86
:1003400087F68EB9EED1F0BC01F0FF0102F0070292
:1003500032B110F8013B013A83EA010313B1F8D13D
:100360000020704701387047002D06BF354603381E
:10037000073815F0010F07D1013015F4807F02BF57
:10038000013015F4C03F0130F0BC0138704700BFA8
:1003900053B94AB9002908BF00281CBF4FF0FF31EC
:1003A0004FF0FF3000F088B9ADF1080C6DE904CED4
:1003B00000F006F8DDF804E0DDE9022304B0704740
:1003C0002DE9F047089D0F4604468C46002B48D186
:1003D0008A42164661D9B2FA82F34BB1C3F12002C8
:1003E00001FA03FC20FA02F29E4042EA0C0C9C4007
:1003F0004FEA164EB7B2BCFBFEF1220C0EFB11CC3D
:1004000042EA0C4201FB07F0904209D9B21801F10F
:10041000FF3C80F0EE80904240F2EB8002393244A3
:10042000121AA4B2B2FBFEF00EFB102244EA024400
:1004300000FB07F7A74209D9341900F1FF3280F019
:10044000DA80A74240F2D7803444023840EA0140C3
:10045000E41B00211DB1DC400023C5E90043BDE8D9
:10046000F0878B4206D90DB1C5E90001002108468D
:10047000BDE8F087B3FA83F1002948D1BB4202D32B
:10048000824200F20781841A67EB0302012094463E
:10049000002DE4D0C5E9004CE1E7002A00F092808D
:1004A000B2FA82F3002B40F0A8808A1A4FEA164E67
:1004B0001FFA86FC0121200CB2FBFEF70EFB17226F
:1004C00040EA02420CFB07F0904207D9B21807F14C
:1004D000FF3802D2904200F2E2804746121AA4B2DC
:1004E000B2FBFEF00EFB102244EA02440CFB00FCBF
:1004F000A44507D9341900F1FF3202D2A44500F215
:10050000CB801046A4EB0C0440EA0740A2E7C1F1FF
:1005100020068B4022FA06FC4CEA030C07FA01F491
:1005200020FA06F3F7404FEA1C49234300FA01F88A
:100530001FFA8CFEB7FBF9F01C0C09FB107744EA9C
:10054000074400FB0EF7A74202FA01F20AD91CEB9E
:10055000040400F1FF3A80F09B80A74240F29880AB
:1005600002386444E41B9FB2B4FBF9F309FB134463
:1005700047EA044403FB0EFEA64509D91CEB04041C
:1005800003F1FF3780F08280A6457FD9023B6444A7
:1005900043EA0040A4EB0E04A0FB02E7BC42734612
:1005A000B94663D360D05DB1B8EB030264EB0904D4
:1005B00004FA06F622FA01F31E43CC40C5E90064B2
:1005C00000214CE76208480842EAC1710B0C43EA7B
:1005D00000438AB242EA0342B3FBF6F1E407B446B1
:1005E0003746B6461F23B0FBF6F0D21B41EA004166
:1005F00061E7614614E7104628E7C3F1200120FABD
:1006000001F29E4027FA01F19F403A434FEA164E0D
:100610001FFA86FCB1FBFEF70EFB1710110C41EA26
:10062000004107FB0CF8884504FA03F43AD9711825
:1006300007F1FF3001D288451FD8A1EB0801B1FBBB
:10064000FEF808FB0CF70EFB181192B242EA0142C9
:10065000BA422FD2B21808F1FF31C6D2BA42C4D280
:10066000A8F102013244C0E7F0459CD2BEEB020380
:1006700067EB0C070138B94695E7A6EB080841443B
:10068000B81EB1FBFEF808FB0CF7DCE73B467FE742
:10069000504667E70846FBE63444023832E7023F3B
:1006A00032441BE7A1EB08013846B1FBFEF808FB1A
:1006B0000CF7C8E7414698E7704700BF044C4AF67C
:1006C000AA2508B525604FF4FA7004F015F8F9E78B
:1006D00000300040F0B585B000284AD0B5EEC00A21
:1006E0000446F1EE10FA42BFB1EE400A2D2304F8A1
:1006F000013BFDEEC07A17EE903A73B16D460022D1
:100700000A26002B0DDD013293FBF6F706FB1733AB
:10071000303305F8013B3B46F3E7302301228DF8E7
:100720000030651E13466E462BBBA51800292B46CC
:100730001DDDF8EEE77A2E266B1CB2EE047AA65485
:100740004C1C30EE670A1A462C4420EE070A154668
:100750000132FDEEC07AA24217EE906AF8EEE77A17
:1007600006F1300630EE670A2E70EED10B440022FF
:100770001A7005B0F0BD013B9F5D05F8017FD3E71E
:100780000378F2EE046A00229FED110A2D2B06BFBA
:100790000130BFEE007AB7EE007A013810F8013F61
:1007A00013B920EE070A70472E2B0ED0303B092BD1
:1007B000F4D80AB187EE267A07EE903AF8EEE77A97
:1007C000E0EE267AB0EE670AE8E70122E6E700BF2E
:1007D000000000000FB413B5EFF305837BB10024D4
:1007E00005A90498019107F0BBF91CB10B4B1868DF
:1007F00004F00EF802B0BDE8104004B0704703F0FA
:10080000FBFE0228EBD1054B18680028E7D04FF01B
:10081000FF31012403F0CCFFE2E700BFB408002061
:100820002DE9F0419AB02022002112A807F034FAF5
:100830000A230222D0214C4802F060FAB8B94B4B8F
:10084000D0224B481A80FFF7C5FF474800F0E0FF71
:100850000446002839D0474C4AF6AA254648FFF7F7
:10086000B9FF25604FF47A7003F046FFF9E70A23D9
:100870000222D2213C4802F041FA20B93B4BD2225D
:100880003E481A80DFE7102400253D48FFF7A2FF0D
:10089000052301222146344802F030FA20B90135FF
:1008A00061083848FFF796FF0234A4B2F02CEFD16C
:1008B00015B93548FFF78EFF2E4C4AF6AA2525605C
:1008C0004FF47A7003F018FFF9E727482F4F00F034
:1008D00091FF01462E48FFF77DFF12A9224800F044
:1008E000BBFF0546002836D10346024612A93868E8
:1008F00004F000F8274B139A01349DED120AF92CED
:1009000083ED000A5A60149A9A60189ADA601ED928
:10091000032102A8FFF7DEFE9DED130A044606A898
:10092000FFF7D8FE9DED140A06460AA8FFF7D2FE8F
:10093000012180469DED180A0EA8FFF7CBFE214647
:100940002C460090434632461348FFF743FF0220EF
:1009500003F0D2FEC1E71148FFF73CFF4FF4FA70F5
:1009600003F0CAFEF3E700BF440F0020240000207C
:100970005C8C0208003000403A8D0208868C020828
:10098000B18C0208DF8C0208FB8C0208B80800203A
:100990007C8D02089C0F0020AB8D0208C08D0208E0
:1009A0002DE9F0432DED028B97B04FF480710024B8
:1009B000DFF82C9108A8DFF82C8105F067FF4FF4D1
:1009C00080713D48FFF706FF4FF0FF3300220EA96C
:1009D000D9F8000003F0D0FF05460028F4D1631CCD
:1009E000109A08EB8404FF2B226062D90526334F4E
:1009F000DFED338A034634469FED328A2F4A414663
:100A000008A805F0F7FF97ED0B0A0837D7ED087A2D
:100A100020EE000AA7EEA70A08F0EEF820EE080A7A
:100A2000B4EEE80AF1EE10FAC8BF344606F101064A
:100A300070FE288A662EE6D107EE904AB0EE680A6C
:100A400003216846B8EE678ADFED1F7A28EE278A11
:100A5000DFED1E7A28EE278ADFED1D7AF4EEE78AB5
:100A6000F1EE10FA16DDFFF735FE0446B0EE480A47
:100A7000012104A80125FFF72DFE21460246154855
:100A8000FFF7A8FE144B0024C3ED048A83ED058A0A
:100A90009D6199E7FFF71EFE0446B0EE480A01216A
:100AA00004A8FFF717FE214602460C48FFF792FE06
:100AB000E8E71C4688E700BFD98D0208B000002097
:100AC000000000000000003C0000FA430000803BF2
:100AD0009A99993EED8D02089C0F0020038E020822
:100AE000B8080020B00400202DE9F041BD48AEB0A8
:100AF000BD4EFFF76FFE40F6C41003F0FDFD3068F9
:100B000018B14FF0FF3103F053FEB84C0621B8483E
:100B100000F00CFF94ED000A032102A8FFF7DAFDB4
:100B2000054602A8FFF7DCFB0146284600F0FEFE62
:100B30000621B04800F0FAFE94ED010A032102A854
:100B4000FFF7C8FD054602A8FFF7CAFB0146284685
:100B500000F0ECFE0621A84800F0E8FE94ED020A41
:100B6000032102A8FFF7B6FD054602A8FFF7B8FB70
:100B70000146284600F0DAFE0521A04800F0D6FE26
:100B800094ED030A012102A8FFF7A4FD054602A87F
:100B9000FFF7A6FB0146284600F0C8FE062198484C
:100BA00000F0C4FE94ED040A042102A8FFF792FDB0
:100BB000054602A8FFF794FB0146284600F0B6FE62
:100BC0000621904800F0B2FE94ED050A012102A82A
:100BD000FFF780FD054602A8FFF782FB0146284685
:100BE000894D00F0A3FEA269884906A806F052FFCD
:100BF000014606A800F09AFE0721854800F096FEFF
:100C000095ED000A032102A8FFF764FD074602A83C
:100C1000FFF766FB0146384600F088FEE2697D4931
:100C200006A806F037FF014606A800F07FFE022165
:100C3000794800F07BFE306808B103F0E9FD4022FE
:100C400000210EA80DF1380807F026F8002401F065
:100C5000BDF9074601F0BAF9C01BB0F5AF7F0ED25F
:100C60003F2C0DD00A2301220DF107016B4803F040
:100C70001BFA0028EED19DF807300A2B1FD154B380
:100C800004F1B80366490EA80DEB0304002304F831
:100C9000803C07F009F8B0B16248FFF79BFD642083
:100CA00001F09AF9BFF34F8F5F49604BCA6802F4B5
:100CB000E0621343CB60BFF34F8F00BFFDE7013409
:100CC00008F8013BC6E75A490EA806F0EDFF30B11F
:100CD0005848FFF77FFD322003F00EFD0FE756491D
:100CE0000EA806F0E1FF18B30A30FFF749FDB5EE94
:100CF000C00AF1EE10FAEEDDB1EE047AB4EEC70AE6
:100D0000F1EE10FAE7D54D4A032185ED000A02A85D
:100D1000136801331360FFF7DDFC30210346484AB6
:100D20001EA806F081FE01461EA800F0FFFDD2E7D6
:100D300044490EA806F0B8FF0028CCD0162142483E
:100D400000F0F4FD414B424A40211EA806F06CFE23
:100D50001A211EA800F0EAFD3E4B3F4A40211EA882
:100D600006F062FE01461EA800F0E0FD05F088FDD9
:100D70003A4A034640211EA806F056FE01461EA828
:100D800000F0D4FD01F022F94FF47A73344A402187
:100D9000B0FBF3F31EA806F047FE01461EA800F0C4
:100DA000C5FD95ED000A032102A8FFF793FC2D4A2B
:100DB000034640211EA806F037FE01461EA800F09B
:100DC000B5FD02F0B7FA284B284A4021B0FBF3F3F7
:100DD0001EA806F029FE01461EA800F0A7FD1C2152
:100DE0002348A2E7168E0208B40800209C0F0020BA
:100DF000488E02084F8E0208568E02085D8E020849
:100E0000638E02086A8E020800000020718E0208BC
:100E10007A8E0208828E02088C8E0208BC0E002098
:100E20008F8E0208968E020800ED00E00400FA059D
:100E3000D58E0208DC8E0208EB8E0208980F002087
:100E4000F68E02080C8F0208158F02082C8F0208FC
:100E5000388F0208040000204A8F02085D8F0208C4
:100E6000728F02088A8F020840420F009E8F02088C
:100E7000B58F020807B54FF0FF330190012201A999
:100E8000024803F0C0F8019803B000BD340E002002
:100E900007B500241148124DFFF79CFC1148FFF7DD
:100EA00099FC01224FF480410F4801F0F5FB0094BA
:100EB000009BAB420DD900224FF480410A4801F05B
:100EC000EBFB0194019BAB42EBD8019B01330193F7
:100ED000F8E7009B01330093EAE700BFD28F0208D6
:100EE0007F380100F98F0208000402400268034BBA
:100EF0009A4201D101F05EB8704700BF0010004077
:100F000008B500F007F80248FFF764FCFEE700BFF1
:100F10003890020808B50B494FF4E1320A4B0846F5
:100F20000B600023C1E901230C224B62C1E90333AA
:100F3000C1E90523C1E9073303F050F908B1FFF710
:100F4000DFFF08BD340E00200048004010B594B00B
:100F500030220021022408A806F09EFE142200215F
:100F600003A806F099FE02F023F81D4B0121002092
:100F70001A6C42F080521A641B6C03F08053019388
:100F8000019B184B1A6842F440421A601B6808948F
:100F900003F440430E940293029B1023CDE90B13FC
:100FA0000823CDE90F03A82308A8CDE911340723AE
:100FB000139302F005F808B1FFF7A2FF0F234FF4D7
:100FC000A0520590052103A8CDE903344FF48053C6
:100FD000CDE9062302F0DCF90028EDD114B010BDF4
:100FE00000380240007000402DE9F041B54C96B049
:100FF000636F002B80F2C281B349B44806F03BFF17
:10100000636F43F080736367236B43F002032363D2
:10101000BFF34F8FAE4C06210022AE48236823F069
:10102000030343F001032360636983F001036361F9
:101030000192019B834240F2BB810139F4D1636983
:10104000A54A23F001036361A44B9A60BFF34F8F5D
:10105000BFF36F8F9B4B1A6B42F008021A63BFF30A
:101060004F8F1A6C42F480221A64BFF34F8FA3F59E
:1010700030539B481A6822F4403242F400321A601E
:101080009A6842F440329A605A6A22F00F0242F0A3
:1010900007025A62A3F5E2338B22DA6009221A6052
:1010A0000291DA6912F0800200F0868142228D49B5
:1010B0008B489A6200230393CB6913F0400300F03E
:1010C0008F8100F06CFF0023864985480493CB692B
:1010D00013F0800300F09781432381488B62002343
:1010E00080490593CB6913F0400300F0A0814FF0D5
:1010F000E0224FF0007100231361C2F8041D4FF08D
:101100000061C2F8041D4FF0FF319A00013302F173
:101110006042082B02F56142C2F88010C2F88011CB
:10112000F3D1BFF34F8FBFF36F8F362000F0AAFFCC
:1011300062B600236B496A480693CB6913F08003BB
:1011400000F08881482366488B6200236549079335
:10115000CB6913F0400300F091815A4A136B43F0BE
:1011600002031363BFF34F8F23685F4A23F44043A6
:1011700043F480432360636943F080036361002389
:101180000893089B934240F28C816369574A23F08D
:101190008003636100230993099B934240F2858198
:1011A000FFF7D4FE2368C82023F0405343F0805358
:1011B0002360636943F48043636100F00DFF63695A
:1011C000642023F48043636100F006FF63693220EA
:1011D00043F00103636100F0FFFE6369322023F0F6
:1011E0000103636100F0F8FE6369322043F00103FC
:1011F000636100F0F1FE6369322023F00103636153
:10120000304C00F0E9FE236A43F480232362BFF3ED
:101210004F8F236A23F480232362BFF34F8FFFF79E
:1012200079FE3348FFF7D6FA3248FFF7D3FA32484F
:10123000FFF7D0FA1422002111A806F02DFD236B30
:10124000002244F2810143F00403214800250126D5
:1012500023634FF4E138236B0C2703F004030A9354
:101260000A9B236B43F080032363236B03F080030B
:101270000B930B9B236B43F001032363236B03F05E
:1012800001030C930C9B236B43F002032363236B3A
:1012900003F002030D930D9B236B43F008032363BC
:1012A000236B03F008030E930E9B236B43F0400364
:1012B0002363236B03F040030F930F9B01F0ECF9C2
:1012C0001CE000BF003802408190020804000020AA
:1012D00000040240FF7002000000020800ED00E080
:1012E00080841E0000480040BFC62D003F420F0012
:1012F000C3900208DD900208C59002080022402138
:101300006C4801F0C9F94FF400524FF4881311A949
:1013100069481395CDE9112301F058F844F281038F
:1013200011A96648CDE91136CDE9135501F04EF803
:10133000402311A95F48CDE91136CDE9135501F0DD
:1013400045F8802311A95B481395CDE9113501F0CB
:101350003DF85B4A5B4B1046D560136015615562E2
:10136000C2E90185C2E90575C2E9075502F036FFF9
:101370000346002800F0B680FFF7C2FD636F5F00F0
:1013800001D5514939E6636F9E0001D54F4934E6D6
:10139000636FDD0001D54E492FE6636F180101D55B
:1013A0004C492AE6636F59014CBF4B494B4924E62F
:1013B000019B013301933CE6029901318142029184
:1013C0007FF66FAE46F2A711636983F00103636194
:1013D0001192119B8B42F7D8119B01331193F8E7BF
:1013E000039A0132824203927FF666AE3C496269FB
:1013F00082F0010262611193119A8A42F7D8119A20
:1014000001321192F8E7049A0132824204927FF687
:101410005EAE46F2A711626982F001026261119329
:10142000119A8A42F7D8119A01321192F8E7059A77
:101430000132824205927FF655AE2949626982F0F7
:10144000010262611193119A8A42F7D8119A01320E
:101450001192F8E7069A0132824206927FF66DAE4B
:1014600046F2A711626982F0010262611193119A3A
:101470008A42F7D8119A01321192F8E7079A01329D
:10148000824207927FF664AE1549626982F00102DA
:1014900062611193119A8A42F7D8119A013211921E
:1014A000F8E7089B013308936BE6099B0133099326
:1014B00072E600BF0018024000080240000402402B
:1014C000BC0E0020004400408A900208949002085C
:1014D0009D900208A6900208AE900208BA900208F9
:1014E0003F0D03007648774AC0E90233C0E900287F
:1014F000C0E90437C0E90633C0E9083302F06EFEE4
:10150000054600287FF438AF236A43F400132362B2
:10151000BFF34F8F304600F05FFD236A23F40013C2
:101520002362BFF34F8FCDE91355159511A9236B96
:10153000654843F002032363236B4FF4407403F0C8
:1015400002031093109B1123CDE9114300F03EFFDD
:10155000214632465C48092401F09EF8304600F0EE
:101560003BFD00224FF48071574801F095F80120AF
:1015700000F032FD01224FF48071534801F08CF8E5
:10158000012000F029FD013CEBD122464FF400710F
:101590004D48012601F080F8012000F01DFD0122D8
:1015A0004FF48071484801F077F8012000F014FDF5
:1015B00001224FF40071444801F06EF8012000F060
:1015C0000BFD41484FF44071404D00F0D7FF404BB8
:1015D00028462B60A3F1FE53A3F69843C5E90364A4
:1015E000C5E90134C5E90544C5E9074401F0E8F956
:1015F00000287FF4C1AE2146284601F006FC0028F1
:101600007FF4BAAE2146284601F025FC00287FF47D
:10161000B3AE304A4FF0A043136006231046568104
:1016200013714FF40073D380022353722A4BD3609B
:1016300001F036FC00287FF49FAE00F033FC02F08E
:10164000C1FF264803F070F8254B1860254803F0C9
:101650006BF8254B254A20211860102003F004F96F
:10166000234B244A21461860234802F0F5FF234B00
:10167000234A21461860234802F0EEFF224B234AFA
:1016800021461860224802F0E7FF224B224A2146F9
:101690001860224802F0E0FF214B45F255521860D5
:1016A000204B1A6005225A6040F2E1429A604AF6E5
:1016B000AA221A604CF6CC421A6002F0ADFFFEE797
:1016C000AC0D00200014014000040240440F002033
:1016D00000540040CC08002000010100B092020834
:1016E000B4080020A0920208B0080020C0920208AE
:1016F000B808002044930208BD060208C80800206C
:101700002093020821080208C4080020FC92020865
:10171000A1090208C0080020D8920208E90A0208BC
:10172000BC0800200030004004460D4808B5FFF713
:1017300051F8A1690B48FFF74DF861690A48FFF7B6
:1017400049F82168094C0A48FFF744F8A16A09489A
:10175000FFF740F8E16A0848FFF73CF8FEE700BFF2
:10176000F3900208079102081991020800ED00E0C9
:101770002B9102083D9102084F9102081EF0040FC0
:101780000CBFEFF30880EFF30980FFF7CDBF000037
:101790001FB564238DF80C100549009302238DF8C2
:1017A0000D2003AA098801F061F905B000BD00BF52
:1017B000240000202DE9FF410D4F4FF0640815462D
:1017C0001E468DF80F100123CDF800800DF10F0299
:1017D0003988044601F04AF938B9CDF8008033461B
:1017E0002A463988204601F0EFF904B0BDE8F081BF
:1017F00024000020002307B575218DF807300DF176
:1018000007020123FFF7D6FF9DF8070003B000BDD4
:1018100010B500226B210446FFF7BAFFD8B9642047
:1018200000F0DAFB012219212046FFF7B1FF90B941
:1018300001221A212046FFF7ABFF60B902461B21A7
:101840002046FFF7A5FF30B9204601223821BDE828
:101850001040FFF79DBF10BD7FB50C460E236A46B2
:101860003B21FFF7A7FF002856D1BDF802309FEDBE
:101870002B6ADBBA07EE103ABDF80430DBBAB8EEDB
:10188000C77A07EE903ABDF8063027EE067ADABA44
:10189000BDF80830F8EEE77ADEBABDF80A3084ED1C
:1018A000017ADDBABDF80C3067EE867A9FED1C7ABE
:1018B000D9BABDF80030DBBAC4ED027A07EE906AFF
:1018C00006EE903AF8EEE77AF8EEE66A66EE866A99
:1018D000C4ED006AC7EE876A07EE905AF8EEE77A21
:1018E000C4ED036AC7EE876A07EE901AF8EEE77A4E
:1018F000C4ED046AC7EE876A07EE902AF8EEE77A2D
:10190000C4ED056ADFED076A87EEA67ADFED067A99
:1019100077EE277AC4ED067A04B070BD00008038F7
:10192000000003430000AA43B81E124210B50C4643
:101930008AB24FF0FF330146024802F064FB2046B2
:1019400010BD00BFBC0E00200D4B82B00F216FF008
:1019500001001A6C42F080521A641A6C02F0805234
:101960000092009A5A6C42F480425A6400225B6CE6
:1019700003F480430193019B02B000F051BB00BF10
:101980000038024010B5A8B004461422002103A874
:1019900006F082F98022002108A806F07DF922686D
:1019A000174B9A422AD14FF4804308A8089301F0BC
:1019B000CBFD08B1FFF7A4FA124C4FF4407200219E
:1019C0001148236B43F002032363236B03F00203EC
:1019D0000193019B1223CDE903230323CDE90513D2
:1019E000042303A9079300F0F1FC236C43F40013D4
:1019F0002364236C03F400130293029B28B010BDF0
:101A000000540040003802400004024030B5ADB040
:101A1000802504461422002107A806F03DF92A4635
:101A200000210CA806F038F92368434A93422AD1D2
:101A30000CA80C9501F088FD08B1FFF761FA3F4B47
:101A40000C254FF0000C07A91A6C3D4842F40032F7
:101A50001A641A6C02F400320192019A1A6B42F075
:101A600001021A631B6B03F001030293029B022322
:101A7000CDE907530323CDE909C307230B9300F0F6
:101A8000A5FC2DB030BD2F4A934229D14FF480736D
:101A90000CA80C9301F058FD08B1FFF731FA274B61
:101AA0004FF44070002407A91A6C42F480221A6493
:101AB0001A6C02F480220392039A1A6B42F0080215
:101AC0001A631B6B03F008030493049B0223CDE904
:101AD000070303231C48CDE9094307230B93CEE7F3
:101AE0001A4A9342CDD14FF400630CA80C9301F035
:101AF0002BFD08B1FFF704FA104B002114485A6C73
:101B000042F020025A645A6C02F020020592059AB3
:101B10001A6B42F004021A63C0221B6B03F0040329
:101B20000693069B0223CDE907230323CDE909137E
:101B3000082307A90B93A2E70044004000380240A5
:101B40000000024000480040000C02400014014028
:101B50000008024030B5A9B004461422002103A8B1
:101B600006F09AF88022002108A806F095F823686C
:101B7000B3F1A04F3CD14FF4001308A8089301F033
:101B8000E3FC08B1FFF7BCF91A4C4FF4E85200250A
:101B900003A9236B184843F001032363236B03F06D
:101BA00001030093009B0223CDE903230323CDE926
:101BB00005530A23079300F009FC4FF4007303A9AF
:101BC0000D480595CDE9033500F000FC636B43F04B
:101BD00080036363636B03F080030193019B636C79
:101BE00043F480436364636C03F480430293029B79
:101BF00029B030BD0038024000000240214B1A6C71
:101C000042F0100230B589B01A641B6C054601A978
:101C100003A803F010030293029B01F077FC069BDC
:101C20004BBB01F053FC184A184B136040F2E733EA
:101C3000D360174BB0FBF3F3013B10465360002316
:101C400013619360936101F0E7FF044680B90E4889
:101C500001F0ACFE044658B9362000F013FA0F2DFF
:101C60000DD822462946362000F0DAF9094B1D60CE
:101C7000204609B030BD01F029FC4000D3E7012423
:101C8000F6E700BF00380240BC0F00200010004003
:101C900040420F0030000020FEE7FEE7FEE7FEE7CF
:101CA00070470000014801F0C3BE00BFBC0F002018
:101CB000202000F0F7BC70B50D4614460E46731B8D
:101CC0009C4201DC204670BDAFF3008006F8010B9A
:101CD000F5E770B50D4614460E46731B9C4201DCB9
:101CE000204670BD16F8010BFFF7C4F8F5E74FF07A
:101CF000FF3070474FF4005300204B6070470120C5
:101D000070470020704700000A4A0346106810B56B
:101D100008B90948106009490344094C091B8B4262
:101D200006D906F07BF80C2303604FF0FF3010BD9E
:101D30001360FCE708100020585B0020000004201E
:101D400000040000064BD3F8882042F47002C3F868
:101D50008820044A9A60BFF34F8FBFF36F8F70479C
:101D600000ED00E000000208174B98421DD303F578
:101D7000804398421BD303F58043984219D3134BF9
:101D8000984218D903F58033984216D903F50033E9
:101D9000984214D903F50033984212D903F5003361
:101DA000984294BF0720FF20704700207047012011
:101DB00070470220704703207047042070470520B9
:101DC00070470620704700BF00400008FFFF000872
:101DD00010B5044686B011B3FFF7C6FF0246601E79
:101DE0000844FFF7C1FFFF2A1BD0FF2819D001309C
:101DF000002302210392801A02930193059104901B
:101E000000F0DCF901A902A800F092FA044600F003
:101E1000E7F9201E18BF0120404206B010BD084659
:101E2000FBE74FF0FF30F8E72DE9F34107460D4699
:101E3000164632B329B3002400F0C0F904F10808B3
:101E4000464515D2A6420ED94FF0FF33321B291951
:101E50006846CDE9003306F016F839190320DDE9AC
:101E6000002300F0F3F902B0BDE8F04100F0B8B98A
:101E70002B192A59391903205B68444600F0E6F90A
:101E8000DCE702B0BDE8F0810346084610B429B192
:101E900022B119465DF8044B05F0F5BF5DF8044B1F
:101EA0007047000010B598B05C22002101A805F031
:101EB000F3FE5C2201A91E48FFF7E6FF1D4B019AC5
:101EC0009A4202D1039B012B04D01B48FEF782FCEF
:101ED00018B010BD1948FEF77DFC00234FF4805167
:101EE000134803931793FFF773FF08B11448EDE706
:101EF0005C2201A90E480624FFF796FF1148FEF761
:101F000069FC01224FF480410F48013C00F0C4FB02
:101F1000962000F061F800224FF480410A4800F05A
:101F2000BBFB962000F058F814F0FF04E9D1CFE78E
:101F3000000006083141544FAB910208CE910208CF
:101F4000059202082292020800040240DFF834D011
:101F5000FFF7F8FE0C480D490D4A002302E0D45863
:101F6000C4500433C4188C42F9D30A4A0A4C0023E3
:101F700001E013600432A242FBD305F055FFFFF7E6
:101F800033F8704700000420000000209400002077
:101F9000E8C7030894000020545B0020FEE708B562
:101FA000032000F02BF80F20FFF728FEFFF7CCFCF2
:101FB000002008BD034A044B11681B780B441360D2
:101FC000704700BF0C1000202C000020014B186847
:101FD000704700BF0C10002038B50446FFF7F6FF2D
:101FE0000546631C1EBF044B1B78E418FFF7EEFF89
:101FF000431BA342FAD338BD2C000020074903023B
:10200000CA6803F4E06322F4E0621204120C134382
:1020100043F0BF6343F40033CB60704700ED00E052
:10202000164B30B5DC68C4F30224C4F10703251D48
:10203000042B28BF0423062D4FF0FF358CBF033C33
:10204000002405FA03F3002805FA04F521EA030346
:1020500022EA050203FA04F343EA02034FEA0313F8
:10206000DBB206DB00F1604000F5614080F8003330
:1020700030BD00F00F00024A1354F9E700ED00E014
:1020800014ED00E0002807DB4109012300F01F00E8
:10209000024A834042F82130704700BF00E100E06F
:1020A0000A4910B50C6924F440740C610C6944F4BD
:1020B00040740C610C6944F001040C610260BFF3D0
:1020C0006F8F4360BFF34F8F10BD00BF003C0240D5
:1020D000084B1A6922F440721A611A6942F40072BC
:1020E0001A611A6942F001021A610160BFF34F8F51
:1020F000704700BF003C0240084B1A6922F440724E
:102100001A611A6942F480721A611A6942F0010276
:102110001A610180BFF34F8F704700BF003C02403F
:10212000074B1A6922F440721A611A691A611A6916
:1021300042F001021A610170BFF34F8F704700BF78
:10214000003C02401B4AD368990704D51A498B69A1
:1021500043F020038B61D368DA0604D5164A9369ED
:1021600043F010039361134AD3689B0604D51249C8
:102170008B6943F008038B61D368580604D50E4A77
:10218000936943F0040393610A4AD368190604D59E
:1021900009498B6943F002038B61D368DB0504D5E1
:1021A000054A936943F040039361024B4FF4F9727F
:1021B000DA607047003C024010100020064B1A699C
:1021C000002A07DA054A5A6002F188325A60186913
:1021D000C00F704700207047003C02402301674554
:1021E000034A0020136943F000431361704700BFA6
:1021F000003C0240134B002270B504469A61124D18
:10220000FFF7E4FE0646EB68DA0307D4EB6813F445
:10221000F97F0ED0FFF796FF012003E0611CF2D09A
:102220000CB9032070BDFFF7D1FE801BA042EAD994
:10223000F7E7EB68DB0701D40020F3E70123EB604D
:10224000FAE700BF10100020003C02402DE9F041E9
:102250001B4F984606460C463B7D1546012B2DD05C
:1022600001234CF250303B75FFF7C4FF90B9032EA9
:1022700007D8DFE806F00213181DE9B22046FFF781
:102280004FFF4CF25030FFF7B5FF0E4A136923F0B1
:102290000103136100233B75BDE8F081A9B220461C
:1022A000FFF72AFFEDE729462046FFF711FFE8E791
:1022B0002A4643462046FFF7F3FEE2E70220EBE71B
:1022C00010100020003C0240084B1A6922F44072B2
:1022D0001A611A6942F004021A611A6942EA00227C
:1022E00042F480321A61BFF34F8F7047003C0240C6
:1022F0000E4B02291A6994BF09024FF4407122F46F
:1023000040721A611A690A431A611A6922F0F802C6
:102310001A611A6942EAC00040F0020018611A69A5
:1023200042F480321A61BFF34F8F7047003C024085
:102330002DE9F843DFF8908005460F4698F81430F1
:10234000012B3DD001234CF2503088F81430FFF7B8
:1023500051FF044690B94FF0FF333B602B68012BCF
:1023600012D1287BFFF7B0FF4CF25030FFF742FF4D
:10237000144A0446136923F004031361002388F808
:1023800014302046BDE8F8836E68DFF83890D5E950
:1023900001231344B342F1D9297B3046FFF7A8FF4C
:1023A0004CF25030FFF726FFD9F8103023F07A03B3
:1023B000C9F8103010B104463E60DFE70136E6E7A9
:1023C0000224DEE7003C0240101000202DE9F74F08
:1023D0000023DFF8A491664A01240D689C4004EABA
:1023E0000506AC4340F0AF804D6803274FEA430E2B
:1023F00005F0030407FA0EFC671E6FEA0C0C012FB0
:1024000034D8876807EA0C08CF6807FA0EF747EA5E
:1024100008078760476827EA0608C5F300179F404A
:1024200047EA08074760C768022C07EA0C088F686C
:1024300007FA0EF747EA0807C76019D14FEAD30831
:1024400003F0070A4FF00F0B00EB88084FEA8A0AE7
:10245000D8F820700BFA0AFB27EA0B0B0F6907FA72
:102460000AF747EA0B07C8F8207001E0032CDAD11D
:10247000076804FA0EF415F4403F07EA0C0744EA33
:10248000070404605FD0D9F8444023F0030703F049
:10249000030C4FF00F0E44F4804407F180474FEADD
:1024A0008C0CC9F8444007F59C37D9F844400EFA23
:1024B0000CFE04F480440194019CBC6824EA0E0ED6
:1024C0002C4CA04246D004F58064A04244D004F5D0
:1024D0008064A04242D004F58064A04240D004F55C
:1024E0008064A0423ED004F58064A0423CD004F554
:1024F0008064A0423AD004F58064A04214BF08244E
:10250000072404FA0CF415F4801F44EA0E04BC609E
:102510006FEA060794680CBF3C40344315F4001F73
:102520009460D4680CBF3C40344315F4003FD46041
:1025300054680CBF3C403443ED035460146854BFEE
:102540003C40344314600133102B7FF445AF03B09B
:10255000BDE8F08F0024D4E70124D2E70224D0E7BD
:102560000324CEE70424CCE70524CAE70624C8E701
:10257000003C014000000240003802402DE9F04FCD
:1025800000224FF0010A4FF00F084FF0030B404CB0
:102590000AFA02FC3CEA01030CEA010664D122F0CB
:1025A000030502F0030705F18045BF0005F59C35E2
:1025B00008FA07F9AB6809EA030E364B984258D07F
:1025C00003F58063984256D003F58063984254D057
:1025D00003F58063984252D003F58063984250D04F
:1025E00003F5806398424ED003F5806398424CD047
:1025F00003F58063984214BF08230723BB4073454B
:1026000013D1236823EA06032360636823EA0603E1
:102610006360E36823EA0603E360A36823EA060332
:10262000A360AB6823EA0903AB6053000568D608D2
:102630000BFA03F300EB860625EA0305056002F0BA
:102640000705376AAD0008FA05F527EA050737627E
:10265000C56825EA0305C560456825EA0C0545609F
:10266000856825EA030383600132102A90D1BDE812
:10267000F08F0023C2E70123C0E70223BEE7032354
:10268000BCE70423BAE70523B8E70623B6E700BF93
:10269000003C0140000002400AB18161704709041A
:1026A000FBE77047044A5169014208B502D0506106
:1026B000FFF7F7FF08BD00BF003C014003689A69BF
:1026C000910701D500229A629A69D20703D49A69C8
:1026D00042F001029A61704730B5039DC1F30901D0
:1026E00004682B43606843EA0243054A0B4342EA0D
:1026F000555223F0004320EA02000343636030BDDB
:10270000FF63FF032DE9F843056806468846174630
:10271000AC6914F0100470D000241023A146EB61C2
:102720003568AB69980662D4B9F1000F34D044F033
:1027300004040120AB69D90505D54FF4807244F03B
:1027400001040120EA615A0505D54FF4806244F086
:1027500008040120EA619B0551D54FF4007344F051
:102760000204EB613046FFF7A9FF6B68012023F0FC
:10277000FF7323F48B3323F4FF7323F001036B60A7
:10278000736C23437364202386F84130002386F85A
:10279000423086F8403034E0B8F1FF3FC1D0FFF757
:1027A00015FCC01B404502D8B8F1000FB8D1336802
:1027B000596896F842209869D2B200040AD54904B3
:1027C00008D4202A06D05A6842F480425A60FFF7A3
:1027D000FDFB074633689B699D06A1D4FFF7F6FB16
:1027E000C01B1928F6D920244FF0010998E7B9F148
:1027F000000F9CD12023EB6199E720469AE700283F
:10280000B0D1BDE8F88370B504460D46164623687E
:102810009B699B0701D500201FE0324629462046D0
:10282000FFF770FFC0B96A1CF1D0FFF7CFFB801B28
:10283000A84201D8002DEAD123689B6913F0020356
:10284000E5D1626C84F8403042F0200262642022BC
:1028500084F8412084F84230012070BD2DE9F04118
:10286000DDF8188004460F4616461D4623689B690E
:1028700037EA03030CBF01230023B34201D0002039
:1028800025E0424629462046FFF73CFFF0B96B1C85
:10289000ECD0FFF79BFBA0EB0800A84201D8002D6D
:1028A000E4D123689B6937EA03030CBF01230023AB
:1028B000B342DBD1636C43F020036364202384F8CC
:1028C0004130002384F8423084F840300120BDE8D4
:1028D000F08170B504460D46164623689B699B0639
:1028E00001D500201DE0324629462046FFF70AFFA9
:1028F000B0B9FFF76BFB801BA84201D8002DECD1CB
:1029000023689B6913F02003E7D1626C84F84030A0
:1029100042F020026264202284F8412084F8423090
:10292000012070BD2DE9F84304460F46904600256E
:102930004FF01009214E23689B695B0700D415B145
:102940002846BDE8F883424639462046FFF7DAFEBE
:10295000236805469A69900614D595B99A699A69CB
:10296000D1061AD504222021C3F81C906264D961D3
:102970005A6832405A6084F8411084F8405084F814
:1029800042500125FFF722FBA0EB0800B84201D816
:10299000002FD0D11DB10125CDE76564F2E7236892
:1029A0009B695A07C7D4636C84F8405043F02003F6
:1029B0006364202384F84130EDE700BF00E800FEA7
:1029C00010B5044600284ED090F8413003F0FF02C5
:1029D0001BB980F84020FEF7D5FF242384F841304E
:1029E00023681A6822F001021A60626822F070629D
:1029F0001A619A6822F400429A60D4E902210129FE
:102A000006D142F400429A605A6822F4006207E05C
:102A100042F4044202299A60F6D15A6842F40062F4
:102A20005A6000205A6842F0007242F400425A6034
:102A3000DA6822F40042DA60D4E904210A43A16989
:102A400042EA0122DA60D4E907210A431A601A68CF
:102A500042F001021A602023606484F84130206350
:102A600084F8420010BD0120FCE700002DE9F34787
:102A7000994690F8413004460E46202B90460A9F16
:102A800040F09E8090F84030012B00F099804FF08C
:102A9000010A80F840A0FFF799FA19230546009033
:102AA00052464FF400412046FFF7D8FE18B10120EE
:102AB00002B0BDE8F0872123C4F82480606384F865
:102AC0004130102384F842306064A4F82A90638D6A
:102AD0009BB2FF2B16D9FF224FF0807C2285414606
:102AE0002368013A11F8010B92B298626346616261
:102AF000618D22850132013989B2618531490091A8
:102B0000D2B20AE0628D92B2228512B14FF0007CFF
:102B1000E5E72C4B00934FF0007331462046FFF75A
:102B2000DBFD638D2A46394620469BB2BBB9FFF7D1
:102B3000D0FE0028BBD123682021D9615A6822F039
:102B4000FF7222F48B3222F4FF7222F001025A60EB
:102B500084F8411084F8400084F84200A8E7FFF7A9
:102B600052FE0028A3D1636A226813F8011B916208
:102B70006362638D228D013B013A9BB292B2638501
:102B8000638D22859BB2002BCBD0002AC9D13B4656
:102B9000802120460095FFF761FE002887D1638DD4
:102BA0009BB2FF2B05D9FF224FF080732285009046
:102BB000B3E7628D4FF0007392B2228500909FE7D9
:102BC000022075E7002000802DE9F347984690F831
:102BD000413004460E46202B91460A9F40F08A80E1
:102BE00090F84030012B00F085804FF0010A80F80A
:102BF00040A0FFF7EBF919230546009052464FF429
:102C000000412046FFF72AFE18B1012002B0BDE8BE
:102C1000F0872223C4F82490606384F841301023A5
:102C200084F842306064A4F82A80638D9BB2FF2B45
:102C3000314B27D9A4F828A0524600934FF0807357
:102C400031462046FFF748FD638D2A463946204627
:102C50009BB2FBB9FFF73DFE0028D6D123682021A7
:102C6000D9615A6822F0FF7222F48B3222F4FF728B
:102C700022F001025A6084F8411084F8400084F880
:102C80004200C3E7628D92B2228500934FF0007339
:102C9000D2B2D5E7FFF746FE0028B6D123685A6ABC
:102CA000636A1A70636A228D0133013A6362638D2D
:102CB00092B2013B22859BB26385638D9BB2002B50
:102CC000C2D0002AC0D13B46802120460095FFF7A4
:102CD000C5FD002899D1638D9BB2FF2B05D9FF223A
:102CE0004FF0807322850090AAE7628D92B2228510
:102CF0000090CBE7022089E7002400802DE9FF4700
:102D00001D46002304461746039390F84130202BBC
:102D100079D103689B6913F4004374D190F8402083
:102D2000012A70D0C1F30906012246F0007880F82C
:102D30004020242248F4205880F841204364E3686E
:102D40002268012B0ABF46F00073434643F4005348
:102D50005360FFF73BF98146226893699269C3F398
:102D60004013C2F3001213431DD023689A6912F076
:102D7000100A38D12B46524620212046CDF800902B
:102D8000FFF76CFD28B3636C042B04D12368202269
:102D9000DA61C4F844A0039B01330393039B039BB4
:102DA000BB42CCD309E06B1CD6D0FFF70FF9A0EBE8
:102DB0000900A84201D8002DCED12023012084F89B
:102DC0004130636C43F020036364002384F8403097
:102DD00006E020232268D36184F8413084F8400063
:102DE00004B0BDE8F087102220212046DA612B468E
:102DF0000022CDF80090FFF731FD0028CBD12368E9
:102E00002022DA61C7E70220EAE710B590F84120F6
:102E10000346202AD4B21CD190F84020012A18D0B1
:102E2000242280F841200268106820F00100106020
:102E3000106820F480501060106801430020116079
:102E4000116841F00101116083F8414083F84000AE
:102E500010BD0220FCE710B590F841200346202A5F
:102E6000D4B21BD190F84020012A17D0242280F838
:102E700041200268106820F001001060106820F402
:102E8000706040EA012100201160116841F00101E9
:102E9000116083F8414083F8400010BD0220FCE738
:102EA000F7B5044618B390F89534056803F0FF02AF
:102EB0001BB980F89424FEF74DFE0323B5F1A04F13
:102EC000206804F1040584F8953404BF0023A3713D
:102ED00001F030FA237C8DF80030206895E80E0070
:102EE00001F0D2F9014630B1022384F8953401256E
:102EF000284603B0F0BD206801F022FA0028F3D183
:102F0000267904F1140301270246C1B224338E420C
:102F100020D8002104F515730A46C8B2243386422E
:102F200026D8237C8DF80030206895E80E0001F04B
:102F300081FA05460028D7D10123607484F89534BE
:102F4000237B012B02D1204600F01EF8206801F0FF
:102F50002BFBCDE723F80A0C013003F8237C03F8A0
:102F6000241C03F8202C43F8142C43E90722CCE757
:102F7000013103F8232C03F8240C03F8202C43F828
:102F8000142C43E90722C8E7012102680346C0F870
:102F9000D814002083F8CC04936943F00063936154
:102FA000536D43F0805343F00303536570470000B3
:102FB000024A136843F48073136070470070004046
:102FC0002DE9F341044640B30368DE0710D42368BB
:102FD0009D0761D42368190700F1A68023685A076A
:102FE00000F1C780A269002A40F0308100202CE067
:102FF000944B9A6802F00C02042A07D09A6802F0F7
:103000000C02082A0BD15B68590208D58D4B1B684E
:103010009A03DCD56368002BD9D1012015E06368E1
:10302000884DB3F5803F13D12B6843F480332B6078
:10303000FEF7CCFF834E054633689B03C7D4FEF7EB
:10304000C5FF401B6428F7D9032002B0BDE8F0811A
:103050009BB92B6823F480332B602B6823F48023E7
:103060002B60FEF7B3FF06462B689F03AFD5FEF734
:10307000ADFF801B6428F7D9E6E7B3F5A02F2B68D6
:1030800003D143F480232B60CEE723F480332B60FD
:103090002B6823F48023CAE76A4B9A6812F00C0F5E
:1030A00007D09A6802F00C02082A11D15B685D0211
:1030B0000ED4644A1368990702D5E368012BACD19A
:1030C0001368216923F0F80343EAC103136081E721
:1030D000E3685C4DBBB12B6843F001032B60FEF746
:1030E00075FF06462B689B0707D52B68226923F0DE
:1030F000F80343EAC2032B606CE7FEF767FF801B0F
:103100000228EFD9A0E72B6823F001032B60FEF71C
:103110005DFF06462B689F077FF55CAFFEF756FF05
:10312000801B0228F6D98FE76369464D83B16B6F28
:1031300043F001036B67FEF749FF06466B6F9B0781
:103140003FF54CAFFEF742FF801B0228F6D97BE724
:103150006B6F23F001036B67FEF738FF06466B6F5A
:103160009F077FF53BAFFEF731FF801B0228F6D9A2
:103170006AE7344B1A6CD50027D41A6C012742F049
:1031800080521A641B6C03F080530193019B2E4DF7
:103190002B68D8051BD5A3682A4D012B27D12B6F8F
:1031A00043F001032B6741F28838FEF70FFF254EED
:1031B0000546336F9A073FD5002F3FF413AF214ADE
:1031C000136C23F0805313640CE70027DFE72B68B0
:1031D00043F480732B60FEF7F9FE06462B68D90591
:1031E000D9D4FEF7F3FE801B6428F7D92CE7ABB9DE
:1031F0002B6F41F2883823F001032B672B6F23F0EC
:1032000004032B67FEF7E2FE06462B6F9B07D3D520
:10321000FEF7DCFE801B4045F7D915E7052B2B6F29
:1032200003D143F004032B67B9E723F001032B67B5
:103230002B6F23F00403B5E7FEF7C8FE401B4045A3
:10324000B7D901E70038024000700040384DAB6844
:1032500003F00C03082B41D02B68022A23F0807363
:103260002B602ED1FEF7B2FE06462B68990122D4C0
:10327000A36A5B085A1ED4E907310B4343EA0243B1
:10328000626A43EA8213E26A43EA026343F000534C
:103290006B602B6843F080732B60FEF797FE244D24
:1032A00004462B689A013FF5A1AEFEF78FFE001B86
:1032B0000228F6D9C8E6FEF789FE801B0228D4D979
:1032C000C2E6FEF783FE04462B689B017FF58EAEB7
:1032D000FEF77CFE001B0228F6D9B5E6012A6B68D2
:1032E0003FF49BAE03F48002E1698A427FF495AE1D
:1032F00003F03F02216A8A427FF48FAE47F6C07224
:10330000616A1A40B2EB811F7FF487AEA26A03F4B0
:1033100040315208013AB1EB024F7FF47EAEE26ACF
:1033200003F07063B3EB026F14BF012000208CE642
:1033300000380240134908B58B6803F00C03042BD6
:103340001BD0082B1BD14A684B68496802F03F022A
:1033500013F48003C1F388111ABF0B4800230B48F4
:10336000A1FB0001FDF714F8064B5B68C3F30143B2
:1033700001335B00B0FBF3F008BD0348FCE70348F2
:10338000FAE700BF0038024000127A000024F4007F
:103390002DE9F0410D46044610B90120BDE8F08149
:1033A000454A136803F00F038B4228D321688F0727
:1033B00030D4C80743D4404A136803F00F03AB422C
:1033C00066D8226851076FD4130707D53B4A216995
:1033D000936823F4604343EAC1039360FFF7AAFFB5
:1033E000364B374A9B68C3F30313D35CD840354B45
:1033F0001860354B1868FEF701FC0020CEE7136813
:1034000023F00F030B431360136803F00F038B4289
:10341000C3D1CBE711F0040F284B03D09A6842F4D4
:10342000E0529A600E0703D59A6842F460429A60AF
:103430009A68A06822F0F00202439A60B9E76168D6
:103440001E4B01291A681BD112F4003FA5D09A68BF
:1034500041F28838194F22F003020A439A60FEF7BE
:10346000B5FD0646BB68626803F00C03B3EB820F40
:10347000A1D0FEF7ABFD801B4045F3D903208DE7BB
:10348000022902D112F0007FE0E712F0020FDDE71F
:10349000136823F00F032B431360136803F00F032B
:1034A000AB427FF47AAF8CE70449E0688B6823F481
:1034B000E05303438B6087E7003C02400038024042
:1034C000709302082800002030000020044B054AB9
:1034D0009B68C3F38223D35C034A1068D8407047CB
:1034E000003802406893020828000020044B054A77
:1034F0009B68C3F34233D35C034A1068D8407047DB
:103500000038024068930208280000200F2303605F
:103510000B4B9A6802F0030242609A6802F0F002D4
:1035200082609A6802F4E052C2609B68DB0803F490
:10353000E0530361034B1B6803F00F030B607047FC
:1035400000380240003C024003682DE9F74313F0C5
:10355000010604460BD0AC4A916821F40001916049
:10356000C66A91683143B6FA86F67609916013F41B
:10357000002512D0A449656BD1F88C20B5F5801FC9
:1035800022F4401208BF012642EA050216BFB5FA2E
:1035900085F500256D09C1F88C20D90211D59A480E
:1035A000A16BD0F88C20B1F5800F22F4400242EAE2
:1035B0000102C0F88C2000F04C81002908BF45F0C2
:1035C00001059A0631D5904B904F1A6C42F080520B
:1035D0001A641B6C03F080530193019B3B6843F416
:1035E00080733B60FEF7F2FC80463B68DB0540F1F0
:1035F0003281854F3B6F13F4407340F03781A36AEB
:1036000003F44072B2F5407F7F4A40F055819168E3
:1036100023F0704021F4F81120F4407001439160D0
:10362000C3F30B03116F0B4313672368DA060CD542
:10363000754AD2F88C1021F08071C2F88C10D2F843
:103640008C10206B0143C2F88C105F0408D56E49C2
:10365000E06DD1F8902022F440320243C1F890206E
:10366000180408D56849206ED1F8902022F4402231
:103670000243C1F89020D90308D56349606ED1F8A0
:10368000902022F440120243C1F890205A0608D537
:103690005D49E06BD1F8902022F003020243C1F8AB
:1036A00090201F0608D55849206CD1F8902022F0B0
:1036B0000C020243C1F89020D80508D55249606C2D
:1036C000D1F8902022F030020243C1F890209905F1
:1036D00008D54D49A06CD1F8902022F0C0020243D9
:1036E000C1F890205A0508D54749E06CD1F89020E0
:1036F00022F440720243C1F890201F0508D54249C8
:10370000206DD1F8902022F440620243C1F890204D
:10371000D80408D53C49606DD1F8902022F440527D
:103720000243C1F89020990408D53749A06DD1F81B
:10373000902022F440420243C1F890209A020DD515
:103740003148616FD0F89020B1F1006F08BF45F0AB
:10375000010522F000620A43C0F890205F0308D5FB
:103760002949E06ED1F8902022F040720243C1F85E
:103770009020180208D52449A06FD1F8902022F09B
:1037800080520243C1F89020590108D51E49E06FCC
:10379000D1F8902022F000520243C1F89020002E70
:1037A00040F08E809A0100F18B80012D4FD1164D93
:1037B0002B6823F080532B60FEF708FC06462B682D
:1037C0009F0000F1E08021680D0301D5636B1BB100
:1037D000C8021DD5A36BDBB90B4AD4E90453D2F858
:1037E00088001B0600F4403043EA85130343C2F807
:1037F0008830D2F88C30206A23F4F853013843EA39
:103800000023C2F88C3003E0003802400070004012
:103810008A0210D5636FB3F1006F0CD16149A369BF
:10382000D1F8882020691B0402F0706243EA8013FB
:103830001343C1F888305B4C236843F08053236006
:10384000FEF7C4FB054623689B0040F1A3800020DF
:1038500009E00126B5E6FEF7B9FBA0EB08006428F5
:103860007FF6C3AE032003B0BDE8F083A26A02F482
:10387000407293423FF4C3AE3B6F3A6F23F4407300
:1038800042F480323A673A6F22F480323A673B67FB
:103890003B6FD8077FF5B3AEFEF798FB41F288394E
:1038A00080463B6F99073FF5AAAEFEF78FFBA0EB72
:1038B00008004845F5D9D5E7916821F4F811AEE63E
:1038C000384E336823F080633360FEF77FFB074692
:1038D00033681B0151D42268D7070DD5E36A5BB961
:1038E000D6F88410D4E9010301F070611B0743EAA4
:1038F00080130B43C6F88430100303D5636BB3F514
:10390000801F05D0D10219D5A36BB3F5800F15D157
:103910002449E368D1F8840066681B0600F0E040A3
:1039200043EA86130343C1F88430D1F88C00E3697D
:1039300020F01F00013B0343C1F88C3092010AD5EF
:10394000E36862681B0643EA8213A26843EA0273D3
:10395000144AC2F88430134E336843F080633360F6
:10396000FEF734FB074633681B013FF51EAFFEF739
:103970002DFBC01B6428F6D974E7FEF727FBC01B9C
:103980006428A5D96EE7FEF721FB801B64287FF62B
:1039900016AF67E7FEF71AFB401B64287FF653AFAC
:1039A00060E700BF003802407047000090F83D30EB
:1039B000012B33D1022380F83D300368DA6842F0EE
:1039C0000102DA60164A93421AD0B3F1804F17D041
:1039D000A2F57C42934213D002F5806293420FD04D
:1039E00002F5806293420BD002F57842934207D0F1
:1039F00002F57052934203D0A2F59432934207D15C
:103A00009968084A0A40062A06D0B2F5803F03D0DA
:103A10001A6842F001021A600020704701207047C6
:103A20000000014007000100704770477047704771
:103A3000036870B5DD6804461E69B2070DD5A90795
:103A40000BD56FF002021A61012202779B699A0777
:103A500075D0FFF7EAFF00232377730710D56807B7
:103A60000ED523686FF0040220461A6102222277E5
:103A70009B6913F4407F68D0FFF7D7FF00232377BB
:103A800031070FD52A070DD523686FF008022046AD
:103A90001A6104222277DB699B075CD0FFF7C5FF20
:103AA00000232377F10610D5EA060ED523686FF0C0
:103AB000100220461A6108222277DB6913F4407F46
:103AC0004FD0FFF7B2FF00232377F30708D5E807AD
:103AD00006D523686FF0010220461A61FDF706FA49
:103AE00016F4025F08D0290606D523686FF4025247
:103AF00020461A6100F0C1F8F20508D52B0606D55C
:103B000023686FF4807220461A6100F0B7F87006DF
:103B100008D5690606D523686FF0400220461A6171
:103B2000FFF785FFB20622D5AB0620D523686FF0DC
:103B3000200220461A61BDE8704000F09DB8FFF7F2
:103B400073FF2046FFF772FF85E7FFF76DFF204602
:103B5000FFF76CFF92E7FFF767FF2046FFF766FF6E
:103B60009EE7FFF761FF2046FFF760FFABE770BD00
:103B7000274A0368904212D0B0F1804F0FD0A2F5CF
:103B80007C4290420BD002F58062904207D002F551
:103B90008062904203D002F57842904208D123F02F
:103BA00070034A68134323F44073CA68134316E052
:103BB000184A9042F7D002F580629042F3D002F5A5
:103BC00080629042EFD0A2F598329042EBD002F59D
:103BD00080629042E7D002F580629042E3D04A6969
:103BE00023F0800313438A68C2620A688262084A2B
:103BF000904203D002F58062904201D10A690263CB
:103C0000026842F0040202600122426103607047D0
:103C1000000001400040014010B5044650B390F848
:103C20003D3003F0FF021BB980F83C20FFF7BCFEDB
:103C300002232068211D84F83D30FFF799FF0123FE
:103C4000002084F8483084F83E3084F83F3084F80F
:103C5000403084F8413084F8423084F8433084F8AE
:103C6000443084F8453084F8463084F8473084F88E
:103C70003D3010BD0120FCE7704770477047026877
:103C800052E8003F23F4907342E8003102680029B3
:103C9000F5D102F1080353E8003F23F0010302F1DC
:103CA000080C4CE800310029F3D1036E012B07D139
:103CB00052E8003F23F0100342E800310029F7D119
:103CC0002023C0F88030002303668366704700001D
:103CD00038B50446C0692169A26823680A4361694E
:103CE0001D680A436E4902432940256A0A43E16878
:103CF0001A605A6822F440520A435A60A2699968CD
:103D00002A4321F430610A439A60664A934213D1F0
:103D1000654BD3F8903003F00303022B00F0A5802D
:103D2000032B00F09C80012B67D0B0F5004F00F012
:103D30009080FFF7DBFB12E05C4A934226D15A4B9E
:103D4000D3F8903003F00C03082B00F08E8016D8C7
:103D5000002B52D1B0F5004F76D0FFF7B7FB00280B
:103D600075D0626800EB5203B3FBF2F34FF6EF72CB
:103D7000A3F11001914204D82268D36067E00C2BB4
:103D80006DD001200023C4E91A3338BD484A93425C
:103D900009D1454BD3F8903003F03003202B64D089
:103DA000D6D9302BECE7434A934209D13E4BD3F8A6
:103DB000903003F0C003802B57D0C9D9C02BDFE768
:103DC0003D4A93420BD1384BD3F8903003F4407303
:103DD000B3F5007F49D0BBD9B3F5407FD0E7374A70
:103DE000934213D1304BD3F8903003F44063B3F5D2
:103DF000006F3AD007D8002B97D0B0F5004F2BD1E9
:103E0000FFF798FA22E0B3F5406FB9E72C4A9342E6
:103E10000BD1254BD3F8903003F44053B3F5005F3A
:103E200023D095D9B3F5405FAAE7264A9342A8D19B
:103E30001D4BD3F8903003F44043B3F5004F14D03A
:103E400086D9B3F5404F9BE7FFF740FB90B90020C0
:103E500098E7FFF74BFBF9E7FFF76CFA7FE7B0F560
:103E6000004F07D04FF400407BE7B0F5004F1648F5
:103E70007FF477AF6268530803EB4003B3FBF2F3C0
:103E80004FF6EF72A3F1100191423FF67AAF23F0A3
:103E90000F02C3F34203216892B21343CB60D6E70B
:103EA000F369FFEF00100140003802400044004079
:103EB00000480040004C0040005000400014014009
:103EC00000780040007C00400024F400436A1A0798
:103ED00010B506D50168446B4A6822F400422243BB
:103EE0004A60DC0706D50168846A4A6822F4003219
:103EF00022434A60990706D50168C46A4A6822F4D9
:103F0000803222434A605A0706D50168046B4A682A
:103F100022F4802222434A60DC0606D50168846BC5
:103F20008A6822F4805222438A60990606D5016885
:103F3000C46B8A6822F4005222438A605A0610D564
:103F40000168046C4A68B4F5801F22F4801242EACA
:103F500004024A6005D14A68446C22F4C00222433C
:103F60004A601B0606D50268816C536823F400235F
:103F70000B43536010BD2DE9F843DDF82090044653
:103F80000D46174698462268D36935EA03030CBFED
:103F900001230023BB4201D0002022E0B9F1FF3F02
:103FA000F2D0FEF713F8A0EB0800484529D8B9F184
:103FB000000F26D021680B685A07E4D5802DE2D087
:103FC000402DE0D0CE6916F008060CD0082520461A
:103FD0000D62FFF754FE00230120C4F8845084F8DA
:103FE0007830BDE8F883CB691B05CCD54FF400636E
:103FF00020460B62FFF743FE202384F87860C4F864
:1040000084300320EDE72DE9F7439846C36F04465B
:104010000E46202B174643D1002943D0002A41D019
:1040200021230025C0F88450C367FDF7CFFFA368A4
:104030008146A4F85070B3F5805FA4F8527003D1A4
:1040400023690BB935461E46B4F852204B46CDF8CD
:10405000008092B23AB940212046FFF78CFF20231E
:1040600040B9E36708E0002280212046FFF783FF84
:1040700028B120230320E36703B0BDE8F083226862
:104080005EB935F8023BC3F308039362B4F85220DB
:10409000013A92B2A4F85220D6E716F8013BF4E7B1
:1040A0000220E9E70120E7E72DE9F7439846D0F839
:1040B000803004460F46202B16465CD100295CD088
:1040C000002A5AD022230025C0F88450C0F880303E
:1040D0000566FDF77BFFA3688146A4F85860B3F539
:1040E000805FA4F85A600DD12369DBB1FF22164628
:1040F000A4F85C20B4F85A0080B2E0B92023C4F8D8
:10410000803025E033B92569002DEFD07F221D4690
:104110001646EDE7B3F1805F0AD12369002BF5D095
:104120003F22E4E740F2FF123D461F461646DFE716
:104130002A462E46DCE74B46002220212046CDF8B9
:104140000080FFF718FF30B120230320C4F880302F
:1041500003B0BDE8F08323685B6A334047B925F8B4
:10416000023BB4F85A30013B9BB2A4F85A30C1E785
:1041700007F8013BF5E70220EAE70120E8E737B559
:1041800000250446C0F88450FDF720FF226803464E
:10419000126812071AD56FF07E424FF400112046C4
:1041A00000922A46FFF7E7FE80B1226852E8003FFE
:1041B00023F0800342E800310029F6D120230320B8
:1041C000E367002384F8783003B030BD202300205B
:1041D000E367C4F8803020666066F2E710B50446F5
:1041E00040B3C36F1BB980F87830FDF70FFC242370
:1041F0002268E367136823F001031360636A13B155
:104200002046FFF763FE2046FFF762FD012811D02C
:10421000236820465A6822F490425A609A6822F035
:104220002A029A601A6842F00102BDE810401A6042
:10423000FFF7A5BF012010BD82B000230246019305
:10424000019B01330193019BB3F1706F1AD813697D
:10425000002BF5DA0A230193019B83B9136943F01C
:1042600001031361019B01330193019BB3F1706F53
:1042700008D8106910F00100F4D102B07047019B1A
:10428000013BE8E70320F8E784B038B505AD044604
:1042900085E80E009DF819309DF82020012B2AD1C9
:1042A000836B23F480338363C36823F4840323F094
:1042B0004003C360C36843F01003C360C36823F4C2
:1042C0004013012AE36003D1E36843F48013E36001
:1042D0002046FFF7B1FF9DF81630012B07D1A368E8
:1042E00043F00603A360A36843F02003A360BDE886
:1042F000384004B07047032B11D1836B23F4803313
:104300008363C36823F4840323F04003C360C3685A
:1043100023F44013C360C36823F01003D1E7C368DC
:1043200043F04003C360FFF787FFA36B43F4803380
:10433000A363D0E7836823F0010383600020704704
:1043400038B5C368012905460C4623F0C043C36055
:1043500013D1C368002443F00053C3600A200A3419
:10436000FDF73AFE6B69D90702D4C82CF6D1C824F0
:10437000A4F1C8035842584138BD69B9C36843F035
:104380008043C3600A200A34FDF726FE6B69DA0712
:10439000EED5C82CF6D1EAE70120EDE782B0002384
:1043A00002460193019B01330193019BB3F1706FAE
:1043B00015D81369002BF5DA8901002341F020019B
:1043C00001931161019B01330193019BB3F1706F64
:1043D00005D8106910F02000F4D102B07047032016
:1043E000FBE782B0002302460193019B0133019356
:1043F000019BB3F1706F13D81369002BF5DA00231A
:10440000019310231361019B01330193019BB3F1CD
:10441000706F05D8106910F01000F4D102B0704729
:104420000320FBE7D0F800381943C0F8001800203B
:104430007047000084B02DE9F843044609A880E8DD
:104440000E0000239DF824609DF827209DF8291078
:104450001F469DF82E5003F14000013304EB80000D
:104460000F2B4760F7D104F50067002D69D17B68F9
:1044700043F002037B60A36B23F40013A363236860
:1044800043F040032360236843F08003236000234C
:104490000129C4F8003E5BD1002A57D100212046F3
:1044A0004FF67F38FFF7BEFF10212046FFF776FF5B
:1044B00001462046FFF795FF0843002304F51062EC
:1044C000C0B24FF0904C19464FF0006E00383B617F
:1044D0007B6118BF0120FB619E423DD8002204F59C
:1044E00030634FF0904C4FF0006E11464FF67F381E
:1044F000964244D83B6923F480733B610023A36157
:104500006FF0804363619DF826301BB9A36943F0C7
:104510001003A361A269234B1343A3619DF82A30C2
:104520001BB1A36943F00803A361012D05D1A36961
:1045300043F0804343F00403A361BDE8F84304B0B3
:104540007047A36B43F40013A363A0E70121A6E720
:104550000329A1D00321A2E7D2F80090B9F1000FFE
:104560000BDA3BB9C2F800E011610133C2F80880F0
:104570002032B1E7C2F800C0F6E71160F4E7D3F8E3
:104580000090B9F1000F0BDA3AB9C3F800E01961F5
:104590000132C3F808802033AAE7C3F800C0F6E769
:1045A0001960F4E700383C80D0F8003E23F00303A4
:1045B000C0F8003ED0F8043843F00203C0F80438D5
:1045C00000207047EFF3058313B16FF005007047CB
:1045D000EFF31082074B12B9EFF3118212B11A6890
:1045E000022AF2D0186810B901221A6070474FF001
:1045F000FF3070477C17002008B501F0D5FB38B1BB
:10460000022804D0034B1868431E5842584108BD85
:104610000320FCE77C17002008B5EFF3058313B1F6
:104620006FF0050008BDEFF310820A4B12B9EFF3EB
:10463000118212B11A68022AF2D01A68012A05D131
:1046400002221A6001F0EAF80020EBE74FF0FF3099
:10465000E8E700BF7C170020F0B5144687B00022C1
:104660000B460592EFF305824ABBEFF3108212B9B5
:10467000EFF311821AB11F4A1268022A1FD0F0B15B
:1046800054B3A56925B16A1E372A02D9002017E064
:1046900018256268D207F9D466699EB1B20821680C
:1046A000D4E9027C87B1BCF1A70F08D9246934B1E1
:1046B0002EB10095CDE9014701F044F80590059829
:1046C00007B0F0BD8022EAE7BCF1000FF7D1246902
:1046D000002CF4D10C4601E01825802205A992B2E5
:1046E000CDE90051214601F06BF801281CBF0023E1
:1046F0000593E4E77C17002008B5EFF3058313B1B9
:104700006FF0050008BDEFF3108313B9EFF31183C9
:104710001BB1044B1B68022BF2D008B101F0F0F979
:104720000020EFE77C170020F8B50546EFF305877A
:1047300017B100242046F8BDEFF3108313B9EFF34F
:1047400011831BB1194B1B68022BF2D025B36E6885
:104750003307EED406F00106D5E9021399B14F2BC9
:10476000E7D9BEB1042000F0ADFB04460028E0D03C
:104770002D6837462946204600F03AFE002FD9D052
:1047800044F00104D6E7002BD3D12EB1042000F071
:10479000CEFBEAE70120E6E7012000F0C8FB044673
:1047A0000028C6D0002DE5D00026E1E77C170020C8
:1047B000034620F0010010B503F001020C46EFF3B0
:1047C000058111B16FF0050010BDEFF3108111B933
:1047D000EFF3118119B10D4909680229F2D0012BBB
:1047E00011D9214662B100F090FD012801D10020CD
:1047F000EAE7002C14BF6FF001006FF00200E3E75E
:1048000000F0BBFCF1E76FF00300DDE77C17002050
:10481000024620F0010008B502F00103EFF3058124
:1048200011B16FF0050008BDEFF3108111B9EFF37E
:10483000118119B10B4909680229F2D0012A0DD959
:104840003BB100F053FB01280CBF00206FF00200C9
:10485000E9E71A46194600F07BFAF4E76FF0030027
:10486000E1E700BF7C17002073B51446EFF3058322
:104870001BB10025284602B070BDEFF3108313B9B9
:10488000EFF311831BB11A4B1B68022BF1D00028E8
:10489000EFD00029EDD0ECB1D4E9023293B14F2A28
:1048A000E7D92269002AE4D001FB00F56669AE422F
:1048B000DFD30025009500F00EFA05460028D8D079
:1048C00024680FE0002AD4D12369002BD1D1636979
:1048D000002BCED1002200F012FA05460028C8D0E5
:1048E000002CEDD12146284600F082FDC2E700BF32
:1048F0007C17002013B51C46EFF3058323B1D8B90C
:104900006FF0030002B010BDEFF3108313B9EFF3A3
:1049100011831BB1174B1B68022BF0D00028EFD07E
:104920000029EDD00023224600F012FA012813D00E
:104930006CB16FF00100E5E70029E1D0002CDFD178
:10494000234601AA019400F00FFB012802D06FF06A
:104950000200D7E7019B0BB90020D3E74FF0E0231B
:104960004FF08052C3F8042DBFF34F8FBFF36F8F0A
:10497000F2E700BF7C17002013B51C46EFF3058358
:1049800023B1D0B96FF0030002B010BDEFF3108374
:1049900013B9EFF311831BB1164B1B68022BF0D038
:1049A0000028EFD00029EDD0224600F041FB01287D
:1049B00012D064B16FF00100E6E70029E2D0002CCC
:1049C000E0D101AA019400F0C0FC012802D06FF0F0
:1049D0000200D9E7019B0BB90020D5E74FF0E02397
:1049E0004FF08052C3F8042DBFF34F8FBFF36F8F8A
:1049F000F2E700BF7C17002070470000034B036004
:104A0000034B0B6080231360704700BFD416002057
:104A1000D4140020034B0360034B0B604FF48073EE
:104A2000136070472C1400202C10002000F10803A4
:104A30004FF0FF3243600361C0E9022300230360AB
:104A4000704700230361704743689A684B608A602F
:104A5000516099600368086101330360704730B5A5
:104A60000C68631C0AD103695A684A6091608B60C4
:104A70005960036808610133036030BD00F108022A
:104A8000134652681568A542FAD9EDE70369D0E9E3
:104A900001128A6051605968814208BF5A60002241
:104AA00002611A68013A1A601868704710B5044626
:104AB00001F0C0FCA46B01F0E1FCB4FA84F0400901
:104AC00010BD70B51646026C0446856B42B9066887
:104AD0009EB9806801F0B6F9A6600135A56370BD86
:104AE0006EB9406803F0CFF96368226C1344A26882
:104AF0009342636024BF236863600020EDE7C068D1
:104B000003F0C1F9226CE36851429B1A2268934278
:104B1000E3603EBFA3685B18E360022EEDD10DB1E8
:104B2000013DEAE72846D8E7034608461A6C10B468
:104B30005AB1DC68A1189C68A142D9605DF8044BA9
:104B400024BF1968D96003F09EB95DF8044B704723
:104B500070B5044601F06EFC94F8455004F124064B
:104B60006DB2002D01DD636AB3B9FF2304F11006B5
:104B700084F8453001F082FC01F05CFC94F844506C
:104B80006DB2002D01DD23697BB9FF2384F8443029
:104B9000BDE8704001F072BC304601F069F808B120
:104BA00001F0F6F8013D6DB2DBE7304601F060F848
:104BB00008B101F0EDF8013D6DB2E2E738B50D4600
:104BC000044650B94FF0500372B683F31188BFF317
:104BD0006F8FBFF34F8F62B6FEE701F02BFC2268A8
:104BE000D4E90F3162604B43D0185B1AA0601A44BD
:104BF0000020FF23E260A06384F8443084F845304D
:104C0000A5B9236973B104F1100001F031F848B17E
:104C10004FF0E0234FF08052C3F8042DBFF34F8FC5
:104C2000BFF36F8F01F02AFC012038BD04F11000A2
:104C3000FFF7FCFE04F12400FFF7F8FEF2E737B5BA
:104C40000D461C4653B94FF0500372B683F31188DA
:104C5000BFF36F8FBFF34F8F62B6FEE75AB1B1B9A2
:104C60004FF0500372B683F31188BFF36F8FBFF319
:104C70004F8F62B6FEE751B14FF0500372B683F327
:104C80001188BFF36F8FBFF34F8F62B6FEE75023DB
:104C90000193019B502B0AD04FF0500372B683F35F
:104CA0001188BFF36F8FBFF34F8F62B6FEE701210C
:104CB000002D08BF2246019B84F846102260C4E9FB
:104CC0000F052046FFF77AFF9DF81830204684F83C
:104CD0004C3003B030BD10B49DF8044050B94FF0D3
:104CE000500372B683F31188BFF36F8FBFF34F8FFA
:104CF00062B6FEE701945DF8044BFFF7A0BFF8B57C
:104D00000D461746064650B94FF0500372B683F36E
:104D10001188BFF36F8FBFF34F8F62B6FEE7484332
:104D2000503001F0DBFC044670B1002380F84630BF
:104D300065B100F15003012120462360C4E90F65ED
:104D4000FFF73CFF84F84C702046F8BD0346F2E7BD
:104D50002DE9FF410F461E460446019250B94FF01F
:104D6000500372B683F31188BFF36F8FBFF34F8F79
:104D700062B6FEE761B9036C53B14FF0500372B6EF
:104D800083F31188BFF36F8FBFF34F8F62B6FEE7D7
:104D9000022E0DD1E36B012B0AD04FF0500372B6F7
:104DA00083F31188BFF36F8FBFF34F8F62B6FEE7B7
:104DB00000F0FAFF054660B9019B5BB14FF050036C
:104DC00072B683F31188BFF36F8FBFF34F8F62B654
:104DD000FEE700254FF0000839E0022E3DD0019B90
:104DE0001BB901F04BFB002050E015B902A800F000
:104DF00083FF01F043FB00F065FD01F01BFB94F81D
:104E00004430FF2B01D184F8448094F84530FF2BC7
:104E100001D184F8458001F031FB01A902A800F01E
:104E200077FF002848D101F005FBA26BE36B9A42A3
:104E30002FD101F023FB019904F1100000F0DCFEFA
:104E40002046FFF785FE00F0E5FD50B3012501F097
:104E5000F1FAA26BE36B9A42BFD232463946204642
:104E6000FFF72FFE636A1BB104F1240000F000FF7E
:104E700048B14FF0E0234FF08052C3F8042DBFF348
:104E80004F8FBFF36F8F01F0F9FA012004B0BDE836
:104E9000F08101F0F3FA2046FFF75AFE00F0BAFD68
:104EA000D4E74FF0E0234FF08052C3F8042DBFF356
:104EB0004F8FBFF36F8FC9E72046FFF749FE00F021
:104EC000A9FD90E700220B4613B511460090012082
:104ED000FFF7B5FE002304461A46194683600360B7
:104EE000C360FFF735FF204602B010BD38B5044659
:104EF00050B94FF0500372B683F31188BFF36F8F30
:104F0000BFF34F8F62B6FEE7856800F047FF85422A
:104F10000BD1E368013BE3600BB1012038BD1A46B9
:104F200019462046FFF714FFF7E70020F6E770B5B3
:104F30000646502001F0D2FB044698B1002501211D
:104F4000006080F84650C0E90F15FFF737FE2B468A
:104F50002A462946204684F84C60A5602560E56015
:104F6000FFF7F6FE204670BD2DE9F8438946174647
:104F70001E46044650B94FF0500372B683F31188B1
:104F8000BFF36F8FBFF34F8F62B6FEE761B9036C5B
:104F900053B14FF0500372B683F31188BFF36F8F94
:104FA000BFF34F8F62B6FEE7022E0DD1E36B012BEC
:104FB0000AD04FF0500372B683F31188BFF36F8F9E
:104FC000BFF34F8F62B6FEE701F030FBEFF31188BD
:104FD0004FF0500372B683F31188BFF36F8FBFF3A6
:104FE0004F8F62B6A26BE36B9A4201D3022E1DD1A2
:104FF00094F845503246494620466DB2FFF761FDB0
:105000006B1C0ED1636A3BB104F1240000F030FE4A
:1050100010B10FB101233B60012088F31188BDE876
:10502000F88301356DB284F84550F5E70020F4E7C8
:105030002DE9FF410E460446019250B94FF050034E
:1050400072B683F31188BFF36F8FBFF34F8F62B6D1
:10505000FEE761B9036C53B14FF0500372B683F3AE
:105060001188BFF36F8FBFF34F8F62B6FEE700F07A
:105070009BFE054660B9019B5BB14FF0500372B6D1
:1050800083F31188BFF36F8FBFF34F8F62B6FEE7D4
:1050900000254FF000083DE0019B1BB901F0EEF93F
:1050A000002056E015B902A800F026FE01F0E6F94E
:1050B00000F008FC01F0BEF994F84430FF2B01D158
:1050C00084F8448094F84530FF2B01D184F8458062
:1050D00001F0D4F901A902A800F01AFE002841D17C
:1050E0002046FFF7E3FCB8B3019904F1240000F077
:1050F00083FD2046FFF72CFD00F08CFC48B94FF0F3
:10510000E0234FF08052C3F8042DBFF34F8FBFF35D
:105110006F8F012501F08EF9A76B002FBCD0013FE6
:1051200031462046FFF700FDA763236973B104F100
:10513000100000F09DFD48B14FF0E0234FF0805289
:10514000C3F8042DBFF34F8FBFF36F8F01F096F9B3
:10515000012004B0BDE8F0812046FFF7F9FC00F023
:1051600059FCD6E72046FFF7F3FC00F053FC20463D
:10517000FFF79CFC0028CCD092E7F0B585B0044640
:10518000019150B94FF0500372B683F31188BFF309
:105190006F8FBFF34F8F62B6FEE7056C55B14FF0CE
:1051A000500372B683F31188BFF36F8FBFF34F8F35
:1051B00062B6FEE700F0F8FD064660B9019B6BB1F0
:1051C0004FF0500372B683F31188BFF36F8FBFF3B4
:1051D0004F8F62B6FEE72E46002754E00546FBE7F8
:1051E000019B6BB9002D00F08C804FF0500372B61C
:1051F00083F31188BFF36F8FBFF34F8F62B6FEE763
:1052000016B902A800F078FD01F038F900F05AFB59
:1052100001F010F994F84430FF2B01D184F8447068
:1052200094F84530FF2B01D184F8457001F026F940
:1052300001A902A800F06CFD00284CD12046FFF720
:1052400035FC002841D023683BB901F0F3F8A06891
:1052500000F0BAFD054601F011F9019904F12400AE
:1052600000F0CAFC2046FFF773FC00F0D3FB48B9FE
:105270004FF0E0234FF08052C3F8042DBFF34F8F5F
:10528000BFF36F8F012601F0D5F8A36B002BA7D0D9
:10529000013BA363236813B900F06CFEA06023698F
:1052A00073B104F1100000F0E3FC48B14FF0E023CB
:1052B0004FF08052C3F8042DBFF34F8FBFF36F8FB1
:1052C00001F0DCF8012005B0F0BD2046FFF740FCFE
:1052D00000F0A0FBD6E72046FFF73AFC00F09AFB6F
:1052E0002046FFF7E3FB0028CCD065B101F0A2F81F
:1052F000616A19B1236B1968C1F13801A06800F027
:10530000E7FD01F0BBF80020DDE770B50D4604466F
:1053100050B94FF0500372B683F31188BFF36F8F0B
:10532000BFF34F8F62B6FEE7866800F037FD864216
:1053300004D1E36801200133E36005E029462046FB
:10534000FFF71BFF0028F4D170BD2DE9F843894613
:105350009046044650B94FF0500372B683F311885B
:10536000BFF36F8FBFF34F8F62B6FEE761B9036C77
:1053700053B14FF0500372B683F31188BFF36F8FB0
:10538000BFF34F8F62B6FEE701F050F9EFF31187DC
:105390004FF0500372B683F31188BFF36F8FBFF3E2
:1053A0004F8F62B6A56B0DB394F844604946204612
:1053B000013D76B2FFF7B8FBA563731C11D12369D9
:1053C00053B104F1100000F053FC28B1B8F1000F04
:1053D00002D00123C8F80030012087F31188BDE80E
:1053E000F883013676B284F84460F5E72846F4E79E
:1053F0000023074A30B552F8335002EBC3041DB9FD
:1054000042F83310606030BD0133082BF3D1FAE766
:105410008017002070B504460D46164601F00AF8C4
:1054200094F84430FF2B02D1002384F8443094F8E0
:105430004530FF2B02D1002384F8453001F01EF8DF
:10544000A36B2BB93246294604F1240000F0F0FB8F
:105450002046BDE87040FFF77BBB00002DE9F0411E
:10546000044600F0E7FF2F4B2F4E1A682F4F0132F2
:105470001A603568002D4AD134601B68012B1FD19A
:10548000B84601354046FFF7D1FA08F11408382D27
:10549000F7D1DFF8C080264D4046FFF7C7FA28460F
:1054A000FFF7C4FA2348FFF7C1FA2348FFF7BEFA13
:1054B0002248FFF7BBFA224BC3F80080214B1D6046
:1054C000214A136801331360204A63641168E36A58
:1054D0008B4200D913601420211D00FB0370FFF7DD
:1054E000B3FA00F0CBFF1A4B1B6873B13368DA6A6A
:1054F000E36A9A4209D24FF0E0234FF08052C3F89A
:10550000042DBFF34F8FBFF36F8FBDE8F081104BB9
:105510001B68002BD4D13368DA6AE36A9A42CFD889
:105520003460CDE7E4170020B81C00205818002094
:10553000301800201418002000180020E817002060
:105540002C18002028180020C8170020DC17002085
:10555000D817002044180020F8B5154B0646154D05
:105560000F461C6828680430FFF790FA731C07D1B7
:1055700037B1296810480431BDE8F840FFF764BA34
:10558000A4192B685C6007D30C4B18682968BDE828
:10559000F8400431FFF763BA094B186829680431F1
:1055A000FFF75DFA074B1A68A24200D91C60F8BDEC
:1055B000E0170020B81C0020E81700202818002061
:1055C0002C180020C4170020064A13681968064BDF
:1055D00019B94FF0FF321A6070471268D268D2686A
:1055E0005268F8E72C180020C417002010B50446B4
:1055F000543002F07FFB94F8A5303BB9206B01F0EA
:1056000003F92046BDE8104001F0FEB8012BF8D0A8
:10561000022B0AD04FF0500372B683F31188BFF308
:105620006F8FBFF34F8F62B6FEE710BD80B5134C8E
:10563000134F144D236873B9134B1B68012BF8D912
:105640004FF0E0234FF08052C3F8042DBFF34F8F8B
:10565000BFF36F8FEDE700F0EDFEFB68DE68301DF5
:10566000FFF714FA2B68013B2B602368013B236092
:1056700000F004FF3046FFF7B9FFDBE7FC1700201E
:1056800000180020E4170020581800202DE9F047EA
:10569000960007460D46A52132469846043EDDE9B0
:1056A0000994206B02F0F8FA236B1E4426F00706DB
:1056B000002D41D06B1E04F133020F3513F8011F8A
:1056C00002F8011F09B1AB42F8D1002384F843303E
:1056D000089D4FF0000A201D372DC4F850A028BFA8
:1056E0003725E562E564C5F13805FFF7AAF904F14D
:1056F0001800FFF7A6F94C225146C4F8A0A004F107
:1057000054002461A561646284F8A4A002F0C4FA84
:105710000B4B3946304603F16802A365D033E2658E
:105720004246236600F062FE2060B9F1000F01D00E
:10573000C9F80040BDE8F08784F83450C8E700BFDE
:10574000085A002070B586B0DDE90B5455B94FF00A
:10575000500372B683F31188BFF36F8FBFF34F8F7F
:1057600062B6FEE754B94FF0500372B683F3118866
:10577000BFF36F8FBFF34F8F62B6FEE7A826059683
:10578000059EA82E0AD04FF0500372B683F31188FD
:10579000BFF36F8FBFF34F8F62B6FEE7256302251D
:1057A000059E84F8A55004AD029401950A9D0095CC
:1057B000FFF76CFF2046FFF751FE049806B070BD5E
:1057C0002DE9F043074685B0900088461646994675
:1057D00000F084FF054620B94FF0FF3005B0BDE86A
:1057E000F083A82000F07AFF044698B100230563F7
:1057F0003246414680F8A5300D9B02903846019311
:105800000C9B00934B46FFF741FF2046FFF726FE17
:105810000120E3E7284600F0F7FFDDE710B588B088
:10582000002407AA06A905A8CDE90544FFF7E6F874
:10583000059B079A0293069B1B491C48CDE9004330
:105840002346FFF77FFF00282CD000F0F1FB012852
:105850001BD14FF0500372B683F31188BFF36F8FE3
:10586000BFF34F8F62B6124B124A1B68543313605A
:105870004FF0FF32104B1A60104B1860104B1C6039
:1058800008B0BDE8104000F06FBE01300AD14FF003
:10589000500372B683F31188BFF36F8FBFF34F8F3E
:1058A00062B6FEE708B010BD5A9202082D560208F3
:1058B000B81C002044000020C4170020D817002086
:1058C000E0170020024A136801331360704700BFDD
:1058D000C0170020014B1868704700BFE017002078
:1058E000414B1B682DE9F74F002B76D13F4B1D68CC
:1058F00001351D60CDB93E4B1A68126852B14FF0A8
:10590000500372B683F31188BFF36F8FBFF34F8FCD
:1059100062B6FEE7374A1968106818601160364AA7
:10592000136801331360FFF74FFE344E0024344FE9
:105930003368DFF8D880AB420AD8DFF8B4A0DFF8CC
:10594000D0B0DAF800301B68B3B94FF0FF333360E2
:10595000D8F800301422DB6A5343FB58012B94BF64
:10596000204644F00100274B1B68002B18BF40F075
:10597000010003B0BDE8F08FDAF80030DB68D3F83F
:105980000C90D9F80420954201D23260E0E709F189
:10599000040318460193FFF779F8D9F828201AB1C3
:1059A00009F11800FFF772F8D9F82C00DBF8002095
:1059B000904201D9CBF80000142309F1040103FB44
:1059C0000070FFF741F8D8F80010D9F82C20CB6A06
:1059D0009A4228BF44F00104B3E70B4A0020136841
:1059E00001331360BFE700BFC0170020E01700209D
:1059F0002C18002028180020CC170020C4170020E5
:105A000058180020D0170020D4170020B81C002000
:105A1000DC1700202DE9F041314C236853B94FF0D9
:105A2000500372B683F31188BFF36F8FBFF34F8FAC
:105A300062B6FEE700F0FEFC2368013B23602468A9
:105A40002CB1002400F01AFD2046BDE8F081254B62
:105A50001B68002BF5D0244D244EDFF8A0801DE0FC
:105A6000EB68DC68271D04F11800FFF70FF83846D3
:105A7000FFF70CF8E36A3268934200D933601420D0
:105A8000394600FB0380FEF7DFFF194BE26A1B6813
:105A9000DB6A9A4202D3174B01221A602B68002B53
:105AA000DED10CB1FFF790FD134D2C6844B1114EBF
:105AB0000127FFF715FF00B13760013CF9D12C60D9
:105AC0000C4B1B68002BBCD04FF0E0234FF08052F2
:105AD000C3F8042DBFF34F8FBFF36F8F0124B1E7DD
