:020000040800F2
:1000000000000420BD200008C11E0008C91E000811
:10001000D11E0008D91E0008E11E000800000000E3
:10002000000000000000000000000000D18800086F
:10003000E91E000800000000E18A0008498B000862
:100040000D2100080D2100080D2100080D210008D8
:100050000D2100080D2100080D2100080D210008C8
:100060000D2100080D2100080D2100080D210008B8
:100070000D2100080D2100080D2100080D210008A8
:100080000D2100080D2100080D2100080D21000898
:100090000D2100080D2100080D2100080D21000888
:1000A0000D2100080D2100080D2100080D21000878
:1000B0000D2100080D2100080D2100080D21000868
:1000C0000D2100080D2100080D2100080D21000858
:1000D0000D2100080D2100080D2100080D21000848
:1000E0000D2100080D2100080D2100080D21000838
:1000F0000D2100080D2100080D2100080D21000828
:100100000D2100080D2100080D2100080D21000817
:100110000D2100080D210008F91E00080D2100081E
:100120000D2100080D2100080D2100080D210008F7
:100130000D21000800000000000000000000000089
:100140000000000000000000000000000D21000879
:100150000D2100080D2100080D2100080D210008C7
:100160000D2100080D2100080D2100080D210008B7
:100170000D2100080D210008000000000000000013
:100180000D2100080D2100080D2100080D21000897
:100190000D2100080D210008000000000D210008BD
:1001A0000000000000000000000000000D21000819
:1001B0000D2100080D2100080000000000000000D3
:1001C000000000000000000000000000000000002F
:1001D0000000000000000000000000000D210008E9
:1001E00010B5054C237833B9044B13B10448AFF371
:1001F00000800123237010BDD80100200000000002
:1002000098CE000808B5034B1BB103490348AFF370
:10021000008008BD00000000DC01002098CE00082E
:100220004B1C012B98BF70472DE9F003911C9B08D4
:10023000B1F80480B1F802900A8831F802CC804409
:10024000814402448444D9F80070D8F800601568ED
:10025000DCF80040C9F80060C8F80070CCF8005025
:100260001460D9F80470D8F804605568DCF80440CC
:10027000C9F80460C8F80470CCF804505460083120
:10028000013BD5D1BDE8F00370474B1C012B98BF53
:1002900070472DE9F003911C9B08B1F80480B1F878
:1002A00002900A8831F802CC00EB580800EB59099B
:1002B00000EB520200EB5C0CD9F80070D8F800603B
:1002C0001568DCF80040C9F80060C8F80070CCF888
:1002D000005014600831013BDFD1BDE8F0037047E6
:1002E00001F0FF01102A2BDB10F0070F08D010F8E7
:1002F000013B013A8B422DD010F0070F42B3F6D1EB
:10030000F0B441EA012141EA014122F007047FF003
:1003100000070023F0E80256083C85EA010586EA5A
:10032000010685FA47F5A3FA87F586FA47F6A5FA96
:1003300087F68EB9EED1F0BC01F0FF0102F00702A2
:1003400032B110F8013B013A83EA010313B1F8D14D
:100350000020704701387047002D06BF354603382E
:10036000073815F0010F07D1013015F4807F02BF67
:10037000013015F4C03F0130F0BC0138704700BFB8
:10038000034613F8012B002AFBD1181A01387047D5
:1003900081F0004102E000BF83F0004330B54FEA36
:1003A00041044FEA430594EA050F08BF90EA020FA3
:1003B0001FBF54EA000C55EA020C7FEA645C7FEA36
:1003C000655C00F0E2804FEA5454D4EB5555B8BF59
:1003D0006D420CDD2C4480EA020281EA030382EACA
:1003E000000083EA010180EA020281EA0303362D5C
:1003F00088BF30BD11F0004F4FEA01314FF4801C2F
:100400004CEA113102D0404261EB410113F0004F40
:100410004FEA03334CEA133302D0524263EB4303F7
:1004200094EA050F00F0A780A4F10104D5F1200E95
:100430000DDB02FA0EFC22FA05F2801841F10001F0
:1004400003FA0EF2801843FA05F359410EE0A5F1C4
:1004500020050EF1200E012A03FA0EFC28BF4CF0F5
:10046000020C43FA05F3C01851EBE37101F00045AB
:1004700007D54FF0000EDCF1000C7EEB00006EEBB8
:100480000101B1F5801F1BD3B1F5001F0CD3490842
:100490005FEA30004FEA3C0C04F101044FEA445299
:1004A00012F5800F80F09A80BCF1004F08BF5FEA20
:1004B000500C50F1000041EB045141EA050130BD00
:1004C0005FEA4C0C404141EB0101013C28BFB1F512
:1004D000801FE9D291F0000F04BF01460020B1FA5D
:1004E00081F308BF2033A3F10B03B3F120020CDA30
:1004F0000C3208DD02F1140CC2F10C0201FA0CF00E
:1005000021FA02F10CE002F11402D8BFC2F1200C72
:1005100001FA02F120FA0CFCDCBF41EA0C01904028
:10052000E41AA2BF01EB0451294330BD6FEA040471
:100530001F3C1CDA0C340EDC04F11404C4F120025C
:1005400020FA04F001FA02F340EA030021FA04F36E
:1005500045EA030130BDC4F10C04C4F1200220FAC5
:1005600002F001FA04F340EA0300294630BD21FA03
:1005700004F0294630BD94F0000F83F4801306BFC9
:1005800081F480110134013D4EE77FEA645C18BFBD
:100590007FEA655C29D094EA050F08BF90EA020F54
:1005A00005D054EA000C04BF1946104630BD91EA4C
:1005B000030F1EBF0021002030BD5FEA545C05D14F
:1005C0004000494128BF41F0004130BD14F580048E
:1005D0003CBF01F5801130BD01F0004545F0FE4102
:1005E00041F470014FF0000030BD7FEA645C1ABF37
:1005F000194610467FEA655C1CBF0B46024650EA6E
:10060000013406BF52EA033591EA030F41F4002199
:1006100030BD00BF90F0000F04BF0021704730B51F
:100620004FF4806404F132044FF000054FF00001F4
:1006300050E700BF90F0000F04BF0021704730B5B5
:100640004FF4806404F1320410F0004548BF40428A
:100650004FF000013EE700BF42004FEAE2014FEADF
:1006600031014FEA02701FBF12F07F4393F07F4FBA
:1006700081F06051704732F07F4208BF704793F0BD
:100680007F4F04BF41F40021704730B54FF46074D0
:1006900001F0004521F000411CE700BF50EA0102D3
:1006A00008BF704730B54FF000050AE050EA01027C
:1006B00008BF704730B511F0004502D5404261EBEC
:1006C00041014FF4806404F132045FEA915C3FF42D
:1006D000D8AE4FF003025FEADC0C18BF03325FEACA
:1006E000DC0C18BF033202EBDC02C2F1200300FA7B
:1006F00003FC20FA02F001FA03FE40EA0E0021FAA0
:1007000002F11444BDE600BF70B54FF0FF0C4CF48D
:10071000E06C1CEA11541DBF1CEA135594EA0C0F3F
:1007200095EA0C0F00F0DEF82C4481EA030621EA7A
:100730004C5123EA4C5350EA013518BF52EA0335B5
:1007400041F4801143F4801338D0A0FB02CE4FF067
:100750000005E1FB02E506F00042E0FB03E54FF097
:100760000006E1FB03569CF0000F18BF4EF0010E8F
:10077000A4F1FF04B6F5007F64F5407404D25FEA8B
:100780004E0E6D4146EB060642EAC62141EA55513E
:100790004FEAC52040EA5E504FEACE2EB4F1FD0C80
:1007A00088BFBCF5E06F1ED8BEF1004F08BF5FEAFE
:1007B000500E50F1000041EB045170BD06F00046B0
:1007C00046EA010140EA020081EA0301B4EB5C045D
:1007D000C2BFD4EB0C0541EA045170BD41F4801155
:1007E0004FF0000E013C00F3AB8014F1360FDEBF7A
:1007F000002001F0004170BDC4F10004203C35DA56
:100800000C341BDC04F11404C4F1200500FA05F3D8
:1008100020FA04F001FA05F240EA020001F0004279
:1008200021F0004110EBD37021FA04F642EB0601EF
:100830005EEA430E08BF20EAD37070BDC4F10C0419
:10084000C4F1200500FA04F320FA05F001FA04F2DD
:1008500040EA020001F0004110EBD37041F10001C9
:100860005EEA430E08BF20EAD37070BDC4F12005D4
:1008700000FA05F24EEA020E20FA04F301FA05F23C
:1008800043EA020321FA04F001F0004121FA04F2E4
:1008900020EA020000EBD3705EEA430E08BF20EAB4
:1008A000D37070BD94F0000F0FD101F000464000EE
:1008B00041EB010111F4801F08BF013CF7D041EA70
:1008C000060195F0000F18BF704703F00046520074
:1008D00043EB030313F4801F08BF013DF7D043EA45
:1008E0000603704794EA0C0F0CEA135518BF95EAFB
:1008F0000C0F0CD050EA410618BF52EA4306D1D182
:1009000081EA030101F000414FF0000070BD50EAA0
:10091000410606BF1046194652EA430619D094EA2A
:100920000C0F02D150EA013613D195EA0C0F05D114
:1009300052EA03361CBF104619460AD181EA030168
:1009400001F0004141F0FE4141F470014FF0000020
:1009500070BD41F0FE4141F4780170BD70B54FF0BB
:10096000FF0C4CF4E06C1CEA11541DBF1CEA13553B
:1009700094EA0C0F95EA0C0F00F0A7F8A4EB05041D
:1009800081EA030E52EA03354FEA013100F0888014
:100990004FEA03334FF0805545EA131343EA1263DD
:1009A0004FEA022245EA111545EA10654FEA002692
:1009B0000EF000419D4208BF964244F1FD0404F54B
:1009C000407402D25B084FEA3202B61A65EB0305A7
:1009D0005B084FEA32024FF480104FF4002CB6EB64
:1009E000020E75EB030E22BFB61A754640EA0C00E4
:1009F0005B084FEA3202B6EB020E75EB030E22BF24
:100A0000B61A754640EA5C005B084FEA3202B6EB64
:100A1000020E75EB030E22BFB61A754640EA9C0023
:100A20005B084FEA3202B6EB020E75EB030E22BFF3
:100A3000B61A754640EADC0055EA060E18D04FEAB1
:100A4000051545EA16754FEA06164FEAC30343EA51
:100A500052734FEAC2025FEA1C1CC0D111F4801F1E
:100A60000BD141EA00014FF000004FF0004CB6E717
:100A700011F4801F04BF01430020B4F1FD0C88BFB6
:100A8000BCF5E06F3FF6AFAEB5EB030C04BFB6EBC1
:100A9000020C5FEA500C50F1000041EB045170BDB4
:100AA0000EF0004E4EEA113114EB5C04C2BFD4EBE1
:100AB0000C0541EA045170BD41F480114FF0000E65
:100AC000013C90E645EA060E8DE60CEA135594EAE1
:100AD0000C0F08BF95EA0C0F3FF43BAF94EA0C0FE4
:100AE0000AD150EA01347FF434AF95EA0C0F7FF459
:100AF00025AF104619462CE795EA0C0F06D152EAAD
:100B000003353FF4FDAE1046194622E750EA410690
:100B100018BF52EA43067FF4C5AE50EA41047FF4A1
:100B20000DAF52EA43057FF4EBAE12E74FF0FF3C06
:100B300006E000BF4FF0010C02E000BF4FF0010CD7
:100B40004DF804CD4FEA410C7FEA6C5C4FEA430C50
:100B500018BF7FEA6C5C1BD001B050EA410C0CBF9F
:100B600052EA430C91EA030F02BF90EA020F002001
:100B7000704710F1000F91EA030F58BF994208BF68
:100B800090422CBFD8176FEAE37040F00100704725
:100B90004FEA410C7FEA6C5C02D150EA013C07D17C
:100BA0004FEA430C7FEA6C5CD6D152EA033CD3D0C7
:100BB0005DF8040B704700BF8446104662468C46C1
:100BC0001946634600E000BF01B5FFF7B7FF0028F4
:100BD00048BF10F1000F01BD4DF808EDFFF7F4FF1D
:100BE0000CBF012000205DF808FB00BF4DF808EDA8
:100BF000FFF7EAFF34BF012000205DF808FB00BFCB
:100C00004DF808EDFFF7E0FF94BF012000205DF8EC
:100C100008FB00BF4DF808EDFFF7CEFF94BF0120A1
:100C200000205DF808FB00BF4DF808EDFFF7C4FF9A
:100C300034BF012000205DF808FB00BF4FEA410CE3
:100C40007FEA6C5C02D150EA013C0AD14FEA430CC6
:100C50007FEA6C5C02D152EA033C02D14FF0000003
:100C600070474FF0010070474FEA410212F5001241
:100C700015D211D56FF47873B3EB625212D94FEAE3
:100C8000C12343F0004343EA505311F0004F23FACD
:100C900002F018BF404270474FF00000704750EA22
:100CA000013005D111F0004008BF6FF000407047DF
:100CB0004FF00000704700BF53B94AB9002908BF80
:100CC00000281CBF4FF0FF314FF0FF3000F088B913
:100CD000ADF1080C6DE904CE00F006F8DDF804E093
:100CE000DDE9022304B070472DE9F047089D8E46E8
:100CF00004468846002B4AD18A42174662D9B2FA86
:100D000082F64EB1C6F1200301FA06F820FA03F389
:100D1000B74043EA0808B4404FEA174E1FFA87FC71
:100D2000B8FBFEF1230C0EFB118843EA084301FBDC
:100D30000CF29A4209D9FB1801F1FF3080F0EA80E9
:100D40009A4240F2E78002393B449A1AA3B2B2FBBE
:100D5000FEF00EFB102243EA024300FB0CFC9C4514
:100D600009D9FB1800F1FF3280F0D6809C4540F293
:100D7000D3803B44023840EA0140A3EB0C0300213E
:100D80001DB1F3400022C5E90032BDE8F0878B4277
:100D900005D90DB1C5E9000100210846F5E7B3FA10
:100DA00083F1002946D1734502D3824200F20581C6
:100DB000841A6EEB030201209046002DE5D0C5E9B0
:100DC0000048E2E7002A00F09080B2FA82F6002E96
:100DD00040F0A4808A1A030C4FEA174E80B2BCB2CE
:100DE0000121B2FBFEFC0EFB1C2243EA024304FB82
:100DF0000CF29A4207D9FB180CF1FF3802D29A4242
:100E000000F2E080C4469B1AB3FBFEF20EFB1233E5
:100E100040EA034302FB04F49C4207D9FB1802F1A9
:100E2000FF3002D29C4200F2CA8002461B1B42EAFB
:100E30000C40A5E7C1F120068B4022FA06F71F43BC
:100E40000EFA01F420FA06F32EFA06FE4FEA1749CD
:100E5000234300FA01F81FFA87FCBEFBF9F01C0CD3
:100E600009FB10EE44EA0E4400FB0CFEA64502FA14
:100E700001F209D93C1900F1FF3A80F09C80A645A7
:100E800040F2998002383C44A4EB0E041FFA83FE22
:100E9000B4FBF9F309FB13444EEA044403FB0CFCD6
:100EA000A44508D93C1903F1FF3E80F08280A44597
:100EB0007FD9023B3C4443EA0040A4EB0C04A0FB76
:100EC00002EC64457346E14662D35FD05DB1B8EB96
:100ED000030264EB090404FA06F622FA01F31E4346
:100EE000CC40C5E9006400214FE7B1FBF2FC010CE6
:100EF00041EA0E4180B240EA01423B4638463C4658
:100F0000B846BE462026B1FBF7F1A2EB080241EA43
:100F10000C4166E7014618E710462CE7C6F12002AF
:100F20002EFA02F3B740B14020FA02F24FEA174E10
:100F30000A43B3FBFEF8BCB20EFB1833110C41EAB6
:100F4000034108FB04F9B04089454FEA104380B2E1
:100F50003ED9791808F1FF3C01D289451FD8A1EB91
:100F60000901B1FBFEF909FB04F80EFB191192B25D
:100F700042EA0142424529D2BA1809F1FF31C4D2EE
:100F80004245C2D2A9F102013A44BEE7F0459DD2E2
:100F9000BEEB02036CEB070C0138E14696E7A7EBCA
:100FA00009094944A8F1020CB1FBFEF909FB04F858
:100FB000DBE773467FE7504666E70846FDE63B44BD
:100FC000023A33E7ACF1020C3B441CE749469CE78C
:100FD000A1EB0901C446B1FBFEF909FB04F8C4E723
:100FE000704700BF0FB480B5C2B000AF07F58A727A
:100FF00007F58473A3F582731A6007F58473A3F56C
:10100000827307F108001B68D7F810214FF4807134
:1010100009F0E6FD07F108031846FFF7B1F90346AA
:101020009AB207F108016423054803F0F7FE00BFF8
:1010300007F58477BD46BDE8804004B0704700BF27
:10104000780A002080B400AFBFF34F8F00BF064B7B
:10105000DB6803F4E0620449044B1343CB60BFF345
:101060004F8F00BF00BFFDE700ED00E00400FA0570
:1010700080B400AF00231846BD465DF8047B70477E
:1010800080B400AF00BFBD465DF8047B7047000030
:1010900080B5A4B000AF3F48FFF7A4FF00221C2199
:1010A0004FF4807004F0F2FF03463B4A13600022C5
:1010B0001021102004F0EAFF0346384A1360384834
:1010C000FFF790FF07F16C0324220021184609F076
:1010D00095FD344BFB664FF48063C7F880302823BE
:1010E000C7F8843007F16C031A4600212E4804F03B
:1010F000F9FE03462D4A136007F14803242200211C
:10110000184609F07BFD2A4BBB644FF40063FB6576
:1011100020233B6607F148031A460021254804F0C6
:10112000E1FE0346244A136007F124032422002130
:10113000184609F063FD214B7B624FF48063BB636B
:101140001823FB6307F124031A4600211C4804F00E
:10115000C9FE03461B4A13603B4624220021184661
:1011600009F04CFD184B3B604FF400637B61082392
:10117000BB613B461A460021144804F0B3FE034607
:10118000134A13601348FFF72DFF00BF9037BD4689
:1011900080BD00BFB0CE00081C0A0020200A00203D
:1011A000CCCE0008E4CE0008D91100080C0A0020BB
:1011B000F0CE000871120008100A0020F8CE0008D6
:1011C00009140008140A002008CF0008A51400081C
:1011D000180A002010CF000880B58AB000AF7860F0
:1011E0001C48FFF7FFFEC82004F022FF64230322FF
:1011F000D021194801F01EFD0346002B03D01748EB
:10120000FFF7F0FE02E01648FFF7ECFE124800F090
:1012100060FB0346002B05D01248FFF7E3FE0020D9
:1012200006F06AF91048FFF7DDFE07F10C031946D6
:10123000094800F09DFB0346002B07D10B4B1868B3
:1012400007F10C010023002204F0A6FF012004F0A6
:10125000EFFEEAE734CF0008240A00204CCF000854
:1012600064CF000878CF00088CCF00081C0A00204B
:1012700080B596B000AF78605A48FFF7B3FE002300
:101280007B654FF48071584807F0E0FE574B1868B3
:1012900007F11C014FF0FF33002204F0F1FF034679
:1012A000002BF3D197ED077AD7ED077A27EE277A4F
:1012B000D7ED086AD7ED087A66EEA77A37EE277A77
:1012C000D7ED096AD7ED097A66EEA77A77EE277A25
:1012D000B0EE670A0BF0BEFD87ED110A7B6D5A1C5C
:1012E0007A65434A9B0013447A6C1A607B6DFF2B2E
:1012F000CCDD00237B6500233E4A3D493A4807F098
:1013000059FF4FF000033B650023FB640123BB64DE
:101310002EE0BB6C5B00374A9B0013441B683B64A8
:10132000BB6C5B000133334A9B0013441B68FB63B7
:10133000D7ED107A27EEA77AD7ED0F7A67EEA77A66
:1013400077EE277AB0EE670A0BF084FD87ED0E0A80
:1013500097ED0E7AD7ED147AB4EEE77AF1EE10FA43
:1013600003DDBB6B3B65BB6CFB64BB6C0133BB64D7
:10137000BB6C7F2BCDDDFB6C07EE903AF8EEE77A85
:101380009FED1D7A27EE877ADFED1C6AC7EE267A7D
:10139000C7ED047A3B6DFB607B6B7B61D7ED037A15
:1013A0009FED177AF4EEC77AF1EE10FA02D500231A
:1013B000BB610DE0D7ED037AB6EE007AF4EEC77AA2
:1013C000F1EE10FA02D50123BB6101E00223BB61FB
:1013D0000C4B186807F10C010023002204F0DCFE1E
:1013E00054E700BF9CCF0008F40900201C0A00202D
:1013F000F4010020F405002000007A44000080433E
:10140000CDCC4C3E200A00202DE9B043AEB008AF51
:1014100078602048FFF7E6FD1F4B186807F1880148
:101420004FF0FF33002204F02BFF0346002BF3D1D3
:10143000D7F888301846FFF70FF904460D46D7F85D
:101440008C301846FFF708F980468946D7F8903067
:101450001846FFF701F902460B46D7F8941007F13A
:1014600008000691CDE90423CDE90289CDE90045C4
:101470000A4A802109F00CFB07F108031846FEF721
:101480007FFF03469AB207F108016423044803F082
:10149000C5FCC1E7B0CF0008200A0020CCCF00086F
:1014A000780A002080B582B000AF78600C48FFF762
:1014B00099FDFFF7DDFD0346002B0CD00948FFF72F
:1014C00091FDFFF7DDFD002000F00CFB0648FFF763
:1014D00089FDFFF7B7FD4EF6602004F0A9FDE8E7AF
:1014E00000D0000814D0000828D0000880B500AF54
:1014F0000248FFF777FD00BF80BD00BF38D000086D
:1015000080B500AF00F003FE00F052F800F0BEF826
:1015100000F008F900F066F900F02EF9642000F000
:1015200023FE1648FFF75EFD1548FFF75BFD1548E3
:10153000FFF758FD144A15491548FFF753FD1548A4
:10154000FFF750FD1448FFF74DFD1448FFF74AFD23
:1015500004F05EFCFFF79CFD1148FFF743FD1148C6
:10156000FFF740FDFFF7C2FF0F48FFF73BFD04F018
:1015700083FC0E48FFF736FD00BFFDE760D0000892
:101580008CD00008B4D00008D0D00008DCD000080F
:10159000E8D00008F8D0000820D100084CD100089D
:1015A0006CD100088CD10008B0D10008CCD1000863
:1015B00080B594B000AF07F1200330220021184617
:1015C00009F01CFB07F10C0300221A605A609A60B4
:1015D000DA601A6102F060F82A4B1B6C294A43F06A
:1015E00080531364274B1B6C03F08053BB60BB68B4
:1015F000254B1B68244A43F440431360224B1B686D
:1016000003F440437B607B6801233B624FF4A023DB
:101610007B620223BB634FF48003FB6304233B64C0
:10162000D8237B640223BB640923FB6407F12003F6
:10163000184602F091F80346002B01D000F002F9A1
:1016400002F03AF80346002B01D000F0FBF80F231C
:10165000FB6002233B6100237B614FF4A053BB611D
:101660004FF48053FB6107F10C030721184602F089
:1016700017FB0346002B01D000F0E4F800BF503701
:10168000BD4680BD003802400070004080B588B083
:1016900000AF07F10C0300221A605A609A60DA600A
:1016A0001A611E4B1B6B1D4A43F0020313631B4B55
:1016B0001B6B03F00203BB60BB68184B1B6B174A24
:1016C00043F004031363154B1B6B03F004037B60AF
:1016D0007B68124B1B6B114A43F0010313630F4BE2
:1016E0001B6B03F001033B603B68002244F2810165
:1016F0000B4800F0DBFF44F28103FB6001233B61F8
:1017000000237B610023BB6107F10C0319460448E9
:1017100000F030FE00BF2037BD4680BD00380240DB
:101720000004024080B500AF114B124A1A60104B02
:101730004FF4E1325A600E4B00229A600C4B0022AB
:10174000DA600B4B00221A61094B0C225A61084BDC
:1017500000229A61064B0022DA61054803F010FB73
:101760000346002B01D000F06DF800BF80BD00BF24
:10177000780A00200048004080B500AF164B174A99
:101780001A60154B164A5A60134B00229A60124B8E
:101790000122DA60104B00221A610F4B00225A61BD
:1017A0000D4B00229A610C4B0022DA610A4B002299
:1017B0001A62094800F094FF0346002B01D000F0A4
:1017C00041F80021044801F0E1FD0346002B01D05F
:1017D00000F038F800BF80BD240A0020005400400B
:1017E0006847402080B500AF0C4B4FF0A0421A6014
:1017F0000A4B06221A71094B0222DA71074B0222A8
:101800005A72064B01229A72044801F00AFE0346FE
:10181000002B01D000F016F800BF80BD000B0020A7
:1018200080B582B000AF78607B681B68044A934241
:1018300001D100F079FC00BF0837BD4680BD00BF74
:101840000010004080B400AF72B600BF00BFFDE7DB
:1018500080B586B002AF78600B46FB701346BB7054
:10186000FB783B73BB787B7307F10C026423009316
:101870000223D021786800F0CFFF034618461037C6
:10188000BD4680BD80B588B002AFF8607A601A4668
:101890000B46FB7213463B8107F10B026423009356
:1018A0000123D021F86800F0B7FF0346FB75FB7DEC
:1018B000002B01D0FB7D08E03B89642200927A680E
:1018C000D021F86801F0C0F8034618461837BD4625
:1018D00080BD80B584B000AF786000226B2178684D
:1018E000FFF7B6FF0346FB73FB7B002B01D0FB7BAE
:1018F0003AE0642000F038FC072219217868FFF7ED
:10190000A7FF0346FB73FB7B002B01D0FB7B2BE087
:1019100002221A217868FFF79BFF0346FB73FB7BCB
:10192000002B01D0FB7B1FE000221B217868FFF712
:101930008FFF0346FB73FB7B002B01D0FB7B13E087
:1019400000221C217868FFF783FF0346FB73FB7BB3
:10195000002B01D0FB7B07E0012238217868FFF7DC
:1019600077FF0346FB73FB7B18461037BD4680BDEF
:1019700080B58AB000AF7860396007F108020E23A5
:101980003B217868FFF77EFF034687F8273097F8FA
:101990002730002B02D097F8273097E03B7A1BB214
:1019A0001B021AB27B7A1BB21343BB84BB7A1BB2F5
:1019B0001B021AB2FB7A1BB213437B843B7B1BB224
:1019C0001B021AB27B7B1BB213433B84BB7B1BB253
:1019D0001B021AB2FB7B1BB21343FB833B7C1BB283
:1019E0001B021AB27B7C1BB21343BB83BB7C1BB2B2
:1019F0001B021AB2FB7C1BB213437B833B7D1BB2E1
:101A00001B021AB27B7D1BB213433B83B7F9243010
:101A100007EE903AB8EEE77ADFED2E6AC7EE267A47
:101A20003B68C3ED007AB7F9223007EE903AB8EE82
:101A3000E77ADFED286AC7EE267A3B68C3ED017AC4
:101A4000B7F9203007EE903AB8EEE77ADFED216A79
:101A5000C7EE267A3B68C3ED027AB7F91C3007EE71
:101A6000903AB8EEE77ADFED1C6AC7EE267A3B685B
:101A7000C3ED037AB7F91A3007EE903AB8EEE77A79
:101A8000DFED156AC7EE267A3B68C3ED047AB7F935
:101A9000183007EE903AB8EEE77ADFED0F6AC7EE3E
:101AA000267A3B68C3ED057AB7F91E3007EE903A07
:101AB000B8EEE77ADFED096AC7EE267A9FED087A7D
:101AC00077EE877A3B68C3ED067A002318462837FD
:101AD000BD4680BD00008046000003430000AA43CD
:101AE000B81E124280B483B000AF7860054B01226B
:101AF0009A60044A7B68136100BF0C37BD465DF8ED
:101B0000047B704700000A0880B582B000AF114B1B
:101B10001B6C104A43F0805313640E4B1B6C03F094
:101B200080537B607B680B4B5B6C0A4A43F48043B9
:101B30005364084B5B6C03F480433B603B680022BA
:101B40000F216FF0010000F0EBFB00BF0837BD462E
:101B500080BD00BF0038024080B5AAB000AF7860F9
:101B600007F1940300221A605A609A60DA601A61E1
:101B700007F1140380220021184609F03FF87B6822
:101B80001B68224A93423CD14FF480437B6100237F
:101B90003B6707F11403184602F0DAFA0346002BFC
:101BA00001D0FFF74FFE1A4B1B6B194A43F002039B
:101BB0001363174B1B6B03F002033B613B694FF44C
:101BC0004073C7F894301223C7F898300023C7F841
:101BD0009C300323C7F8A0300423C7F8A43007F1D2
:101BE000940319460B4800F0C5FB094B1B6C084ACF
:101BF00043F400131364064B1B6C03F40013FB60E7
:101C0000FB6800BFA837BD4680BD00BF0054004040
:101C1000003802400004024080B5AAB000AF7860EE
:101C200007F1940300221A605A609A60DA601A6120
:101C300007F1140380220021184608F0DFFF7B68BB
:101C40001B68224A93423CD14FF480737B6100238E
:101C5000BB6507F11403184602F07AFA0346002B1D
:101C600001D0FFF7EFFD1A4B1B6C194A43F4802398
:101C70001364174B1B6C03F480233B613B69144BCB
:101C80001B6B134A43F008031363114B1B6B03F0E8
:101C90000803FB60FB684FF44073C7F894300223DD
:101CA000C7F898300023C7F89C300323C7F8A0304A
:101CB0000723C7F8A43007F194031946054800F03C
:101CC00059FB00BFA837BD4680BD00BF004800409B
:101CD00000380240000C024080B5AAB000AF786026
:101CE00007F1940300221A605A609A60DA601A6160
:101CF00007F1140380220021184608F07FFF7B685B
:101D00001B68B3F1A04F59D14FF400137B6100233E
:101D1000C7F8883007F11403184602F019FA034691
:101D2000002B01D0FFF78EFD264B1B6B254A43F09D
:101D300001031363234B1B6B03F001033B613B69FE
:101D40004FF4E853C7F894300223C7F898300023C3
:101D5000C7F89C300323C7F8A0300A23C7F8A43083
:101D600007F194031946184800F004FB4FF4007380
:101D7000C7F894300023C7F898300023C7F89C3088
:101D800007F194031946104800F0F4FA0D4B5B6B11
:101D90000C4A43F0800353630A4B5B6B03F08003F0
:101DA000FB60FB68074B5B6C064A43F4804353645B
:101DB000044B5B6C03F48043BB60BB6800BFA83777
:101DC000BD4680BD003802400000024080B58EB0A4
:101DD00000AF78600023FB620023BB62334B1B6CB7
:101DE000324A43F010031364304B1B6C03F01003B2
:101DF000FB60FB6807F1100207F114031146184657
:101E000002F074F93B6AFB62FB6A002B03D102F01B
:101E100045F9786304E002F041F903465B007B6317
:101E20007B6B234AA2FB03239B0C013BBB62214B30
:101E3000214A1A601F4B40F2E732DA601D4ABB6A42
:101E400053601C4B00221A611A4B00229A60194BF6
:101E500000229A61174802F0C5FC034687F8333028
:101E600097F83330002B1BD1124802F01DFD0346BA
:101E700087F8333097F83330002B11D1362000F03B
:101E80006BFA7B680F2B08D800227968362000F0A7
:101E900047FA0A4A7B68136002E0012387F833306F
:101EA00097F8333018463837BD4680BD00380240B9
:101EB00083DE1B43E00F00200010004004000020E0
:101EC00080B400AF00BFFDE780B400AF00BFFDE706
:101ED00080B400AF00BFFDE780B400AF00BFFDE7F6
:101EE00080B400AF00BFFDE780B400AF00BFBD46C7
:101EF0005DF8047B7047000080B500AF024802F037
:101F00004BFD00BF80BD00BFE00F002080B400AFDC
:101F100001231846BD465DF8047B704780B582B04A
:101F200000AF7860396008F019FF034616221A6086
:101F30004FF0FF3318460837BD4680BD80B582B0EC
:101F400000AF78604FF0FF317868FFF7E7FF00BF20
:101F5000FDE780B586B000AFF860B9607A60002315
:101F60007B610AE0AFF300800146BB685A1CBA608F
:101F7000CAB21A707B6901337B617A697B689A42C5
:101F8000F0DB7B6818461837BD4680BD80B586B04B
:101F900000AFF860B9607A6000237B6109E0BB683C
:101FA0005A1CBA601B781846AFF300807B69013376
:101FB0007B617A697B689A42F1DB7B681846183747
:101FC000BD4680BD80B483B000AF78604FF0FF3372
:101FD00018460C37BD465DF8047B704780B483B06B
:101FE00000AF786039603B684FF400525A600023BC
:101FF00018460C37BD465DF8047B704780B483B04B
:1020000000AF7860012318460C37BD465DF8047BAD
:10201000704780B485B000AFF860B9607A60002383
:1020200018461437BD465DF8047B704780B586B00E
:1020300000AF7860144A154BD31A7B617B693B6112
:10204000134B1B68002B02D1114B124A1A60104B24
:102050001A687B6813443A699A4207D208F07EFEF8
:1020600003460C221A604FF0FF3309E0084B1B684F
:10207000FB60074B1A687B681344054A1360FB68D2
:1020800018461837BD4680BD00000420000400003B
:102090002C100020C821012080B400AF064BD3F8DB
:1020A0008830054A43F47003C2F8883000BFBD464B
:1020B0005DF8047B704700BF00ED00E0DFF834D02E
:1020C000FFF7EAFF0C480D490D4A002302E0D458FF
:1020D000C4500433C4188C42F9D30A4A0A4C002372
:1020E00001E013600432A242FBD308F03DFEFFF78B
:1020F00007FA70470000042000000020D8010020EB
:10210000FC090208D8010020C8210120FEE780B5A3
:1021100000AF032000F0F9F80F20FFF757FEFFF79C
:10212000F3FC0023184680BD80B400AF064B1B783B
:102130001A46064B1B681344044A136000BFBD4691
:102140005DF8047B704700BF0800002030100020BD
:1021500080B400AF034B1B681846BD465DF8047B96
:10216000704700BF3010002080B584B000AF7860A9
:10217000FFF7EEFFB8607B68FB60FB68B3F1FF3FE1
:1021800005D00A4B1B781A46FB681344FB6000BF5E
:10219000FFF7DEFF0246BB68D31AFA689A42F7D807
:1021A00000BF00BF1037BD4680BD00BF0800002043
:1021B00080B485B000AF78607B6803F00703FB60F4
:1021C0000B4BDB68BB60BA684FF6FF031340BB6084
:1021D000FB681A02BB681A43064B1343BB60044AF0
:1021E000BB68D36000BF1437BD465DF8047B704701
:1021F00000ED00E00000FA0580B400AF044BDB689E
:102200001B0A03F007031846BD465DF8047B7047C0
:1022100000ED00E080B483B000AF0346FB7197F996
:102220000730002B0BDBFB7903F01F02074997F9FE
:1022300007305B09012000FA02F241F8232000BFB9
:102240000C37BD465DF8047B704700BF00E100E03D
:1022500080B483B000AF03463960FB7197F9073053
:10226000002B0ADB3B68DAB20C4997F90730120100
:10227000D2B20B4483F800230AE03B68DAB2084983
:10228000FB7903F00F03043B1201D2B20B441A7620
:1022900000BF0C37BD465DF8047B704700E100E0ED
:1022A00000ED00E080B489B000AFF860B9607A60FA
:1022B000FB6803F00703FB61FB69C3F10703042B11
:1022C00028BF0423BB61FB690433062B02D9FB69D9
:1022D000033B00E000237B614FF0FF32BB6902FA51
:1022E00003F3DA43BB681A407B699A404FF0FF3131
:1022F0007B6901FA03F3D9437B680B40134318460B
:102300002437BD465DF8047B704780B582B000AFCE
:1023100078607868FFF74CFF00BF0837BD4680BD86
:1023200080B586B000AF0346B9607A60FB730023C6
:102330007B61FFF761FF78617A68B9687869FFF7B8
:10234000B1FF024697F90F3011461846FFF780FF9C
:1023500000BF1837BD4680BD80B582B000AF0346D0
:10236000FB7197F907301846FFF754FF00BF083795
:10237000BD4680BD80B489B000AF7860396000236D
:10238000FB6100237B6100233B610023BB610023D1
:10239000FB6169E10122FB6902FA03F37B613B689F
:1023A0001B687A6913403B613A697B699A4240F045
:1023B00058813B685B6803F00303012B05D03B6841
:1023C0005B6803F00303022B30D17B689B68BB6121
:1023D000FB695B00032202FA03F3DB43BA69134093
:1023E000BB613B68DA68FB695B0002FA03F3BA6918
:1023F0001343BB617B68BA699A607B685B68BB61A9
:102400000122FB6902FA03F3DB43BA691340BB61A3
:102410003B685B681B0903F00102FB6902FA03F3E6
:10242000BA691343BB617B68BA695A603B685B68F1
:1024300003F00303032B17D07B68DB68BB61FB69E8
:102440005B00032202FA03F3DB43BA691340BB616A
:102450003B689A68FB695B0002FA03F3BA691343AD
:10246000BB617B68BA69DA603B685B6803F00303B1
:10247000022B23D1FB69DA087B68083253F822303B
:10248000BB61FB6903F007039B000F2202FA03F311
:10249000DB43BA691340BB613B681A69FB6903F00F
:1024A00007039B0002FA03F3BA691343BB61FB699C
:1024B000DA087B680832B96943F822107B681B6828
:1024C000BB61FB695B00032202FA03F3DB43BA69D9
:1024D0001340BB613B685B6803F00302FB695B0070
:1024E00002FA03F3BA691343BB617B68BA691A60E5
:1024F0003B685B6803F44033002B00F0B280604B14
:102500005B6C5F4A43F4804353645D4B5B6C03F444
:102510008043FB60FB685B4AFB699B08023352F80F
:102520002330BB61FB6903F003039B000F2202FA17
:1025300003F3DB43BA691340BB617B68524A9342A1
:102540002BD07B68514A934225D07B68504A9342F6
:102550001FD07B684F4A934219D07B684E4A934202
:1025600013D07B684D4A93420DD07B684C4A93420E
:1025700007D07B684B4A934201D107230EE0082322
:102580000CE006230AE0052308E0042306E0032309
:1025900004E0022302E0012300E00023FA6902F0D4
:1025A000030292009340BA691343BB613549FB694A
:1025B0009B080233BA6941F823203B4B9B68BB61FF
:1025C0003B69DB43BA691340BB613B685B6803F45A
:1025D0008013002B03D0BA693B691343BB61324AB5
:1025E000BB699360304BDB68BB613B69DB43BA6915
:1025F0001340BB613B685B6803F40013002B03D0FE
:10260000BA693B691343BB61274ABB69D360264B58
:102610005B68BB613B69DB43BA691340BB613B68E4
:102620005B6803F40033002B03D0BA693B691343A2
:10263000BB611D4ABB6953601B4B1B68BB613B6997
:10264000DB43BA691340BB613B685B6803F48033CA
:10265000002B03D0BA693B691343BB61124ABB69C3
:102660001360FB690133FB61FB690F2B7FF692AEB0
:1026700000BF00BF2437BD465DF8047B704700BF34
:1026800000380240003801400000024000040240CF
:1026900000080240000C02400010024000140240FA
:1026A00000180240001C0240003C014080B483B08E
:1026B00000AF78600B467B8013467B707B78002BE5
:1026C00003D07A887B689A6103E07B881A047B6870
:1026D0009A6100BF0C37BD465DF8047B704700006F
:1026E00080B582B000AF78607B68002B01D10123F8
:1026F0008BE07B6893F84130DBB2002B06D17B681E
:10270000002283F840207868FFF726FA7B682422AD
:1027100083F841207B681B681A687B681B6822F07D
:1027200001021A607B685A687B681B6822F070623D
:102730001A617B681B689A687B681B6822F40042F8
:102740009A607B68DB68012B07D17B689A687B689D
:102750001B6842F400429A6006E07B689A687B68D6
:102760001B6842F404429A607B68DB68022B08D144
:102770007B681B685A687B681B6842F400625A6079
:1027800007E07B681B685A687B681B6822F400625C
:102790005A607B681B6859687B681A681D4B0B433D
:1027A00053607B681B68DA687B681B6822F4004210
:1027B000DA607B681A697B685B6942EA03017B68BF
:1027C0009B691A027B681B680A43DA607B68D969D7
:1027D0007B681A6A7B681B680A431A607B681B68FF
:1027E0001A687B681B6842F001021A607B6800224D
:1027F0005A647B68202283F841207B6800221A6398
:102800007B68002283F84220002318460837BD4623
:1028100080BD00BF0080000280B588B002AFF860C4
:102820007A601A460B467B8113463B81FB6893F81E
:102830004130DBB2202B40F0FD80FB6893F8403044
:10284000012B01D10223F6E0FB68012283F840202E
:10285000FFF77EFC38613B690093192301224FF496
:102860000041F86800F010FB0346002B01D0012363
:10287000E1E0FB68212283F84120FB68102283F805
:102880004220FB6800225A64FB687A685A62FB683F
:102890003A895A85FB6800225A63FB685B8D9BB2BC
:1028A000FF2B06D9FB68FF221A854FF080737B61EE
:1028B00007E0FB685B8D9AB2FB681A854FF00073E6
:1028C0007B61FB681B8D002B24D0FB685B6A1A7848
:1028D000FB681B689A62FB685B6A5A1CFB685A6259
:1028E000FB685B8D9BB2013B9AB2FB685A85FB6823
:1028F0001B8D013B9AB2FB681A85FB681B8DDBB20E
:102900000133DAB279894E4B00937B69F86800F0A5
:102910000BFD66E0FB681B8DDAB27989484B0093AA
:102920007B69F86800F000FD5BE03A69396AF86895
:1029300000F003FB0346002B01D001237BE0FB6882
:102940005B6A1A78FB681B689A62FB685B6A5A1CB0
:10295000FB685A62FB685B8D9BB2013B9AB2FB68D5
:102960005A85FB681B8D013B9AB2FB681A85FB6890
:102970005B8D9BB2002B34D0FB681B8D002B30D1BC
:102980003B6900933B6A00228021F86800F07CFAE2
:102990000346002B01D001234DE0FB685B8D9BB209
:1029A000FF2B0ED9FB68FF221A85FB681B8DDAB25C
:1029B0007989002300934FF08073F86800F0B4FC2D
:1029C0000FE0FB685B8D9AB2FB681A85FB681B8D74
:1029D000DAB27989002300934FF00073F86800F0B1
:1029E000A3FCFB685B8D9BB2002B9ED13A69396AD0
:1029F000F86800F0E9FA0346002B01D001231AE041
:102A0000FB681B682022DA61FB681B685968FB6859
:102A10001A680C4B0B405360FB68202283F841205E
:102A2000FB68002283F84220FB68002283F84020E4
:102A3000002300E0022318461837BD4680BD00BFC2
:102A40000020008000E800FE80B588B002AFF8608A
:102A50007A601A460B467B8113463B81FB6893F8EC
:102A60004130DBB2202B40F0DB80FB6893F8403034
:102A7000012B01D10223D4E0FB68012283F840201E
:102A8000FFF766FB78617B690093192301224FF4FD
:102A90000041F86800F0F8F90346002B01D001234B
:102AA000BFE0FB68222283F84120FB68102283F8F4
:102AB0004220FB6800225A64FB687A685A62FB680D
:102AC0003A895A85FB6800225A63FB685B8D9BB28A
:102AD000FF2B0ED9FB6801221A85FB681B8DDAB229
:102AE0007989524B00934FF08073F86800F01CFC1A
:102AF0006DE0FB685B8D9AB2FB681A85FB681B8DE5
:102B0000DAB27989494B00934FF00073F86800F00E
:102B10000BFC5CE07A69396AF86800F099FA0346C0
:102B2000002B01D001237CE0FB681B685A6AFB681C
:102B30005B6AD2B21A70FB685B6A5A1CFB685A6205
:102B4000FB681B8D013B9AB2FB681A85FB685B8DA5
:102B50009BB2013B9AB2FB685A85FB685B8D9BB2C6
:102B6000002B34D0FB681B8D002B30D17B69009388
:102B70003B6A00228021F86800F086F90346002BAA
:102B800001D001234DE0FB685B8D9BB2FF2B0ED97A
:102B9000FB68FF221A85FB681B8DDAB27989002356
:102BA00000934FF08073F86800F0BEFB0FE0FB6805
:102BB0005B8D9AB2FB681A85FB681B8DDAB2798946
:102BC000002300934FF00073F86800F0ADFBFB6842
:102BD0005B8D9BB2002B9DD17A69396AF86800F051
:102BE000F3F90346002B01D001231AE0FB681B68B0
:102BF0002022DA61FB681B685968FB681A680C4B75
:102C00000B405360FB68202283F84120FB680022C0
:102C100083F84220FB68002283F84020002300E074
:102C2000022318461837BD4680BD00BF002400802F
:102C300000E800FE80B58AB002AFF8607A603B60C1
:102C40000B467B8100237B610023FB77FB6893F8B5
:102C50004130DBB2202B40F0E980FB681B689B69A8
:102C600003F40043B3F5004F01D10223DFE0FB681A
:102C700093F84030012B01D10223D8E0FB680122F8
:102C800083F84020FB68242283F84120FB6800225F
:102C90005A64FB68DB68012B05D17B89C3F3090209
:102CA000654B134304E07B89C3F30902634B134371
:102CB000FA6812685360FFF74BFAB861FB681B684B
:102CC0009B6903F02003202B0CBF01230023DBB200
:102CD000BB77FB681B689B6903F01003102B0CBFCC
:102CE00001230023DBB27B7734E03B68B3F1FF3F85
:102CF0001AD0FFF72DFA0246BB69D31A3A689A42F6
:102D000002D33B68002B0FD1FB68202283F84120BF
:102D1000FB685B6C43F02002FB685A64FB6800228E
:102D200083F84020012382E0FB681B689B6903F065
:102D30002003202B0CBF01230023DBB2BB77FB68F1
:102D40001B689B6903F01003102B0CBF01230023A9
:102D5000DBB27B77BB7F002B02D17B7F002BC4D003
:102D6000FB681B689B6903F01003102B27D0BB691D
:102D700000933B6800222021F86800F085F80346A4
:102D8000002B0ED0FB685B6C042B07D1FB681B6823
:102D90002022DA61FB6800225A6426E00123FB77D7
:102DA00023E0FB681B682022DA61FB68202283F89D
:102DB0004120FB68002283F84020002337E0FB68B5
:102DC0001B681022DA61BB6900933B680022202156
:102DD000F86800F059F80346002B02D00123FB7776
:102DE00003E0FB681B682022DA617B6901337B61A9
:102DF0007B697A689A4204D9FB7F012B01D10023B9
:102E0000FB777B697A689A423FF643AFFB682022E2
:102E100083F84120FB685B6C43F02002FB685A6436
:102E2000FB68002283F84020012300E002231846BB
:102E30002037BD4680BD00BF0020000200280002F0
:102E400080B483B000AF78607B681B689B6903F037
:102E50000203022B03D17B681B6800229A627B6805
:102E60001B689B6903F00103012B07D07B681B687B
:102E70009A697B681B6842F001029A6100BF0C37B7
:102E8000BD465DF8047B704780B584B000AFF86044
:102E9000B9603B601346FB713BE0BA693968F8687A
:102EA00000F062F90346002B01D0012341E03B68AA
:102EB000B3F1FF3F2DD0FFF74BF90246BB69D31AA0
:102EC0003A689A4202D33B68002B22D1FB681B6808
:102ED0009A69BB681340BA689A420CBF0123002369
:102EE000DBB21A46FB799A4213D1FB685B6C43F064
:102EF0002002FB685A64FB68202283F84120FB68AB
:102F0000002283F84220FB68002283F8402001233E
:102F10000FE0FB681B689A69BB681340BA689A4265
:102F20000CBF01230023DBB21A46FB799A42B4D0CE
:102F3000002318461037BD4680BD80B584B000AF71
:102F4000F860B9607A6033E07A68B968F86800F0D0
:102F50000BF90346002B01D0012331E0BB68B3F12C
:102F6000FF3F25D0FFF7F4F802467B68D31ABA6812
:102F70009A4202D3BB68002B1AD1FB681B689B697D
:102F800003F00203022B13D0FB685B6C43F02002BA
:102F9000FB685A64FB68202283F84120FB6800220A
:102FA00083F84220FB68002283F84020012307E0D9
:102FB000FB681B689B6903F00203022BC4D100234A
:102FC00018461037BD4680BD80B584B000AFF860AC
:102FD000B9607A602FE07A68B968F86800F0C4F8E0
:102FE0000346002B01D001232DE0FFF7B1F8024684
:102FF0007B68D31ABA689A4202D3BB68002B1AD1F5
:10300000FB681B689B6903F02003202B13D0FB682F
:103010005B6C43F02002FB685A64FB68202283F853
:103020004120FB68002283F84220FB68002283F8DD
:103030004020012307E0FB681B689B6903F0200325
:10304000202BC8D1002318461037BD4680BD000094
:1030500080B586B000AFF860B9607A600023FB7578
:1030600071E07A68B968F86800F07EF80346002BD2
:1030700001D00123FB75FB681B689B6903F02003EB
:10308000202B3BD1FB7D002B38D1FB681B689B6953
:1030900003F00403042B05D1FB681B8D002B01D02A
:1030A0000023FB75FB681B689B6903F01003102B62
:1030B00021D1FB681B681022DA61FB6804225A6484
:1030C000FB681B682022DA61FB681B685968FB6893
:1030D0001A68244B0B405360FB68202283F8412080
:1030E000FB68002283F84220FB68002283F840201E
:1030F0000123FB7502E0FB6800225A64FFF728F801
:1031000002467B68D31ABA689A4202D3BB68002B86
:1031100019D1FB7D002B16D1FB681B689B6903F05E
:103120000403042B0FD0FB685B6C43F02002FB68A8
:103130005A64FB68202283F84120FB68002283F850
:1031400040200123FB75FB681B689B6903F00403A7
:10315000042B02D0FB7D002B83D0FB7D1846183753
:10316000BD4680BD00E800FE80B58AB000AFF860C3
:10317000B9607A60002387F82730FB681B689B6979
:10318000BB6100233B627B68FB61BB6903F01003FA
:10319000002B68D0FB681B681022DA6149E0BB682D
:1031A000B3F1FF3F45D0FEF7D3FF0246FB69D31AC8
:1031B000BA689A4202D3BB68002B3AD1FB681B68FD
:1031C0005B6803F480437B61FB6893F84230FB74D7
:1031D000FB681B689B6903F40043B3F5004F21D1E2
:1031E0007B69B3F5804F1DD0FB7C202B1AD0FB6888
:1031F0001B685A68FB681B6842F480425A60FEF7FD
:10320000A7FFF8610EE0FEF7A3FF0246FB69D31AA1
:10321000192B07D93B6A43F020033B62012387F84F
:10322000273006E0FB681B689B6903F02003202B16
:10323000E9D1FB681B689B6903F02003202B03D0B6
:1032400097F82730002BAAD097F82730002B03D10E
:10325000FB681B682022DA613B6A43F004033B628F
:10326000012387F82730FB681B689B69BB61BB693A
:1032700003F48073002B0BD03B6A43F001033B62E5
:10328000FB681B684FF48072DA61012387F82730EE
:10329000BB6903F48063002B0BD03B6A43F0080347
:1032A0003B62FB681B684FF48062DA61012387F898
:1032B0002730BB6903F40073002B0BD03B6A43F04B
:1032C00002033B62FB681B684FF40072DA61012362
:1032D00087F8273097F82730002B1CD0F868FFF7C5
:1032E000AFFDFB681B685968FB681A680D4B0B4003
:1032F0005360FB685A6C3B6A1A43FB685A64FB686C
:10330000202283F84120FB68002283F84220FB68DA
:10331000002283F8402097F8273018462837BD460A
:1033200080BD00BF00E800FE80B487B000AFF86049
:103330007B600B467B8113467B727B89C3F309025A
:103340007B7A1B0403F47F031A437B681A433B6AAE
:10335000134323F000437B61FB681B685A683B6A98
:103360005B0D03F48061084B0B43DB4302EA03016E
:10337000FB681B687A690A435A6000BF1C37BD4668
:103380005DF8047B704700BFFF63FF0380B483B028
:1033900000AF786039607B6893F84130DBB2202B56
:1033A00038D17B6893F84030012B01D1022332E001
:1033B0007B68012283F840207B68242283F8412027
:1033C0007B681B681A687B681B6822F001021A6020
:1033D0007B681B681A687B681B6822F480521A603D
:1033E0007B681B6819687B681B683A680A431A6027
:1033F0007B681B681A687B681B6842F001021A60D0
:103400007B68202283F841207B68002283F84020DB
:10341000002300E0022318460C37BD465DF8047B0C
:10342000704780B586B002AF78607B68002B01D111
:10343000012308E17B681B68BB607B6893F89534C7
:10344000DBB2002B06D17B68002283F894247868D5
:10345000FEF742FC7B68032283F89524BB68B3F136
:10346000A04F02D17B6800229A717B681B681846C6
:1034700002F018FA7B6818687B681A7C8DF80020C7
:1034800004330ECB02F082F90346002B05D07B6893
:10349000022283F895240123D5E07B681B68002174
:1034A000184602F010FA0346002B05D07B68022272
:1034B00083F895240123C6E00023FB734AE0FA7BDE
:1034C00079681346DB0013449B000B44153301223B
:1034D0001A70FA7B79681346DB0013449B000B4497
:1034E0001433FA7B1A70FA7BFB7B98B27968134627
:1034F000DB0013449B000B442E3302461A80FA7BF8
:1035000079681346DB0013449B000B4418330022F8
:103510001A70FA7B79681346DB0013449B000B4456
:103520001C3300221A60FA7B79681346DB001344CF
:103530009B000B44203300221A60FA7B7968134603
:10354000DB0013449B000B44243300221A60FB7BF6
:103550000133FB737B681B79FA7B9A42AFD300235C
:10356000FB7344E0FA7B79681346DB0013449B004D
:103570000B4403F2552300221A70FA7B7968134634
:10358000DB0013449B000B4403F51573FA7B1A70A0
:10359000FA7B79681346DB0013449B000B4403F568
:1035A000167300221A70FA7B79681346DB00134405
:1035B0009B000B4403F5177300221A60FA7B7968AD
:1035C0001346DB0013449B000B4403F518730022E1
:1035D0001A60FA7B79681346DB0013449B000B44A6
:1035E00003F5197300221A60FB7B0133FB737B68C0
:1035F0001B79FA7B9A42B5D37B6818687B681A7C82
:103600008DF8002004330ECB02F0AAF90346002BFC
:1036100005D07B68022283F89524012313E07B68A0
:1036200000225A747B68012283F895247B681B7BF7
:10363000012B02D1786800F00BF87B681B681846F4
:1036400002F077FB002318461037BD4680BD00000E
:1036500080B485B000AF78607B681B68FB607B68D6
:103660000122C3F8D8247B68002283F8CC24FB68AD
:103670009B6943F00062FB689A61FB685A6D054BD9
:103680001343FA685365002318461437BD465DF8A6
:10369000047B70470300001080B400AF054B1B682B
:1036A000044A43F48073136000BFBD465DF8047B99
:1036B000704700BF0070004080B582B000AF0023AB
:1036C0007B60234B1B6C224A43F080531364204BD6
:1036D0001B6C03F080533B603B681E4B1B681D4A0C
:1036E00043F480331360FEF733FD786009E0FEF7A2
:1036F0002FFD02467B68D31AB3F57A7F01D90323E5
:1037000022E0144B5B6803F48033B3F5803FEED1C5
:10371000104B1B680F4A43F400331360FEF718FD8B
:10372000786009E0FEF714FD02467B68D31AB3F512
:103730007A7F01D9032307E0064B5B6803F400336B
:10374000B3F5003FEED1002318460837BD4680BDD3
:10375000003802400070004080B586B000AF78604D
:103760000023FB757B68002B01D1012391E27B686C
:103770001B6803F00103002B00F08780964B9B68C9
:1037800003F00C03042B0CD0934B9B6803F00C0349
:10379000082B12D1904B5B6803F48003B3F5800FC4
:1037A0000BD18D4B1B6803F40033002B6CD07B686E
:1037B0005B68002B68D101236BE27B685B68B3F523
:1037C000803F06D1844B1B68834A43F480331360E7
:1037D0002EE07B685B68002B0CD17F4B1B687E4A18
:1037E00023F4803313607C4B1B687B4A23F48023D3
:1037F00013601DE07B685B68B3F5A02F0CD1764B9E
:103800001B68754A43F480231360734B1B68724A2C
:1038100043F4803313600BE06F4B1B686E4A23F454
:10382000803313606C4B1B686B4A23F48023136056
:103830007B685B68002B13D0FEF78AFC386108E0D8
:10384000FEF786FC02463B69D31A642B01D9032399
:103850001FE2614B1B6803F40033002BF0D014E02F
:10386000FEF776FC386108E0FEF772FC02463B6921
:10387000D31A642B01D903230BE2574B1B6803F4C3
:103880000033002BF0D100E000BF7B681B6803F021
:103890000203002B69D0504B9B6803F00C03002BF4
:1038A0000BD04D4B9B6803F00C03082B1CD14A4BEB
:1038B0005B6803F48003002B16D1474B1B6803F0B1
:1038C0000203002B05D07B68DB68012B01D00123AC
:1038D000DFE1414B1B6823F0F8027B681B69DB00CA
:1038E0003D4913430B6040E07B68DB68002B23D02D
:1038F000394B1B68384A43F001031360FEF728FC7C
:10390000386108E0FEF724FC02463B69D31A022B1B
:1039100001D90323BDE1304B1B6803F00203002BE8
:10392000F0D02D4B1B6823F0F8027B681B69DB008D
:10393000294913430B6018E0274B1B68264A23F0E4
:1039400001031360FEF704FC386108E0FEF700FC99
:1039500002463B69D31A022B01D9032399E11E4B7E
:103960001B6803F00203002BF0D17B681B6803F097
:103970000803002B38D07B685B69002B19D0164BED
:103980005B6F154A43F001035367FEF7E1FB3861B3
:1039900008E0FEF7DDFB02463B69D31A022B01D992
:1039A000032376E10C4B5B6F03F00203002BF0D096
:1039B0001AE0094B5B6F084A23F001035367FEF7D7
:1039C000C7FB38610AE0FEF7C3FB02463B69D31A26
:1039D000022B03D903235CE100380240914B5B6F5B
:1039E00003F00203002BEED17B681B6803F0040395
:1039F000002B00F0A4808B4B1B6C03F08053002B3A
:103A00000DD1884B1B6C874A43F080531364854B60
:103A10001B6C03F08053BB60BB680123FB75824BBA
:103A20001B6803F48073002B18D17F4B1B687E4A00
:103A300043F480731360FEF78BFB386108E0FEF7F8
:103A400087FB02463B69D31A642B01D9032320E18B
:103A5000754B1B6803F48073002BF0D07B689B6868
:103A6000012B06D16F4B1B6F6E4A43F001031367A6
:103A70002DE07B689B68002B0CD16A4B1B6F694A59
:103A800023F001031367674B1B6F664A23F004039F
:103A900013671CE07B689B68052B0CD1614B1B6F87
:103AA000604A43F0040313675E4B1B6F5D4A43F0AB
:103AB000010313670BE05B4B1B6F5A4A23F00103B2
:103AC0001367584B1B6F574A23F0040313677B6837
:103AD0009B68002B15D0FEF73BFB38610AE0FEF730
:103AE00037FB02463B69D31A41F28832934201D92F
:103AF0000323CEE04B4B1B6F03F00203002BEED0F1
:103B000014E0FEF725FB38610AE0FEF721FB0246D0
:103B10003B69D31A41F28832934201D90323B8E0BA
:103B2000404B1B6F03F00203002BEED1FB7D012BFA
:103B300005D13C4B1B6C3B4A23F0805313647B68DC
:103B40009B69002B00F0A480364B9B6803F00C03AC
:103B5000082B6BD07B689B69022B49D1314B1B68CA
:103B6000304A23F080731360FEF7F2FA386108E000
:103B7000FEF7EEFA02463B69D31A022B01D9032362
:103B800087E0284B1B6803F00073002BF0D17B68A3
:103B9000DA697B681B6A1A437B685B6A9B011A437C
:103BA0007B689B6A5B08013B1B041A437B68DB6AEA
:103BB0001B0613431B4A43F000535360194B1B6809
:103BC000184A43F080731360FEF7C2FA386108E0C8
:103BD000FEF7BEFA02463B69D31A022B01D9032332
:103BE00057E0104B1B6803F00073002BF0D04FE040
:103BF0000C4B1B680B4A23F080731360FEF7A8FA86
:103C0000386108E0FEF7A4FA02463B69D31A022B9A
:103C100001D903233DE0034B1B6803F00073002B25
:103C2000F0D135E000380240007000401B4B5B686B
:103C3000FB607B689B69012B28D0FB6803F4800242
:103C40007B68DB699A4221D1FB6803F03F027B6805
:103C50001B6A9A421AD1FA6847F6C07313407A6811
:103C6000526A9201934211D1FB6803F440327B689F
:103C70009B6A5B08013B1B049A4207D1FB6803F077
:103C800070627B68DB6A1B069A4201D0012300E068
:103C9000002318461837BD4680BD00BF00380240DB
:103CA00080B584B000AF786039600023FB607B682A
:103CB000002B01D10123D0E06A4B1B6803F00F03F6
:103CC0003A689A4210D9674B1B6823F00F02654986
:103CD0003B6813430B60634B1B6803F00F033A68A8
:103CE0009A4201D00123B8E07B681B6803F002030D
:103CF000002B20D07B681B6803F00403002B05D049
:103D0000594B9B68584A43F4E05393607B681B68A7
:103D100003F00803002B05D0534B9B68524A43F431
:103D200060439360504B9B6823F0F0027B689B6874
:103D30004D4913438B607B681B6803F00103002B24
:103D400040D07B685B68012B07D1474B1B6803F4AD
:103D50000033002B15D101237FE07B685B68022BC9
:103D600007D1414B1B6803F00073002B09D10123DD
:103D700073E03D4B1B6803F00203002B01D10123CC
:103D80006BE0394B9B6823F003027B685B68364924
:103D900013438B60FEF7DCF9F8600AE0FEF7D8F910
:103DA0000246FB68D31A41F28832934201D90323B9
:103DB00053E02D4B9B6803F00C027B685B689B0013
:103DC0009A42EBD1274B1B6803F00F033A689A42E3
:103DD00010D2244B1B6823F00F0222493B68134387
:103DE0000B60204B1B6803F00F033A689A4201D026
:103DF000012332E07B681B6803F00403002B08D02A
:103E0000194B9B6823F4E0527B68DB681649134327
:103E10008B607B681B6803F00803002B09D0124BF2
:103E20009B6823F460427B681B69DB000E491343E7
:103E30008B6000F021F802460B4B9B681B0903F0D6
:103E40000F030A49CB5C22FA03F3094A1360094BBA
:103E50001B681846FDF7BAFF002318461037BD4609
:103E600080BD00BF003C02400038024008D200087C
:103E700000000020040000202DE9B04F94B000AFF6
:103E800000237B640023FB6400233B640023BB64AA
:103E9000794B9B6803F00C03082B0DD0082B00F224
:103EA000E180002B02D0042B03D0DBE0734BBB641A
:103EB000DBE0734BBB64D8E06F4B5B6803F03F0300
:103EC0007B646D4B5B6803F48003002B63D06A4B0B
:103ED0005B689B090022BB63FA63BB6BC3F30803F7
:103EE0003B6300237B63D7E90C4522462B464FF00A
:103EF00000004FF00001590141EAD2615001024631
:103F00000B462146511A3961294663EB01037B6157
:103F10004FF000024FF00003D7E904AB59468B0184
:103F2000514643EA916351468A015146B2EB01087A
:103F3000594663EB01094FF000024FF000034FEACE
:103F4000C90343EA58734FEAC8029046994623468C
:103F500018EB0303BB602B4649EB0303FB604FF0F8
:103F600000024FF00003D7E9024529464B022146E3
:103F700043EAD15321464A02104619467B6C00227F
:103F8000BB62FA62D7E90A23FCF796FE02460B46AB
:103F90001346FB6458E0384B5B689B0900221846C7
:103FA0001146C0F308033B6200237B62D7E908890E
:103FB00042464B464FF000004FF00001590141EAE4
:103FC000D261500102460B464146B2EB010A494616
:103FD00063EB010B4FF000024FF000034FEA8B132D
:103FE00043EA9A634FEA8A12B2EB0A0463EB0B05C9
:103FF0004FF000024FF00003EB0043EA5473E2007D
:1040000014461D464346E3183B604B4645EB03030D
:104010007B604FF000024FF00003D7E900452946CE
:104020008B02214643EA915321468A0210461946E3
:104030007B6C0022BB61FA61D7E90623FCF73CFEEA
:1040400002460B461346FB640B4B5B681B0C03F0EC
:10405000030301335B003B64FA6C3B6CB2FBF3F38C
:10406000BB6402E0054BBB6400BFBB6C1846503715
:10407000BD46BDE8B08F00BF003802400024F40008
:1040800000127A0080B400AF034B1B681846BD468F
:104090005DF8047B704700BF0000002080B500AFD2
:1040A000FFF7F0FF0246054B9B689B0A03F00703EE
:1040B0000349CB5C22FA03F3184680BD0038024066
:1040C00018D2000880B500AFFFF7DCFF0246054BB1
:1040D0009B685B0B03F007030349CB5C22FA03F3F5
:1040E000184680BD0038024018D2000880B483B062
:1040F00000AF786039607B680F221A60124B9B68B2
:1041000003F003027B685A600F4B9B6803F0F002D8
:104110007B689A600C4B9B6803F4E0527B68DA6022
:10412000094B9B68DB0803F4E0527B681A61074B7C
:104130001B6803F00F023B681A6000BF0C37BD46D6
:104140005DF8047B704700BF00380240003C02402D
:1041500080B588B000AF786000237B6100233B61AD
:104160000023FB610023BB617B681B6803F0010334
:10417000002B12D0654B9B68644A23F400039360C4
:10418000624B9A687B68DB6A604913438B607B688B
:10419000DB6A002B01D10123FB617B681B6803F400
:1041A0000023002B17D0594BD3F88C3023F4401246
:1041B0007B685B6B55491343C1F88C307B685B6B44
:1041C000B3F5801F01D10123FB617B685B6B002B82
:1041D00001D10123BB617B681B6803F48013002BB2
:1041E00017D04A4BD3F88C3023F440027B689B6B8A
:1041F00046491343C1F88C307B689B6BB3F5800F45
:1042000001D10123FB617B689B6B002B01D1012352
:10421000BB617B681B6803F02003002B00F08B80E0
:104220003A4B1B6C394A43F080531364374B1B6C79
:1042300003F08053FB60FB68354B1B68344A43F442
:1042400080731360FDF784FF786108E0FDF780FF5D
:1042500002467B69D31A642B01D90323BCE22C4BA1
:104260001B6803F48073002BF0D0284B1B6F03F402
:1042700040733B613B69002B35D07B689B6A03F43C
:1042800040733A699A422ED0204B1B6F23F440733F
:104290003B611E4B1B6F1D4A43F4803313671B4B5E
:1042A0001B6F1A4A23F480331367184A3B6913675C
:1042B000164B1B6F03F00103012B14D1FDF748FFD0
:1042C00078610AE0FDF744FF02467B69D31A41F2A8
:1042D0008832934201D903237EE20C4B1B6F03F01B
:1042E0000203002BEED07B689B6A03F44073B3F5A6
:1042F000407F11D1054B9B6823F4F8127B68996AC3
:10430000044B0B40014913438B600BE00038024023
:1043100000700040FFFCFF0FA44B9B68A34A23F4EE
:10432000F8139360A14B1A6F7B689B6AC3F30B036E
:104330009E4913430B677B681B6803F01003002B37
:1043400010D09A4BD3F88C30984A23F08073C2F87F
:104350008C30964BD3F88C207B681B6B93491343AE
:10436000C1F88C307B681B6803F48043002B0AD0B3
:104370008E4BD3F8903023F440327B68DB6D8B4951
:104380001343C1F890307B681B6803F40043002B93
:104390000AD0864BD3F8903023F440227B681B6E02
:1043A00082491343C1F890307B681B6803F4803363
:1043B000002B0AD07D4BD3F8903023F440127B6859
:1043C0005B6E7A491343C1F890307B681B6803F039
:1043D0004003002B0AD0754BD3F8903023F0030232
:1043E0007B68DB6B71491343C1F890307B681B68B5
:1043F00003F08003002B0AD06C4BD3F8903023F0ED
:104400000C027B681B6C69491343C1F890307B68D0
:104410001B6803F48073002B0AD0644BD3F89030F0
:1044200023F030027B685B6C60491343C1F8903025
:104430007B681B6803F40073002B0AD05B4BD3F836
:10444000903023F0C0027B689B6C58491343C1F83D
:1044500090307B681B6803F48063002B0AD0534BB9
:10446000D3F8903023F440727B68DB6C4F491343E0
:10447000C1F890307B681B6803F40063002B0AD0FE
:104480004A4BD3F8903023F440627B681B6D474958
:104490001343C1F890307B681B6803F48053002BF2
:1044A0000AD0424BD3F8903023F440527B685B6DC6
:1044B0003E491343C1F890307B681B6803F40053F6
:1044C000002B0AD0394BD3F8903023F440427B685C
:1044D0009B6D36491343C1F890307B681B6803F429
:1044E0000013002B11D0314BD3F8903023F0006231
:1044F0007B685B6F2D491343C1F890307B685B6F1D
:10450000B3F1006F01D10123BB617B681B6803F429
:104510008023002B0AD0254BD3F8903023F0407233
:104520007B68DB6E21491343C1F890307B681B68C0
:1045300003F40003002B0AD01C4BD3F8903023F077
:1045400080527B689B6F19491343C1F890307B6898
:104550001B6803F08063002B0AD0144BD3F8903013
:1045600023F000527B68DB6F10491343C1F8903091
:10457000FB69012B06D07B681B6803F00073002BDE
:1045800000F09D80094B1B68084A23F0806313608C
:10459000FDF7DEFD78610BE0FDF7DAFD02467B6991
:1045A000D31A642B04D9032316E100BF003802405C
:1045B0008B4B1B6803F00063002BEDD17B681B68FD
:1045C00003F00103002B17D07B68DB6A002B13D1AB
:1045D000834BD3F884301B0E03F00F033B617B68E1
:1045E0005B689A013B691B061A437B689B681B0743
:1045F0007B491343C1F884307B681B6803F40023B4
:10460000002B04D07B685B6BB3F5801F0AD07B68FE
:104610001B6803F48013002B24D07B689B6BB3F5DD
:10462000800F1FD16E4BD3F884301B0F03F00703AC
:104630003B617B685B689A017B68DB681B061A43F9
:104640003B691B0766491343C1F88430644BD3F8B8
:104650008C3023F01F027B68DB69013B6049134308
:10466000C1F88C307B681B6803F00073002B0DD001
:104670007B685B689A017B68DB681B061A437B6872
:104680009B681B0756491343C1F88430544B1B6881
:10469000534A43F080631360FDF75AFD786108E0E8
:1046A000FDF756FD02467B69D31A642B01D903231B
:1046B00092E04B4B1B6803F00063002BF0D0BB690A
:1046C000012B40F08880464B1B68454A23F08053FD
:1046D0001360FDF73DFD786108E0FDF739FD024606
:1046E0007B69D31A642B01D9032375E03C4B1B680B
:1046F00003F00053B3F1005FEFD07B681B6803F455
:104700000023002B03D07B685B6B002B09D07B68F8
:104710001B6803F48013002B24D07B689B6B002B59
:1047200020D12F4BD3F888301B0C03F003033B61DF
:104730007B681B699A013B691B041A437B685B69B0
:104740001B0627491343C1F88830254BD3F88C301A
:1047500023F4F8527B681B6A013B1B022049134378
:10476000C1F88C307B681B6803F40013002B18D051
:104770007B685B6FB3F1006F13D1194BD3F88830AE
:104780001B0E03F00F033B617B681B699A017B687A
:104790009B691B041A433B691B0611491343C1F86B
:1047A00088300F4B1B680E4A43F080531360FDF7AF
:1047B000CFFC786108E0FDF7CBFC02467B69D31A99
:1047C000642B01D9032307E0054B1B6803F000535A
:1047D000B3F1005FEFD1002318462037BD4680BDFE
:1047E0000038024080B582B000AF78607B68002B53
:1047F00001D1012349E07B6893F83D30DBB2002B07
:1048000006D17B68002283F83C20786800F041F8EC
:104810007B68022283F83D207B681A687B6804333A
:104820001946104600F0E8F97B68012283F8482019
:104830007B68012283F83E207B68012283F83F20B9
:104840007B68012283F840207B68012283F84120A5
:104850007B68012283F842207B68012283F8432091
:104860007B68012283F844207B68012283F845207D
:104870007B68012283F846207B68012283F8472069
:104880007B68012283F83D20002318460837BD4687
:1048900080BD80B483B000AF786000BF0C37BD46E8
:1048A0005DF8047B7047000080B485B000AF78608D
:1048B0007B6893F83D30DBB2012B01D0012354E03B
:1048C0007B68022283F83D207B681B68DA687B687E
:1048D0001B6842F00102DA607B681B68264A93423B
:1048E00022D07B681B68B3F1804F1DD07B681B68AA
:1048F000224A934218D07B681B68214A934213D006
:104900007B681B681F4A93420ED07B681B681E4A57
:10491000934209D07B681B681C4A934204D07B6891
:104920001B681B4A934215D17B681B689A68194B18
:104930001340FB60FB68062B15D0FB68B3F5803F86
:1049400011D07B681B681A687B681B6842F0010203
:104950001A6008E07B681B681A687B681B6842F075
:1049600001021A6000E000BF002318461437BD465C
:104970005DF8047B704700BF000001400004004068
:1049800000080040000C00400004014000400140CD
:10499000001800400700010080B584B000AF7860C7
:1049A0007B681B68DB68FB607B681B681B69BB60FE
:1049B000BB6803F00203002B20D0FB6803F0020366
:1049C000002B1BD07B681B686FF002021A617B68AA
:1049D00001221A777B681B689B6903F00303002B95
:1049E00003D0786800F0E9F805E0786800F0DBF8BB
:1049F000786800F0ECF87B6800221A77BB6803F057
:104A00000403002B20D0FB6803F00403002B1BD011
:104A10007B681B686FF004021A617B6802221A77B8
:104A20007B681B689B6903F44073002B03D0786894
:104A300000F0C3F805E0786800F0B5F8786800F099
:104A4000C6F87B6800221A77BB6803F00803002BC6
:104A500020D0FB6803F00803002B1BD07B681B6889
:104A60006FF008021A617B6804221A777B681B6862
:104A7000DB6903F00303002B03D0786800F09DF896
:104A800005E0786800F08FF8786800F0A0F87B689F
:104A900000221A77BB6803F01003002B20D0FB68BC
:104AA00003F01003002B1BD07B681B686FF0100213
:104AB0001A617B6808221A777B681B68DB6903F43C
:104AC0004073002B03D0786800F077F805E0786831
:104AD00000F069F8786800F07AF87B6800221A77AD
:104AE000BB6803F00103002B0CD0FB6803F001034B
:104AF000002B07D07B681B686FF001021A61786891
:104B0000FCF78EFEBB6803F08003002B04D1BB686A
:104B100003F40053002B0CD0FB6803F08003002B40
:104B200007D07B681B686FF402521A61786800F046
:104B300013F9BB6803F48073002B0CD0FB6803F0FF
:104B40008003002B07D07B681B686FF480721A61AA
:104B5000786800F00BF9BB6803F04003002B0CD021
:104B6000FB6803F04003002B07D07B681B686FF0E5
:104B700040021A61786800F034F8BB6803F0200343
:104B8000002B0CD0FB6803F02003002B07D07B68C0
:104B90001B686FF020021A61786800F0D3F800BF3C
:104BA0001037BD4680BD80B483B000AF786000BFD1
:104BB0000C37BD465DF8047B704780B483B000AF0E
:104BC000786000BF0C37BD465DF8047B704780B449
:104BD00083B000AF786000BF0C37BD465DF8047B42
:104BE000704780B483B000AF786000BF0C37BD461B
:104BF0005DF8047B7047000080B485B000AF78603A
:104C000039607B681B68FB607B68434A934213D022
:104C10007B68B3F1804F0FD07B68404A93420BD042
:104C20007B683F4A934207D07B683E4A934203D059
:104C30007B683D4A934208D1FB6823F07003FB6018
:104C40003B685B68FA681343FB607B68324A9342B7
:104C50002BD07B68B3F1804F27D07B682F4A9342DB
:104C600023D07B682E4A93421FD07B682D4A934203
:104C70001BD07B682C4A934217D07B682B4A934207
:104C800013D07B682A4A93420FD07B68294A93420B
:104C90000BD07B68284A934207D07B68274A93420F
:104CA00003D07B68264A934208D1FB6823F4407303
:104CB000FB603B68DB68FA681343FB60FB6823F02A
:104CC00080023B685B691343FB603B689A687B68C2
:104CD000DA623B681A687B689A627B680E4A934284
:104CE00003D07B68104A934203D13B681A697B6802
:104CF0001A637B681B6843F004027B681A607B6858
:104D000001225A617B68FA681A6000BF1437BD46F9
:104D10005DF8047B704700BF0000014000040040C4
:104D200000080040000C0040000401400040014029
:104D3000004401400048014000180040001C0040B1
:104D40000020004080B483B000AF786000BF0C3713
:104D5000BD465DF8047B704780B483B000AF7860D7
:104D600000BF0C37BD465DF8047B704780B483B04C
:104D700000AF786000BF0C37BD465DF8047B70471C
:104D800080B582B000AF78607B68002B01D1012331
:104D900040E07B68DB6F002B06D17B68002283F844
:104DA00078207868FCF738FF7B682422DA677B6814
:104DB0001B681A687B681B6822F001021A607B6816
:104DC0005B6A002B02D0786800F016FB786800F070
:104DD000AFF80346012B01D101231BE07B681B6860
:104DE0005A687B681B6822F490425A607B681B6893
:104DF0009A687B681B6822F02A029A607B681B68AD
:104E00001A687B681B6842F001021A60786800F03B
:104E100095FB034618460837BD4680BD80B58AB06D
:104E200002AFF860B9603B601346FB80FB68DB6F44
:104E3000202B77D1BB68002B02D0FB88002B01D13F
:104E4000012370E0FB680022C3F88420FB68212264
:104E5000DA67FDF77DF97861FB68FA88A3F85020DE
:104E6000FB68FA88A3F85220FB689B68B3F5805F63
:104E700008D1FB681B69002B04D10023FB61BB68D0
:104E8000BB6103E0BB68FB610023BB612FE03B68B3
:104E900000937B6900228021F86800F0A6FB03469E
:104EA000002B04D0FB682022DA6703233BE0FB6978
:104EB000002B0BD1BB691B881A46FB681B68C2F329
:104EC00008029A62BB690233BB6107E0FB691A788A
:104ED000FB681B689A62FB690133FB61FB68B3F8EE
:104EE00052309BB2013B9AB2FB68A3F85220FB6898
:104EF000B3F852309BB2002BC9D13B6800937B6959
:104F000000224021F86800F070FB0346002B04D01B
:104F1000FB682022DA67032305E0FB682022DA67BA
:104F2000002300E0022318462037BD4680BD000064
:104F300080B588B000AF78600023BB777B689A6843
:104F40007B681B691A437B685B691A437B68DB6972
:104F500013437B617B681B681A68A64B13407A6811
:104F6000126879690B4313607B681B685B6823F4E4
:104F700040517B68DA687B681B680A435A607B682B
:104F80009B697B617B681B6A7A6913437B617B68E1
:104F90001B689B6823F430617B681B687A690A434D
:104FA0009A607B681B68944A934220D1934BD3F854
:104FB000903003F00303032B16D801A252F823F01C
:104FC000D14F0008DD4F0008D74F0008E34F00081D
:104FD0000123FB7750E10223FB774DE10423FB77AC
:104FE0004AE10823FB7747E11023FB7744E17B6824
:104FF0001B68834A934232D1804BD3F8903003F040
:105000000C030C2B28D801A252F823F041500008C1
:105010005950000859500008595000084D500008D8
:1050200059500008595000085950000847500008CE
:1050300059500008595000085950000853500008B2
:105040000023FB7718E10223FB7715E10423FB77AC
:1050500012E10823FB770FE11023FB770CE17B685B
:105060001B68684A934220D1644BD3F8903003F018
:105070003003302B13D0302B14D8202B09D0202B09
:1050800010D8002B02D0102B06D00BE00023FB77AA
:10509000F2E00223FB77EFE00423FB77ECE0082348
:1050A000FB77E9E01023FB77E6E07B681B68564A54
:1050B000934220D1514BD3F8903003F0C003C02B62
:1050C00013D0C02B14D8802B09D0802B10D8002BE4
:1050D00002D0402B06D00BE00023FB77CCE002236C
:1050E000FB77C9E00423FB77C6E00823FB77C3E026
:1050F0001023FB77C0E07B681B68444A934225D1AC
:105100003E4BD3F8903003F44073B3F5407F17D093
:10511000B3F5407F17D8B3F5007F0BD0B3F5007F10
:1051200011D8002B03D0B3F5807F06D00BE000230D
:10513000FB77A1E00223FB779EE00423FB779BE053
:105140000823FB7798E01023FB7795E07B681B68CA
:105150002F4A934225D1294BD3F8903003F4406372
:10516000B3F5406F17D0B3F5406F17D8B3F5006FA4
:105170000BD0B3F5006F11D8002B03D0B3F5806FBF
:1051800006D00BE00123FB7776E00223FB7773E088
:105190000423FB7770E00823FB776DE01023FB7797
:1051A0006AE07B681B681B4A934238D1134BD3F8E3
:1051B000903003F44053B3F5405F17D0B3F5405F30
:1051C0002AD8B3F5005F0BD0B3F5005F24D8002BCD
:1051D00003D0B3F5805F06D01EE00023FB774BE0E1
:1051E0000223FB7748E00423FB7745E00823FB77A5
:1051F00042E000BFF369FFEF0010014000380240B9
:105200000044004000480040004C00400050004076
:1052100000140140007800401023FB772CE07B68ED
:105220001B68724A934225D1714BD3F8903003F436
:105230004043B3F5404F17D0B3F5404F17D8B3F5FF
:10524000004F0BD0B3F5004F11D8002B03D0B3F5AE
:10525000804F06D00BE00023FB770DE00223FB77A5
:105260000AE00423FB7707E00823FB7704E0102320
:10527000FB7701E01023FB777B68DB69B3F5004F18
:105280005BD1FB7F082B28D801A252F823F000BF86
:10529000B5520008BD520008C5520008DB52000894
:1052A000CB520008DB520008DB520008DB5200083A
:1052B000D3520008FEF7F2FEB86113E0FEF702FFDA
:1052C000B8610FE04B4BBB610CE0FEF7D5FDB86158
:1052D00008E04FF40043BB6104E00023BB610123FD
:1052E000BB7700BFBB69002B74D0BB695A007B68D9
:1052F0005B685B081A447B685B68B2FBF3F33B6155
:105300003B690F2B16D93B69B3F5803F12D23B693D
:105310009BB223F00F03FB813B695B089BB203F058
:1053200007039AB2FB891343FB817B681B68FA89E8
:10533000DA604FE00123BB774CE0FB7F082B28D8D5
:1053400001A252F823F000BF6D5300087553000806
:105350007D530008935300088353000893530008BB
:1053600093530008935300088B530008FEF796FEF2
:10537000B86113E0FEF7A6FEB8610FE01D4BBB61FC
:105380000CE0FEF779FDB86108E04FF40043BB6123
:1053900004E00023BB610123BB7700BFBB69002B86
:1053A00018D07B685B685A08BB691A447B685B68E5
:1053B000B2FBF3F33B613B690F2B09D93B69B3F5B2
:1053C000803F05D23B699AB27B681B68DA6001E0D6
:1053D0000123BB777B6800229A667B680022DA662D
:1053E000BB7F18462037BD4680BD00BF007C004013
:1053F000003802400024F40080B483B000AF78602D
:105400007B685B6A03F00803002B0AD07B681B688B
:105410005B6823F400417B685A6B7B681B680A4316
:105420005A607B685B6A03F00103002B0AD07B683B
:105430001B685B6823F400317B689A6A7B681B6891
:105440000A435A607B685B6A03F00203002B0AD0B0
:105450007B681B685B6823F480317B68DA6A7B6851
:105460001B680A435A607B685B6A03F00403002BE5
:105470000AD07B681B685B6823F480217B681A6B09
:105480007B681B680A435A607B685B6A03F0100301
:10549000002B0AD07B681B689B6823F480517B68D3
:1054A0009A6B7B681B680A439A607B685B6A03F0AF
:1054B0002003002B0AD07B681B689B6823F40051F3
:1054C0007B68DA6B7B681B680A439A607B685B6A5F
:1054D00003F04003002B1AD07B681B685B6823F441
:1054E00080117B681A6C7B681B680A435A607B6872
:1054F0001B6CB3F5801F0AD17B681B685B6823F4C3
:10550000C0017B685A6C7B681B680A435A607B68E1
:105510005B6A03F08003002B0AD07B681B685B6822
:1055200023F400217B689A6C7B681B680A435A60ED
:1055300000BF0C37BD465DF8047B704780B58CB06A
:1055400002AF78607B680022C3F88420FCF700FE7D
:1055500078627B681B681B6803F00803082B2ED158
:105560006FF07E4300937B6A00224FF4001178684D
:1055700000F03BF80346002B21D07B681B683B61A1
:105580003B6953E8003FFB60FB6823F080033B620C
:105590007B681B681A463B6AFB61BA61B969FA69A4
:1055A00041E800237B617B69002BE6D17B682022E8
:1055B000DA677B68002283F87820032311E07B6898
:1055C0002022DA677B682022C3F880207B680022D3
:1055D0001A667B6800225A667B68002283F878206E
:1055E000002318462837BD4680BD80B584B000AF83
:1055F000F860B9603B601346FB714FE0BB69B3F1E3
:10560000FF3F4BD0FCF7A4FD02463B68D31ABA69B2
:105610009A4202D3BB69002B01D103234EE0FB6801
:105620001B681B6803F00403002B37D0BB68802B7A
:1056300034D0BB68402B31D0FB681B68DB6903F0BA
:105640000803082B10D1FB681B6808221A62F8684F
:1056500000F038F8FB680822C3F88420FB680022B9
:1056600083F87820012329E0FB681B68DB6903F4D9
:105670000063B3F5006F11D1FB681B684FF4006243
:105680001A62F86800F01EF8FB682022C3F8842034
:10569000FB68002283F8782003230FE0FB681B6877
:1056A000DA69BB681340BA689A420CBF0123002331
:1056B000DBB21A46FB799A42A0D000231846103775
:1056C000BD4680BD80B495B000AF78607B681B6834
:1056D0007B637B6B53E8003F3B633B6B23F490732E
:1056E000FB647B681B681A46FB6C3B64FA63F96BCE
:1056F0003A6C41E80023BB63BB6B002BE6D17B68AF
:105700001B6808333B623B6A53E8003FFB61FB695F
:1057100023F00103BB647B681B680833BA6CFA6230
:10572000BB62B96AFA6A41E800237B627B6A002B9C
:10573000E5D17B681B6E012B18D17B681B68FB6071
:10574000FB6853E8003FBB60BB6823F010037B6439
:105750007B681B681A467B6CBB617A617969BA69A0
:1057600041E800233B613B69002BE6D17B682022A6
:10577000C3F880207B6800221A667B6800229A6644
:1057800000BF5437BD465DF8047B704784B080B5D8
:1057900084B000AF786007F11C0080E80E0097F835
:1057A0002130012B27D17B689B6B23F480327B68EF
:1057B0009A637B68DA683A4B13407A68D3607B68F7
:1057C000DB6843F010027B68DA607B68DB6823F4F7
:1057D00040127B68DA6097F82830012B05D17B688E
:1057E000DB6843F480127B68DA60786800F0D0FAF6
:1057F0000346FB733CE097F82130032B27D17B68ED
:105800009B6B23F480327B689A637B68DA68244B55
:1058100013407A68D3607B68DB6823F440127B68AE
:10582000DA607B68DB6823F010027B68DA6097F847
:105830002830012B05D17B68DB6843F480127B683C
:10584000DA60786800F0A4FA0346FB7310E07B6826
:10585000DB6843F040027B68DA60786800F098FA11
:105860000346FB737B689B6B43F480327B689A63CF
:10587000BB7F012B0BD17B689B6843F006027B68E2
:105880009A607B689B6843F020027B689A60FB7B90
:1058900018461037BD46BDE8804004B0704700BFD1
:1058A000BFFFBDFF80B483B000AF78607B689B68AA
:1058B00023F001027B689A60002318460C37BD462E
:1058C0005DF8047B704780B584B000AF78600B460C
:1058D000FB700023FB607B68DB6823F0C0427B68C1
:1058E000DA60FB78012B15D17B68DB6843F000524E
:1058F0007B68DA600A20FCF737FCFB680A33FB6040
:10590000786800F037FA0346012B1ED0FB68C72BDE
:10591000F0D91AE0FB78002B15D17B68DB6843F0E7
:1059200080427B68DA600A20FCF71EFCFB680A33C1
:10593000FB60786800F01EFA0346002B05D0FB6878
:10594000C72BF0D901E0012305E0FB68C82B01D18A
:10595000012300E0002318461037BD4680BD00003B
:1059600084B080B586B000AF786007F1240080E88D
:105970000E000023FB757B68FB6000233B6109E0A0
:105980007A683B6940339B00134400225A603B69AC
:1059900001333B613B690E2BF2D997F82E30002B77
:1059A0001CD1FB6803F500635B68FA6802F50062CE
:1059B00043F0020353607B689B6B23F400127B6807
:1059C0009A637B681B6843F040027B681A607B68BF
:1059D0001B6843F080027B681A6005E07B689B6B64
:1059E00043F400127B689A63FB6803F560631A4610
:1059F0000023136097F82930012B0DD197F8273039
:105A0000002B04D10021786800F07AF91AE0012116
:105A1000786800F075F915E097F82930032B0DD15F
:105A200097F82730002B04D10021786800F068F93E
:105A300008E00121786800F063F903E00321786849
:105A400000F05EF91021786800F0FAF80346002BA8
:105A500001D00123FB75786800F024F90346002B80
:105A600001D00123FB75FB6803F500631A46002390
:105A70001361FB6803F500631A4600235361FB685A
:105A800003F500631A460023D36100233B6143E022
:105A90003B695A01FB68134403F510631B6803F06C
:105AA0000043B3F1004F18D13B69002B0AD13B6989
:105AB0005A01FB68134403F510631A464FF0006364
:105AC000136013E03B695A01FB68134403F510634C
:105AD0001A464FF09043136008E03B695A01FB6897
