:020000040802F0
:1000000000000420C9240208FD210208D51C0208B2
:10001000FF2102080122020803220208000000005A
:1000200000000000000000000000000071690208EC
:100030000522020800000000116A0208756A020821
:100040001925020819250208192502081925020890
:100050001925020819250208192502081925020880
:100060001925020819250208192502081925020870
:100070001925020819250208192502081925020860
:100080001925020819250208192502081925020850
:100090001925020819250208192502081925020840
:1000A0001925020819250208192502081925020830
:1000B0001925020819250208192502081925020820
:1000C0001925020819250208192502081925020810
:1000D0001925020819250208192502081925020800
:1000E00019250208192502081925020819250208F0
:1000F00019250208192502081925020819250208E0
:1001000019250208192502081925020819250208CF
:1001100019250208192502080922020819250208D2
:1001200019250208192502081925020819250208AF
:100130001925020800000000000000000000000077
:100140000000000000000000000000001925020867
:10015000192502081925020819250208192502087F
:10016000192502081925020819250208192502086F
:1001700019250208192502080000000000000000EF
:10018000192502081925020819250208192502084F
:100190001925020819250208000000001925020887
:1001A0000000000000000000000000001925020807
:1001B00019250208192502080000000000000000AF
:1001C000000000000000000000000000000000002F
:1001D00000000000000000000000000019250208D7
:1001E00010B5054C237833B9044B13B10448AFF371
:1001F00000800123237010BDDC01002000000000FE
:1002000028AC020808B5034B1BB103490348AFF300
:10021000008008BD00000000E001002028AC0208BA
:100220004B1C012B98BF70472DE9F003911C9B08D4
:10023000B1F80480B1F802900A8831F802CC804409
:10024000814402448444D9F80070D8F800601568ED
:10025000DCF80040C9F80060C8F80070CCF8005025
:100260001460D9F80470D8F804605568DCF80440CC
:10027000C9F80460C8F80470CCF804505460083120
:10028000013BD5D1BDE8F00370474B1C012B98BF53
:1002900070472DE9F003911C9B08B1F80480B1F878
:1002A00002900A8831F802CC00EB580800EB59099B
:1002B00000EB520200EB5C0CD9F80070D8F800603B
:1002C0001568DCF80040C9F80060C8F80070CCF888
:1002D000005014600831013BDFD1BDE8F0037047E6
:1002E00001F0FF01102A2BDB10F0070F08D010F8E7
:1002F000013B013A8B422DD010F0070F42B3F6D1EB
:10030000F0B441EA012141EA014122F007047FF003
:1003100000070023F0E80256083C85EA010586EA5A
:10032000010685FA47F5A3FA87F586FA47F6A5FA96
:1003300087F68EB9EED1F0BC01F0FF0102F00702A2
:1003400032B110F8013B013A83EA010313B1F8D14D
:100350000020704701387047002D06BF354603382E
:10036000073815F0010F07D1013015F4807F02BF67
:10037000013015F4C03F0130F0BC0138704700BFB8
:10038000034613F8012B002AFBD1181A01387047D5
:1003900081F0004102E000BF83F0004330B54FEA36
:1003A00041044FEA430594EA050F08BF90EA020FA3
:1003B0001FBF54EA000C55EA020C7FEA645C7FEA36
:1003C000655C00F0E2804FEA5454D4EB5555B8BF59
:1003D0006D420CDD2C4480EA020281EA030382EACA
:1003E000000083EA010180EA020281EA0303362D5C
:1003F00088BF30BD11F0004F4FEA01314FF4801C2F
:100400004CEA113102D0404261EB410113F0004F40
:100410004FEA03334CEA133302D0524263EB4303F7
:1004200094EA050F00F0A780A4F10104D5F1200E95
:100430000DDB02FA0EFC22FA05F2801841F10001F0
:1004400003FA0EF2801843FA05F359410EE0A5F1C4
:1004500020050EF1200E012A03FA0EFC28BF4CF0F5
:10046000020C43FA05F3C01851EBE37101F00045AB
:1004700007D54FF0000EDCF1000C7EEB00006EEBB8
:100480000101B1F5801F1BD3B1F5001F0CD3490842
:100490005FEA30004FEA3C0C04F101044FEA445299
:1004A00012F5800F80F09A80BCF1004F08BF5FEA20
:1004B000500C50F1000041EB045141EA050130BD00
:1004C0005FEA4C0C404141EB0101013C28BFB1F512
:1004D000801FE9D291F0000F04BF01460020B1FA5D
:1004E00081F308BF2033A3F10B03B3F120020CDA30
:1004F0000C3208DD02F1140CC2F10C0201FA0CF00E
:1005000021FA02F10CE002F11402D8BFC2F1200C72
:1005100001FA02F120FA0CFCDCBF41EA0C01904028
:10052000E41AA2BF01EB0451294330BD6FEA040471
:100530001F3C1CDA0C340EDC04F11404C4F120025C
:1005400020FA04F001FA02F340EA030021FA04F36E
:1005500045EA030130BDC4F10C04C4F1200220FAC5
:1005600002F001FA04F340EA0300294630BD21FA03
:1005700004F0294630BD94F0000F83F4801306BFC9
:1005800081F480110134013D4EE77FEA645C18BFBD
:100590007FEA655C29D094EA050F08BF90EA020F54
:1005A00005D054EA000C04BF1946104630BD91EA4C
:1005B000030F1EBF0021002030BD5FEA545C05D14F
:1005C0004000494128BF41F0004130BD14F580048E
:1005D0003CBF01F5801130BD01F0004545F0FE4102
:1005E00041F470014FF0000030BD7FEA645C1ABF37
:1005F000194610467FEA655C1CBF0B46024650EA6E
:10060000013406BF52EA033591EA030F41F4002199
:1006100030BD00BF90F0000F04BF0021704730B51F
:100620004FF4806404F132044FF000054FF00001F4
:1006300050E700BF90F0000F04BF0021704730B5B5
:100640004FF4806404F1320410F0004548BF40428A
:100650004FF000013EE700BF42004FEAE2014FEADF
:1006600031014FEA02701FBF12F07F4393F07F4FBA
:1006700081F06051704732F07F4208BF704793F0BD
:100680007F4F04BF41F40021704730B54FF46074D0
:1006900001F0004521F000411CE700BF50EA0102D3
:1006A00008BF704730B54FF000050AE050EA01027C
:1006B00008BF704730B511F0004502D5404261EBEC
:1006C00041014FF4806404F132045FEA915C3FF42D
:1006D000D8AE4FF003025FEADC0C18BF03325FEACA
:1006E000DC0C18BF033202EBDC02C2F1200300FA7B
:1006F00003FC20FA02F001FA03FE40EA0E0021FAA0
:1007000002F11444BDE600BF70B54FF0FF0C4CF48D
:10071000E06C1CEA11541DBF1CEA135594EA0C0F3F
:1007200095EA0C0F00F0DEF82C4481EA030621EA7A
:100730004C5123EA4C5350EA013518BF52EA0335B5
:1007400041F4801143F4801338D0A0FB02CE4FF067
:100750000005E1FB02E506F00042E0FB03E54FF097
:100760000006E1FB03569CF0000F18BF4EF0010E8F
:10077000A4F1FF04B6F5007F64F5407404D25FEA8B
:100780004E0E6D4146EB060642EAC62141EA55513E
:100790004FEAC52040EA5E504FEACE2EB4F1FD0C80
:1007A00088BFBCF5E06F1ED8BEF1004F08BF5FEAFE
:1007B000500E50F1000041EB045170BD06F00046B0
:1007C00046EA010140EA020081EA0301B4EB5C045D
:1007D000C2BFD4EB0C0541EA045170BD41F4801155
:1007E0004FF0000E013C00F3AB8014F1360FDEBF7A
:1007F000002001F0004170BDC4F10004203C35DA56
:100800000C341BDC04F11404C4F1200500FA05F3D8
:1008100020FA04F001FA05F240EA020001F0004279
:1008200021F0004110EBD37021FA04F642EB0601EF
:100830005EEA430E08BF20EAD37070BDC4F10C0419
:10084000C4F1200500FA04F320FA05F001FA04F2DD
:1008500040EA020001F0004110EBD37041F10001C9
:100860005EEA430E08BF20EAD37070BDC4F12005D4
:1008700000FA05F24EEA020E20FA04F301FA05F23C
:1008800043EA020321FA04F001F0004121FA04F2E4
:1008900020EA020000EBD3705EEA430E08BF20EAB4
:1008A000D37070BD94F0000F0FD101F000464000EE
:1008B00041EB010111F4801F08BF013CF7D041EA70
:1008C000060195F0000F18BF704703F00046520074
:1008D00043EB030313F4801F08BF013DF7D043EA45
:1008E0000603704794EA0C0F0CEA135518BF95EAFB
:1008F0000C0F0CD050EA410618BF52EA4306D1D182
:1009000081EA030101F000414FF0000070BD50EAA0
:10091000410606BF1046194652EA430619D094EA2A
:100920000C0F02D150EA013613D195EA0C0F05D114
:1009300052EA03361CBF104619460AD181EA030168
:1009400001F0004141F0FE4141F470014FF0000020
:1009500070BD41F0FE4141F4780170BD70B54FF0BB
:10096000FF0C4CF4E06C1CEA11541DBF1CEA13553B
:1009700094EA0C0F95EA0C0F00F0A7F8A4EB05041D
:1009800081EA030E52EA03354FEA013100F0888014
:100990004FEA03334FF0805545EA131343EA1263DD
:1009A0004FEA022245EA111545EA10654FEA002692
:1009B0000EF000419D4208BF964244F1FD0404F54B
:1009C000407402D25B084FEA3202B61A65EB0305A7
:1009D0005B084FEA32024FF480104FF4002CB6EB64
:1009E000020E75EB030E22BFB61A754640EA0C00E4
:1009F0005B084FEA3202B6EB020E75EB030E22BF24
:100A0000B61A754640EA5C005B084FEA3202B6EB64
:100A1000020E75EB030E22BFB61A754640EA9C0023
:100A20005B084FEA3202B6EB020E75EB030E22BFF3
:100A3000B61A754640EADC0055EA060E18D04FEAB1
:100A4000051545EA16754FEA06164FEAC30343EA51
:100A500052734FEAC2025FEA1C1CC0D111F4801F1E
:100A60000BD141EA00014FF000004FF0004CB6E717
:100A700011F4801F04BF01430020B4F1FD0C88BFB6
:100A8000BCF5E06F3FF6AFAEB5EB030C04BFB6EBC1
:100A9000020C5FEA500C50F1000041EB045170BDB4
:100AA0000EF0004E4EEA113114EB5C04C2BFD4EBE1
:100AB0000C0541EA045170BD41F480114FF0000E65
:100AC000013C90E645EA060E8DE60CEA135594EAE1
:100AD0000C0F08BF95EA0C0F3FF43BAF94EA0C0FE4
:100AE0000AD150EA01347FF434AF95EA0C0F7FF459
:100AF00025AF104619462CE795EA0C0F06D152EAAD
:100B000003353FF4FDAE1046194622E750EA410690
:100B100018BF52EA43067FF4C5AE50EA41047FF4A1
:100B20000DAF52EA43057FF4EBAE12E74FF0FF3C06
:100B300006E000BF4FF0010C02E000BF4FF0010CD7
:100B40004DF804CD4FEA410C7FEA6C5C4FEA430C50
:100B500018BF7FEA6C5C1BD001B050EA410C0CBF9F
:100B600052EA430C91EA030F02BF90EA020F002001
:100B7000704710F1000F91EA030F58BF994208BF68
:100B800090422CBFD8176FEAE37040F00100704725
:100B90004FEA410C7FEA6C5C02D150EA013C07D17C
:100BA0004FEA430C7FEA6C5CD6D152EA033CD3D0C7
:100BB0005DF8040B704700BF8446104662468C46C1
:100BC0001946634600E000BF01B5FFF7B7FF0028F4
:100BD00048BF10F1000F01BD4DF808EDFFF7F4FF1D
:100BE0000CBF012000205DF808FB00BF4DF808EDA8
:100BF000FFF7EAFF34BF012000205DF808FB00BFCB
:100C00004DF808EDFFF7E0FF94BF012000205DF8EC
:100C100008FB00BF4DF808EDFFF7CEFF94BF0120A1
:100C200000205DF808FB00BF4DF808EDFFF7C4FF9A
:100C300034BF012000205DF808FB00BF4FEA410CE3
:100C40007FEA6C5C02D150EA013C0AD14FEA430CC6
:100C50007FEA6C5C02D152EA033C02D14FF0000003
:100C600070474FF0010070474FEA410212F5001241
:100C700015D211D56FF47873B3EB625212D94FEAE3
:100C8000C12343F0004343EA505311F0004F23FACD
:100C900002F018BF404270474FF00000704750EA22
:100CA000013005D111F0004008BF6FF000407047DF
:100CB0004FF00000704700BF53B94AB9002908BF80
:100CC00000281CBF4FF0FF314FF0FF3000F088B913
:100CD000ADF1080C6DE904CE00F006F8DDF804E093
:100CE000DDE9022304B070472DE9F047089D0F4667
:100CF00004468C46002B48D18A42164661D9B2FA86
:100D000082F34BB1C3F1200201FA03FC20FA02F294
:100D10009E4042EA0C0C9C404FEA164EB7B2BCFB18
:100D2000FEF1220C0EFB11CC42EA0C4201FB07F053
:100D3000904209D9B21801F1FF3C80F0EE80904258
:100D400040F2EB8002393244121AA4B2B2FBFEF038
:100D50000EFB102244EA024400FB07F7A74209D920
:100D6000341900F1FF3280F0DA80A74240F2D780D8
:100D70003444023840EA0140E41B00211DB1DC404C
:100D80000023C5E90043BDE8F0878B4206D90DB1C9
:100D9000C5E9000100210846BDE8F087B3FA83F1F8
:100DA000002948D1BB4202D3824200F20781841A53
:100DB00067EB030201209446002DE4D0C5E9004C06
:100DC000E1E7002A00F09280B2FA82F3002B40F0B3
:100DD000A8808A1A4FEA164E1FFA86FC0121200CC1
:100DE000B2FBFEF70EFB172240EA02420CFB07F0B3
:100DF000904207D9B21807F1FF3802D2904200F2B0
:100E0000E2804746121AA4B2B2FBFEF00EFB10229B
:100E100044EA02440CFB00FCA44507D9341900F154
:100E2000FF3202D2A44500F2CB801046A4EB0C04A2
:100E300040EA0740A2E7C1F120068B4022FA06FCF7
:100E40004CEA030C07FA01F420FA06F3F7404FEAE4
:100E50001C49234300FA01F81FFA8CFEB7FBF9F096
:100E60001C0C09FB107744EA074400FB0EF7A7426D
:100E700002FA01F20AD91CEB040400F1FF3A80F0F7
:100E80009B80A74240F2988002386444E41B9FB2E2
:100E9000B4FBF9F309FB134447EA044403FB0EFED9
:100EA000A64509D91CEB040403F1FF3780F08280CA
:100EB000A6457FD9023B644443EA0040A4EB0E04FC
:100EC000A0FB02E7BC427346B94663D360D05DB174
:100ED000B8EB030264EB090404FA06F622FA01F304
:100EE0001E43CC40C5E9006400214CE76208480875
:100EF00042EAC1710B0C43EA00438AB242EA034260
:100F0000B3FBF6F1E407B4463746B6461F23B0FB01
:100F1000F6F0D21B41EA004161E7614614E7104652
:100F200028E7C3F1200120FA01F29E4027FA01F1DF
:100F30009F403A434FEA164E1FFA86FCB1FBFEF77C
:100F40000EFB1710110C41EA004107FB0CF8884515
:100F500004FA03F43AD9711807F1FF3001D2884539
:100F60001FD8A1EB0801B1FBFEF808FB0CF70EFB44
:100F7000181192B242EA0142BA422FD2B21808F1D5
:100F8000FF31C6D2BA42C4D2A8F102013244C0E74E
:100F9000F0459CD2BEEB020367EB0C070138B94663
:100FA00095E7A6EB08084144B81EB1FBFEF808FB24
:100FB0000CF7DCE73B467FE7504667E70846FBE671
:100FC0003444023832E7023F32441BE7A1EB080108
:100FD0003846B1FBFEF808FB0CF7C8E7414698E736
:100FE000704700BF044C4AF6AA2508B525604FF4A7
:100FF000FA7003F033FEF9E7003000400FB413B588
:10100000EFF305837BB1002405A90498019107F053
:101010008BFC1CB10B4B186803F0ACFE02B0BDE8B2
:10102000104004B0704703F099FD0228EBD1054B46
:1010300018680028E7D04FF0FF31012403F06AFE62
:10104000E2E700BFF80900202DE9F04F95B020221B
:1010500000210CA807F004FD0A230222D0215348E6
:1010600002F0FEF8B8B9524BD02252481A80FFF76E
:10107000C5FF4E4800F078FE0446002839D04E4C9B
:101080004AF6AA254D48FFF7B9FF25604FF47A705C
:1010900003F0E4FDF9E70A230222D221434802F0DB
:1010A000DFF820B9424BD22245481A80DFE71024EE
:1010B00000254448FFF7A2FF0523012221463B48B3
:1010C00002F0CEF820B9013561083F48FFF796FFDE
:1010D0000234A4B2F02CEFD115B93C48FFF78EFFD3
:1010E000354C4AF6AA2525604FF47A7003F0B6FD18
:1010F000F9E72E48DFF8E8A000F028FE0146344862
:10110000FFF77CFF0CA9294800F058FE054600288F
:1011100044D10134034602460CA9DAF8000003F07A
:101120009BFE2C490C98F92CDDF83480DDF83890C2
:10113000DDF848B00860C1F80480C1F80890C1F833
:101140000CB027D9FFF788FA064658460F46FFF736
:1011500083FA2C46CDE90A011198FFF77DFACDE913
:1011600008011098FFF778FACDE906010F98FFF70C
:1011700073FACDE904014846FFF76EFACDE90201A2
:101180004046FFF769FA32463B46CDE90001124876
:10119000FFF734FF022003F061FDB3E70F48FFF7CC
:1011A0002DFF4FF4FA7003F059FDF3E7881000208B
:1011B0000000002040AC0208003000401EAD0208D4
:1011C0006AAC020895AC0208C3AC0208DFAC0208A6
:1011D00060AD0208DC1000208FAD0208EAAD020805
:1011E000FC0900202DE9F0412DED028B90B04FF469
:1011F0008071DFF8188102A805F0F2FD4FF4FA7251
:101200004FF480713648FFF7F9FE364E00244FF058
:10121000FF33002208A9D8F8000003F05FFE05465E
:101220000028F4D101340A9BB4F5807F46F8043BD2
:10123000EDD105262C4FDFED2D8A034634469FED78
:101240002C8A294A02A8274905F07EFE97ED0B0A51
:101250000837D7ED087A20EE000AA7EEA70A09F0B2
:10126000BDFC20EE080AB4EEE80AF1EE10FAC8BFA1
:10127000344606F1010670FE288A662EE6D107EE96
:10128000904A18EE900AB8EE678ADFED1A7A28EED7
:10129000278ADFED197A28EE278AFFF7DDF906465F
:1012A0000F4618EE100AFFF7D7F9DFED147A324631
:1012B0003B46F4EEE78ACDE90001F1EE10FA0ADDD3
:1012C00001250F48FFF79AFE0E4BC3ED048A83ED0C
:1012D000058A9D6199E70C48FFF790FEF4E700BF8F
:1012E00003AE0208F8050020F8010020000000000D
:1012F0000000003C0000FA430000803B9A99993EB0
:1013000044AE0208DC10002078AE0208FC09002080
:101310002DE9F0474E48C0B04E4FFFF76FFE4E4CE0
:1013200040F6C41003F09AFC386818B14FF0FF3152
:1013300003F0F0FC25686668D4F80880D4F80C90B7
:10134000D4F810A06069A3690C93FFF785F9CDE983
:101350000A015046FFF780F9CDE908014846FFF73A
:101360007BF9CDE906014046FFF776F9CDE90401A6
:101370003046FFF771F9CDE902012846FFF76CF915
:10138000364ACDE9000180210DEB010007F052FA49
:101390000546386808B103F0EDFC294620A800F0A6
:1013A00077FD002802DA2E48FFF728FE40220021B0
:1013B0000DF1400800250DEB020007F051FB01F094
:1013C000C3F8064601F0C0F8801BB0F5AF7F0ED21F
:1013D0003F2D0DD00A2301220DF13F01214803F0DA
:1013E00015F90028EED19DF83F300A2B1FD155B3D7
:1013F00005F580731C4910A80DEB0305002305F8C3
:10140000C03C07F035FBB0B11848FFF7F7FD64208A
:1014100001F0A0F8BFF34F8F1549164BCA6802F4CC
:10142000E0621343CB60BFF34F8F00BFFDE7013590
:1014300008F8013BC6E7104910A807F019FB10B1E6
:101440000E48FFF7DBFD322003F008FC6CE700BF1D
:101450009CAE0208F8090020DC100020CEAE020885
:101460001EAF0208001000203AAF020841AF020888
:1014700000ED00E00400FA0580AF020887AF020823
:1014800007B54FF0FF330190012201A9024803F094
:101490006CF8019803B000BD780F00200268034B80
:1014A0009A4201D101F044B8704700BF00100040DB
:1014B00008B500F007F80248FFF7A0FDFEE700BFFF
:1014C000D9AF020808B50B494FF4E1320A4B084680
:1014D0000B600023C1E901230C224B62C1E90333F5
:1014E000C1E90523C1E9073303F02AF908B1FFF781
:1014F000DFFF08BD780F00200048004010B594B011
:1015000030220021022408A807F0AAFA14220021A0
:1015100003A807F0A5FA01F0FDFF1D4B01210020F3
:101520001A6C42F080521A641B6C03F080530193D2
:10153000019B184B1A6842F440421A601B680894D9
:1015400003F440430E940293029B1023CDE90B1346
:101550000823CDE90F03A82308A8CDE911340723F8
:10156000139301F0DFFF08B1FFF7A2FF0F234FF441
:10157000A0520590052103A8CDE903344FF4805310
:10158000CDE9062302F0B6F90028EDD114B010BD64
:101590000038024000700040B64A136B43F002036B
:1015A0002DE9F04196B01363BFF34F8FB24C062183
:1015B0000022B248236823F0030343F001032360B1
:1015C000636983F0010363610192019B834240F2EE
:1015D000A1810139F4D16369A94A23F00103636150
:1015E000A84B9A60BFF34F8FBFF36F8FA14B1A6B5D
:1015F00042F008021A63BFF34F8F1A6C42F4802244
:101600001A64BFF34F8FA3F530539F481A6822F432
:10161000403242F400321A609A6842F440329A60D2
:101620005A6A22F00F0242F007025A62A3F5E2332F
:101630008B22DA6009221A600291DA6912F08002C4
:1016400000F06C81422291498F489A6200230393F3
:10165000CB6913F0400300F0758100F05EFF0023BA
:101660008A4989480493CB6913F0800300F07D8197
:10167000432385488B62002384490593CB6913F08B
:10168000400300F086814FF0E0224FF0007100230C
:101690001361C2F8041D4FF00061C2F8041D4FF041
:1016A000FF319A00013302F16042082B02F56142DA
:1016B000C2F88010C2F88011F3D1BFF34F8FBFF38F
:1016C0006F8F362000F09CFF62B600236F496E4892
:1016D0000693CB6913F0800300F06E8148236A48BB
:1016E0008B62002369490793CB6913F0400300F034
:1016F0007781604A136B43F002031363BFF34F8F8C
:101700002368634A23F4404343F4804323606369BE
:1017100043F08003636100230893089B934240F2E7
:10172000728163695B4A23F080036361002309933C
:10173000099B934240F26B81FFF7E0FE2368C820CB
:1017400023F0405343F080532360636943F48043A4
:10175000636100F0FFFE6369642023F480436361EA
:1017600000F0F8FE6369322043F00103636100F08A
:10177000F1FE6369322023F00103636100F0EAFEA9
:101780006369322043F00103636100F0E3FE6369A3
:10179000322023F001036361364C00F0DBFE236A44
:1017A00043F480232362BFF34F8F236A23F4802303
:1017B0002362BFF34F8FFFF785FE3748FFF71EFC0C
:1017C0003648FFF71BFC3648FFF718FC14220021AF
:1017D00011A807F045F9236B002244F2810143F080
:1017E000040325480025012623634FF4E138236BC9
:1017F0000C2703F004030A930A9B236B43F0800336
:101800002363236B03F080030B930B9B236B43F049
:1018100001032363236B03F001030C930C9B236BE5
:1018200043F002032363236B03F002030D930D9B2C
:10183000236B43F008032363236B03F008030E9329
:101840000E9B236B43F040032363236B03F04003A1
:101850000F930F9B01F0DEF900224021114801F0A7
:10186000D9F94FF400524FF4881311A90E4813957B
:101870001CE000BF0038024000040240FF7002007C
:101880000000020800ED00E080841E0000480040D7
:10189000BFC62D003F420F0022B002083CB0020834
:1018A00024B002080018024000080240CDE91123CC
:1018B00001F04AF844F2810311A95748CDE91136E5
:1018C000CDE9135501F040F8402311A95348CDE963
:1018D0001136CDE9135501F037F8802311A94F488F
:1018E0001395CDE9113501F02FF84D4A4D4B1046B7
:1018F000D560136015615562C2E90185C2E90575BD
:10190000C2E9075502F01CFF0346002800F08E8054
:10191000FFF7CEFD019B0133019356E60299013199
:10192000814202917FF689AE46F2A711636983F086
:10193000010363611192119B8B42F7D8119B013314
:101940001193F8E7039A0132824203927FF680AE48
:101950003549626982F0010262611193119A8A42EB
:10196000F7D8119A01321192F8E7049A01328242B3
:1019700004927FF678AE46F2A711626982F0010206
:1019800062611193119A8A42F7D8119A0132119229
:10199000F8E7059A0132824205927FF66FAE22493E
:1019A000626982F0010262611193119A8A42F7D84A
:1019B000119A01321192F8E7069A01328242069298
:1019C0007FF687AE46F2A711626982F0010262617A
:1019D0001193119A8A42F7D8119A01321192F8E7BD
:1019E000079A0132824207927FF67EAE0E49626903
:1019F00082F0010262611193119A8A42F7D8119A1A
:101A000001321192F8E7089B0133089385E6099BA0
:101A1000013309938CE600BF000402400018024025
:101A200000100020004400403F0D03007448754A38
:101A3000C0E90233C0E90028C0E90437C0E9063331
:101A4000C0E9083302F07CFE054600287FF460AF51
:101A5000236A43F400132362BFF34F8F304600F034
:101A600079FD236A23F400132362BFF34F8FCDE97E
:101A70001355159511A9236B634843F002032363A3
:101A8000236B4FF4407403F002031093109B112357
:101A9000CDE9114300F058FF214632465A48092447
:101AA00001F0B8F8304600F055FD00224FF4807187
:101AB000554801F0AFF8012000F04CFD01224FF431
:101AC0008071514801F0A6F8012000F043FD013C6F
:101AD000EBD122464FF400714B48012601F09AF8F1
:101AE000012000F037FD01224FF48071464801F0DB
:101AF00091F8012000F02EFD01224FF400714248C0
:101B000001F088F8012000F025FD3F484FF44071B6
:101B10003E4D00F0F1FF3E4B28462B60A3F1FE53F3
:101B2000A3F69843C5E90364C5E90134C5E9054452
:101B3000C5E9074401F0F6F900287FF4E9AE214633
:101B4000284601F014FC00287FF4E2AE2146284626
:101B500001F033FC00287FF4DBAE2E4A4FF0A043A7
:101B6000136006231046568113714FF40073D3801F
:101B700002235372284BD36001F044FC00287FF409
:101B8000C7AE00F04DFC02F0CFFF244803F07EF812
:101B9000234B244A20211860102003F017F9224B10
:101BA000224A21461860224803F008F8214B224AB5
:101BB00021461860214803F001F8214B214A2146B3
:101BC0001860214802F0FAFF204B214A2146186094
:101BD000204802F0F3FF204B45F2555218601F4B8E
:101BE0001A6005225A6040F2E1429A604AF6AA223F
:101BF0001A604CF6CC421A6002F0C0FFFEE700BF4C
:101C0000F00E002000140140000402408810002063
:101C100000540040100A002000010100B8B302087F
:101C2000F8090020C8B30208FC0900204CB40208DF
:101C3000E50F02080C0A002028B402084910020827
:101C4000080A002004B40208E5110208040A002072
:101C5000E0B3020811130208000A0020003000401F
:101C6000024808B5FFF7CAF9FEE700BF52B0020804
:101C7000024808B5FFF7C2F9FEE700BF96B00208B8
:101C800004460D4808B5FFF7B9F9A1690B48FFF7FD
:101C9000B5F961690A48FFF7B1F92168094C0A48AA
:101CA000FFF7ACF9A16A0948FFF7A8F9E16A08480B
:101CB000FFF7A4F9FEE700BFD6B00208EAB00208B9
:101CC000FCB0020800ED00E00EB1020820B10208ED
:101CD00032B102081EF0040F0CBFEFF30880EFF3DF
:101CE0000980FFF7CDBF00001FB564238DF80C10ED
:101CF0000549009302238DF80D2003AA098801F0FD
:101D000067F905B000BD00BF000000202DE9FF41CC
:101D10000D4F4FF0640815461E468DF80F10012335
:101D2000CDF800800DF10F023988044601F050F91A
:101D300038B9CDF8008033462A463988204601F06C
:101D4000F5F904B0BDE8F08100000020002307B5DC
:101D500075218DF807300DF107020123FFF7D6FF3B
:101D60009DF8070003B000BD10B500226B210446AA
:101D7000FFF7BAFF08BB642000F0ECFB0122192139
:101D80002046FFF7B1FFC0B901221A212046FFF714
:101D9000ABFF90B902461B212046FFF7A5FF60B9B3
:101DA00002461C212046FFF79FFF30B92046012242
:101DB0003821BDE81040FFF797BF10BD7FB50C4636
:101DC0000E236A463B21FFF7A1FF002856D1BDF83C
:101DD00002309FED2B6ADBBA07EE103ABDF80430F3
:101DE000DBBAB8EEC77A07EE903ABDF8063027EEB8
:101DF000067ADABABDF80830F8EEE77ADEBABDF84E
:101E00000A3084ED017ADDBABDF80C3067EE867ACF
:101E10009FED1C7AD9BABDF80030DBBAC4ED027A66
:101E200007EE906A06EE903AF8EEE77AF8EEE66A88
:101E300066EE866AC4ED006AC7EE876A07EE905ABE
:101E4000F8EEE77AC4ED036AC7EE876A07EE901AE8
:101E5000F8EEE77AC4ED046AC7EE876A07EE902AC7
:101E6000F8EEE77AC4ED056ADFED076A87EEA67A39
:101E7000DFED067A77EE277AC4ED067A04B070BDFE
:101E800000008038000003430000AA43B81E12423D
:101E900010B50C468AB24FF0FF330146024802F0FB
:101EA00064FB204610BD00BF001000200D4B82B027
:101EB0000F216FF001001A6C42F080521A641A6C04
:101EC00002F080520092009A5A6C42F480425A64A6
:101ED00000225B6C03F480430193019B02B000F08D
:101EE0005DBB00BF0038024010B5A8B00446142204
:101EF000002103A806F0B4FD8022002108A806F006
:101F0000AFFD2268174B9A422AD14FF4804308A8AC
:101F1000089301F0CBFD08B1FFF7CAFA124C4FF459
:101F2000407200211148236B43F002032363236BAB
:101F300003F002030193019B1223CDE90323032342
:101F4000CDE90513042303A9079300F0FDFC236CDE
:101F500043F400132364236C03F400130293029BE5
:101F600028B010BD00540040003802400004024078
:101F700030B5ADB0802504461422002107A806F034
:101F80006FFD2A4600210CA806F06AFD2368434A2B
:101F900093422AD10CA80C9501F088FD08B1FFF7F7
:101FA00087FA3F4B0C254FF0000C07A91A6C3D48EF
:101FB00042F400321A641A6C02F400320192019A5F
:101FC0001A6B42F001021A631B6B03F001030293C8
:101FD000029B0223CDE907530323CDE909C307235D
:101FE0000B9300F0B1FC2DB030BD2F4A934229D1A4
:101FF0004FF480730CA80C9301F058FD08B1FFF763
:1020000057FA274B4FF44070002407A91A6C42F48A
:1020100080221A641A6C02F480220392039A1A6BCB
:1020200042F008021A631B6B03F008030493049B3D
:102030000223CDE9070303231C48CDE90943072305
:102040000B93CEE71A4A9342CDD14FF400630CA80C
:102050000C9301F02BFD08B1FFF72AFA104B002179
:1020600014485A6C42F020025A645A6C02F0200262
:102070000592059A1A6B42F004021A63C0221B6B88
:1020800003F004030693069B0223CDE907230323F1
:10209000CDE90913082307A90B93A2E700440040E8
:1020A000003802400000024000480040000C02409E
:1020B000001401400008024030B5A9B004461422C3
:1020C000002103A806F0CCFC8022002108A806F01D
:1020D000C7FC2368B3F1A04F3CD14FF4001308A80C
:1020E000089301F0E3FC08B1FFF7E2F91A4C4FF452
:1020F000E852002503A9236B184843F0010323632A
:10210000236B03F001030093009B0223CDE903231B
:102110000323CDE905530A23079300F015FC4FF480
:10212000007303A90D480595CDE9033500F00CFCBB
:10213000636B43F080036363636B03F0800301937D
:10214000019B636C43F480436364636C03F48043DA
:102150000293029B29B030BD0038024000000240CB
:10216000214B1A6C42F0100230B589B01A641B6C16
:10217000054601A903A803F010030293029B01F096
:1021800077FC069B4BBB01F053FC184A184B1360BD
:1021900040F2E733D360174BB0FBF3F3013B10463B
:1021A0005360002313619360936101F0E7FF0446DD
:1021B00080B90E4801F0ACFE044658B9362000F054
:1021C0001FFA0F2D0DD822462946362000F0E6F9D9
:1021D000094B1D60204609B030BD01F029FC4000CC
:1021E000D3E70124F6E700BF00380240F8100020D2
:1021F0000010004040420F000C000020FEE7FEE708
:10220000FEE7FEE770470000014801F0C3BE00BFD3
:10221000F81000200120704708B506F0E7FC1623EF
:1022200003604FF0FF3008BD08B506F0DFFC162351
:102230000360FEE770B50D4614460E46731B9C42C4
:1022400001DC204670BDAFF3008006F8010BF5E716
:1022500070B50D4614460E46731B9C4201DC2046A9
:1022600070BD16F8010BFFF70BF9F5E74FF0FF30E3
:1022700070474FF4005300204B60704701207047B7
:10228000002070470A4A0346106810B508B909488B
:10229000106009490344094C091B8B4206D906F01A
:1022A000A5FC0C2303604FF0FF3010BD1360FCE76A
:1022B00044110020905C0020000004200004000075
:1022C000064BD3F8882042F47002C3F88820044AF1
:1022D0009A60BFF34F8FBFF36F8F704700ED00E040
:1022E00000000208174B98421DD303F58043984223
:1022F0001BD303F58043984219D3134B984218D946
:1023000003F58033984216D903F50033984214D967
:1023100003F50033984212D903F50033984294BF75
:102320000720FF20704700207047012070470220DF
:10233000704703207047042070470520704706202F
:10234000704700BF00400008FFFF000810B50446BA
:1023500086B011B3FFF7C6FF0246601E0844FFF7C0
:10236000C1FFFF2A1BD0FF2819D001300023022112
:102370000392801A029301930591049000F0DCF916
:1023800001A902A800F092FA044600F0E7F9201E25
:1023900018BF0120404206B010BD0846FBE74FF0D1
:1023A000FF30F8E72DE9F34107460D46164632B3F4
:1023B00029B3002400F0C0F904F10808464515D2FD
:1023C000A6420ED94FF0FF33321B29196846CDE9DA
:1023D000003306F038FC39190320DDE9002300F052
:1023E000F3F902B0BDE8F04100F0B8B92B192A5951
:1023F000391903205B68444600F0E6F9DCE702B0D7
:10240000BDE8F0810346084610B429B122B119464F
:102410005DF8044B06F017BC5DF8044B70470000F4
:1024200010B596B058220021684606F019FB5822D4
:1024300069461E48FFF7E6FF1D4B009A9A4202D1FB
:10244000029B012B04D01B48FEF7D8FD16B010BD2F
:102450001948FEF7D3FD00234FF48051134802932F
:10246000FFF774FF08B11548EEE7582269460F4898
:102470000624FFF797FF1248FEF7C0FD01224FF434
:1024800080411048013C00F0C5FB962000F062F846
:1024900000224FF480410B4800F0BCFB962000F076
:1024A00059F814F0FF04E9D1D0E700BF0000060896
:1024B0003141544F85B10208A8B10208DFB10208CA
:1024C000FCB1020800040240DFF834D0FFF7F8FE48
:1024D0000C480D490D4A002302E0D458C45004337F
:1024E000C4188C42F9D30A4A0A4C002301E0136055
:1024F0000432A242FBD306F07FFBFFF74DF8704792
:102500000000042000000020DC010020F4EA0308A1
:10251000DC010020905C0020FEE708B5032000F0FD
:102520002BF80F20FFF71CFEFFF7C0FC002008BDB2
:10253000034A044B11681B780B441360704700BFBB
:102540004811002008000020014B1868704700BFA8
:102550004811002038B50446FFF7F6FF0546631C16
:102560001EBF044B1B78E418FFF7EEFF431BA3428A
:10257000FAD338BD0800002007490302CA6803F4F3
:10258000E06322F4E0621204120C134343F0BF63D1
:1025900043F40033CB60704700ED00E0164B30B5DC
:1025A000DC68C4F30224C4F10703251D042B28BFF3
:1025B0000423062D4FF0FF358CBF033C002405FAA1
:1025C00003F3002805FA04F521EA030322EA0502D1
:1025D00003FA04F343EA02034FEA0313DBB206DB18
:1025E00000F1604000F5614080F8003330BD00F03C
:1025F0000F00024A1354F9E700ED00E014ED00E08B
:10260000002807DB4109012300F01F00024A834034
:1026100042F82130704700BF00E100E00A4910B5E0
:102620000C6924F440740C610C6944F440740C612E
:102630000C6944F001040C610260BFF36F8F4360CA
:10264000BFF34F8F10BD00BF003C0240084B1A691A
:1026500022F440721A611A6942F400721A611A690E
:1026600042F001021A610160BFF34F8F704700BF53
:10267000003C0240084B1A6922F440721A611A6940
:1026800042F480721A611A6942F001021A610180F3
:10269000BFF34F8F704700BF003C0240074B1A69E1
:1026A00022F440721A611A691A611A6942F0010231
:1026B0001A610170BFF34F8F704700BF003C0240AA
:1026C0001B4AD368990704D51A498B6943F0200344
:1026D0008B61D368DA0604D5164A936943F0100378
:1026E0009361134AD3689B0604D512498B6943F062
:1026F00008038B61D368580604D50E4A936943F0EA
:10270000040393610A4AD368190604D509498B6901
:1027100043F002038B61D368DB0504D5054A936956
:1027200043F040039361024B4FF4F972DA60704753
:10273000003C02404C110020064B1A69002A07DABF
:10274000054A5A6002F188325A601869C00F704712
:1027500000207047003C024023016745034A0020E7
:10276000136943F000431361704700BF003C02400F
:10277000134B002270B504469A61124DFFF7E4FE38
:102780000646EB68DA0307D4EB6813F4F97F0ED042
:10279000FFF796FF012003E0611CF2D00CB9032083
:1027A00070BDFFF7D1FE801BA042EAD9F7E7EB68C6
:1027B000DB0701D40020F3E70123EB60FAE700BF59
:1027C0004C110020003C02402DE9F0411B4F98467F
:1027D00006460C463B7D1546012B2DD001234CF2BD
:1027E00050303B75FFF7C4FF90B9032E07D8DFE8E0
:1027F00006F00213181DE9B22046FFF74FFF4CF216
:102800005030FFF7B5FF0E4A136923F0010313613F
:1028100000233B75BDE8F081A9B22046FFF72AFFEF
:10282000EDE729462046FFF711FFE8E72A46434631
:102830002046FFF7F3FEE2E70220EBE74C11002011
:10284000003C0240084B1A6922F440721A611A696E
:1028500042F004021A611A6942EA002242F480320C
:102860001A61BFF34F8F7047003C02400E4B0229A4
:102870001A6994BF09024FF4407122F440721A6140
:102880001A690A431A611A6922F0F8021A611A6970
:1028900042EAC00040F0020018611A6942F4803236
:1028A0001A61BFF34F8F7047003C02402DE9F84397
:1028B000DFF8908005460F4698F81430012B3DD084
:1028C00001234CF2503088F81430FFF751FF0446D2
:1028D00090B94FF0FF333B602B68012B12D1287B5E
:1028E000FFF7B0FF4CF25030FFF742FF144A0446A6
:1028F000136923F004031361002388F81430204681
:10290000BDE8F8836E68DFF83890D5E901231344F9
:10291000B342F1D9297B3046FFF7A8FF4CF2503083
:10292000FFF726FFD9F8103023F07A03C9F81030EA
:1029300010B104463E60DFE70136E6E70224DEE739
:10294000003C02404C1100202DE9F74F0023DFF836
:10295000A491664A01240D689C4004EA0506AC4334
:1029600040F0AF804D6803274FEA430E05F00304A3
:1029700007FA0EFC671E6FEA0C0C012F34D887682B
:1029800007EA0C08CF6807FA0EF747EA08078760DE
:10299000476827EA0608C5F300179F4047EA08077B
:1029A0004760C768022C07EA0C088F6807FA0EF721
:1029B00047EA0807C76019D14FEAD30803F0070AAE
:1029C0004FF00F0B00EB88084FEA8A0AD8F8207006
:1029D0000BFA0AFB27EA0B0B0F6907FA0AF747EA1B
:1029E0000B07C8F8207001E0032CDAD1076804FA5D
:1029F0000EF415F4403F07EA0C0744EA07040460AC
:102A00005FD0D9F8444023F0030703F0030C4FF0E4
:102A10000F0E44F4804407F180474FEA8C0CC9F84C
:102A2000444007F59C37D9F844400EFA0CFE04F4F4
:102A300080440194019CBC6824EA0E0E2C4CA042F8
:102A400046D004F58064A04244D004F58064A042DE
:102A500042D004F58064A04240D004F58064A042D6
:102A60003ED004F58064A0423CD004F58064A042CE
:102A70003AD004F58064A04214BF0824072404FA65
:102A80000CF415F4801F44EA0E04BC606FEA0607DC
:102A900094680CBF3C40344315F4001F9460D46824
:102AA0000CBF3C40344315F4003FD46054680CBF65
:102AB0003C403443ED035460146854BF3C403443FD
:102AC00014600133102B7FF445AF03B0BDE8F08FE5
:102AD0000024D4E70124D2E70224D0E70324CEE780
:102AE0000424CCE70524CAE70624C8E7003C0140DB
:102AF00000000240003802402DE9F04F00224FF064
:102B0000010A4FF00F084FF0030B404C0AFA02FC89
:102B10003CEA01030CEA010664D122F0030502F04D
:102B2000030705F18045BF0005F59C3508FA07F954
:102B3000AB6809EA030E364B984258D003F5806320
:102B4000984256D003F58063984254D003F58063D1
:102B5000984252D003F58063984250D003F58063C9
:102B600098424ED003F5806398424CD003F58063C1
:102B7000984214BF08230723BB40734513D1236831
:102B800023EA06032360636823EA06036360E368BD
:102B900023EA0603E360A36823EA0603A360AB68A5
:102BA00023EA0903AB6053000568D6080BFA03F368
:102BB00000EB860625EA0305056002F00705376A83
:102BC000AD0008FA05F527EA05073762C56825EA6A
:102BD0000305C560456825EA0C054560856825EA5A
:102BE000030383600132102A90D1BDE8F08F0023E7
:102BF000C2E70123C0E70223BEE70323BCE70423A7
:102C0000BAE70523B8E70623B6E700BF003C01405A
:102C1000000002400AB1816170470904FBE70368C4
:102C20009A69910701D500229A629A69D20703D462
:102C30009A6942F001029A617047000030B5039D25
:102C4000C1F3090104682B43606843EA0243054A63
:102C50000B4342EA555223F0004320EA02000343AB
:102C6000636030BDFF63FF032DE9F8430568064646
:102C700088461746AC6914F0100470D00024102365
:102C8000A146EB613568AB69980662D4B9F1000FD3
:102C900034D044F004040120AB69D90505D54FF4C4
:102CA000807244F001040120EA615A0505D54FF411
:102CB000806244F008040120EA619B0551D54FF47D
:102CC000007344F00204EB613046FFF7A8FF6B6825
:102CD000012023F0FF7323F48B3323F4FF7323F0DD
:102CE00001036B60736C23437364202386F84130C7
:102CF000002386F8423086F8403034E0B8F1FF3FD8
:102D0000C1D0FFF721FCC01B404502D8B8F1000F2D
:102D1000B8D13368596896F842209869D2B2000455
:102D20000AD5490408D4202A06D05A6842F48042C1
:102D30005A60FFF709FC074633689B699D06A1D4DA
:102D4000FFF702FCC01B1928F6D920244FF0010917
:102D500098E7B9F1000F9CD12023EB6199E7204659
:102D60009AE70028B0D1BDE8F88370B504460D4657
:102D7000164623689B699B0701D500201FE0324659
:102D800029462046FFF770FFC0B96A1CF1D0FFF753
:102D9000DBFB801BA84201D8002DEAD123689B6988
:102DA00013F00203E5D1626C84F8403042F0200257
:102DB0006264202284F8412084F84230012070BDF2
:102DC0002DE9F041DDF8188004460F4616461D46F1
:102DD00023689B6937EA03030CBF01230023B34236
:102DE00001D0002025E0424629462046FFF73CFF5F
:102DF000F0B96B1CECD0FFF7A7FBA0EB0800A842D2
:102E000001D8002DE4D123689B6937EA03030CBF86
:102E100001230023B342DBD1636C43F020036364DE
:102E2000202384F84130002384F8423084F8403075
:102E30000120BDE8F08170B504460D4616462368B2
:102E40009B699B0601D500201DE03246294620469D
:102E5000FFF70AFFB0B9FFF777FB801BA84201D844
:102E6000002DECD123689B6913F02003E7D1626C3D
:102E700084F8403042F020026264202284F841202D
:102E800084F84230012070BD2DE9F84304460F4616
:102E9000904600254FF01009214E23689B695B077F
:102EA00000D415B12846BDE8F8834246394620468D
:102EB000FFF7DAFE236805469A69900614D595B99E
:102EC0009A699A69D1061AD504222021C3F81C9068
:102ED0006264D9615A6832405A6084F8411084F8BB
:102EE000405084F842500125FFF72EFBA0EB08006C
:102EF000B84201D8002FD0D11DB10125CDE76564BE
:102F0000F2E723689B695A07C7D4636C84F8405082
:102F100043F020036364202384F84130EDE700BFD1
:102F200000E800FE10B5044600284ED090F841306D
:102F300003F0FF021BB980F84020FEF7D5FF2423E1
:102F400084F8413023681A6822F001021A6062682E
:102F500022F070621A619A6822F400429A60D4E901
:102F60000221012906D142F400429A605A6822F4F3
:102F7000006207E042F4044202299A60F6D15A68DE
:102F800042F400625A6000205A6842F0007242F433
:102F900000425A60DA6822F40042DA60D4E904217F
:102FA0000A43A16942EA0122DA60D4E907210A430F
:102FB0001A601A6842F001021A602023606484F8E3
:102FC0004130206384F8420010BD0120FCE700007E
:102FD0002DE9F347994690F8413004460E46202BE0
:102FE00090460A9F40F09E8090F84030012B00F000
:102FF00099804FF0010A80F840A0FFF7A5FA192345
:103000000546009052464FF400412046FFF7D8FE97
:1030100018B1012002B0BDE8F0872123C4F8248054
:10302000606384F84130102384F842306064A4F86F
:103030002A90638D9BB2FF2B16D9FF224FF0807C24
:10304000228541462368013A11F8010B92B2986239
:1030500063466162618D22850132013989B26185E1
:1030600031490091D2B20AE0628D92B2228512B14A
:103070004FF0007CE5E72C4B00934FF00073314696
:103080002046FFF7DBFD638D2A46394620469BB27A
:10309000BBB9FFF7D0FE0028BBD123682021D9613E
:1030A0005A6822F0FF7222F48B3222F4FF7222F06F
:1030B00001025A6084F8411084F8400084F842000C
:1030C000A8E7FFF752FE0028A3D1636A226813F82D
:1030D000011B91626362638D228D013B013A9BB2B9
:1030E00092B26385638D22859BB2002BCBD0002AE0
:1030F000C9D13B46802120460095FFF761FE00289C
:1031000087D1638D9BB2FF2B05D9FF224FF08073CF
:1031100022850090B3E7628D4FF0007392B2228552
:1031200000909FE7022075E7002000802DE9F3471B
:10313000984690F8413004460E46202B91460A9F4F
:1031400040F08A8090F84030012B00F085804FF0ED
:10315000010A80F840A0FFF7F7F91923054600900F
:1031600052464FF400412046FFF72AFE18B10120D5
:1031700002B0BDE8F0872223C4F82490606384F88D
:103180004130102384F842306064A4F82A80638DB3
:103190009BB2FF2B314B27D9A4F828A052460093AD
:1031A0004FF0807331462046FFF748FD638D2A4675
:1031B000394620469BB2FBB9FFF73DFE0028D6D129
:1031C00023682021D9615A6822F0FF7222F48B32E1
:1031D00022F4FF7222F001025A6084F8411084F850
:1031E000400084F84200C3E7628D92B222850093CA
:1031F0004FF00073D2B2D5E7FFF746FE0028B6D1F4
:1032000023685A6A636A1A70636A228D0133013A2D
:103210006362638D92B2013B22859BB26385638DAD
:103220009BB2002BC2D0002AC0D13B468021204651
:103230000095FFF7C5FD002899D1638D9BB2FF2B48
:1032400005D9FF224FF0807322850090AAE7628D96
:1032500092B222850090CBE7022089E7002400800B
:103260002DE9FF471D46002304461746039390F8B7
:103270004130202B79D103689B6913F4004374D14A
:1032800090F84020012A70D0C1F30906012246F0CF
:10329000007880F84020242248F4205880F841200B
:1032A0004364E3682268012B0ABF46F0007343467B
:1032B00043F400535360FFF747F98146226893694E
:1032C0009269C3F34013C2F3001213431DD0236865
:1032D0009A6912F0100A38D12B4652462021204616
:1032E000CDF80090FFF76CFD28B3636C042B04D17C
:1032F00023682022DA61C4F844A0039B01330393BE
:10330000039B039BBB42CCD309E06B1CD6D0FFF7D9
:103310001BF9A0EB0900A84201D8002DCED1202333
:10332000012084F84130636C43F020036364002380
:1033300084F8403006E020232268D36184F84130CD
:1033400084F8400004B0BDE8F08710222021204618
:10335000DA612B460022CDF80090FFF731FD0028FE
:10336000CBD123682022DA61C7E70220EAE710B553
:1033700090F841200346202AD4B21CD190F8402076
:10338000012A18D0242280F841200268106820F019
:1033900001001060106820F4805010601068014334
:1033A00000201160116841F00101116083F8414073
:1033B00083F8400010BD0220FCE710B590F84120D2
:1033C0000346202AD4B21BD190F84020012A17D0FE
:1033D000242280F841200268106820F0010010606B
:1033E000106820F4706040EA01210020116011682B
:1033F00041F00101116083F8414083F8400010BDA5
:103400000220FCE7F7B5044618B390F89534056838
:1034100003F0FF021BB980F89424FEF74DFE03234E
:10342000B5F1A04F206804F1040584F8953404BF79
:103430000023A37101F030FA237C8DF8003020685E
:1034400095E80E0001F0D2F9014630B1022384F86C
:1034500095340125284603B0F0BD206801F022FA1A
:103460000028F3D1267904F1140301270246C1B2E2
:1034700024338E4220D8002104F515730A46C8B2C1
:103480002433864226D8237C8DF80030206895E8C6
:103490000E0001F081FA05460028D7D1012360749F
:1034A00084F89534237B012B02D1204600F01EF8CE
:1034B000206801F02BFBCDE723F80A0C013003F85C
:1034C000237C03F8241C03F8202C43F8142C43E934
:1034D0000722CCE7013103F8232C03F8240C03F86E
:1034E000202C43F8142C43E90722C8E70121026885
:1034F0000346C0F8D814002083F8CC04936943F045
:1035000000639361536D43F0805343F003035365AD
:1035100070470000024A136843F4807313607047D9
:10352000007000402DE9F341044640B30368DE0714
:1035300010D423689D0761D42368190700F1A68081
:1035400023685A0700F1C780A269002A40F0308141
:1035500000202CE0944B9A6802F00C02042A07D059
:103560009A6802F00C02082A0BD15B68590208D550
:103570008D4B1B689A03DCD56368002BD9D10120E1
:1035800015E06368884DB3F5803F13D12B6843F491
:1035900080332B60FEF7D8FF834E054633689B03CC
:1035A000C7D4FEF7D1FF401B6428F7D9032002B02F
:1035B000BDE8F0819BB92B6823F480332B602B6826
:1035C00023F480232B60FEF7BFFF06462B689F0382
:1035D000AFD5FEF7B9FF801B6428F7D9E6E7B3F54E
:1035E000A02F2B6803D143F480232B60CEE723F474
:1035F00080332B602B6823F48023CAE76A4B9A68D8
:1036000012F00C0F07D09A6802F00C02082A11D1B0
:103610005B685D020ED4644A1368990702D5E368BB
:10362000012BACD11368216923F0F80343EAC103ED
:10363000136081E7E3685C4DBBB12B6843F0010385
:103640002B60FEF781FF06462B689B0707D52B688A
:10365000226923F0F80343EAC2032B606CE7FEF70C
:1036600073FF801B0228EFD9A0E72B6823F001032A
:103670002B60FEF769FF06462B689F077FF55CAF5E
:10368000FEF762FF801B0228F6D98FE76369464D7B
:1036900083B16B6F43F001036B67FEF755FF06467E
:1036A0006B6F9B073FF54CAFFEF74EFF801B022868
:1036B000F6D97BE76B6F23F001036B67FEF744FFDE
:1036C00006466B6F9F077FF53BAFFEF73DFF801B04
:1036D0000228F6D96AE7344B1A6CD50027D41A6C45
:1036E000012742F080521A641B6C03F0805301934F
:1036F000019B2E4D2B68D8051BD5A3682A4D012BA5
:1037000027D12B6F43F001032B6741F28838FEF776
:103710001BFF254E0546336F9A073FD5002F3FF418
:1037200013AF214A136C23F0805313640CE7002776
:10373000DFE72B6843F480732B60FEF705FF064636
:103740002B68D905D9D4FEF7FFFE801B6428F7D972
:103750002CE7ABB92B6F41F2883823F001032B67BC
:103760002B6F23F004032B67FEF7EEFE06462B6F4C
:103770009B07D3D5FEF7E8FE801B4045F7D915E738
:10378000052B2B6F03D143F004032B67B9E723F01C
:1037900001032B672B6F23F00403B5E7FEF7D4FE7C
:1037A000401B4045B7D901E7003802400070004097
:1037B000384DAB6803F00C03082B41D02B68022A6C
:1037C00023F080732B602ED1FEF7BEFE06462B68D9
:1037D000990122D4A36A5B085A1ED4E907310B432E
:1037E00043EA0243626A43EA8213E26A43EA0263FB
:1037F00043F000536B602B6843F080732B60FEF73F
:10380000A3FE244D04462B689A013FF5A1AEFEF7B6
:103810009BFE001B0228F6D9C8E6FEF795FE801B2A
:103820000228D4D9C2E6FEF78FFE04462B689B011E
:103830007FF58EAEFEF788FE001B0228F6D9B5E6AE
:10384000012A6B683FF49BAE03F48002E1698A426F
:103850007FF495AE03F03F02216A8A427FF48FAE77
:1038600047F6C072616A1A40B2EB811F7FF487AEDF
:10387000A26A03F440315208013AB1EB024F7FF4DF
:103880007EAEE26A03F07063B3EB026F14BF0120F7
:1038900000208CE600380240134908B58B6803F01D
:1038A0000C03042B1BD0082B1BD14A684B684968BA
:1038B00002F03F0213F48003C1F388111ABF0B48D2
:1038C00000230B48A1FB0001FDF7F6F9064B5B68EE
:1038D000C3F3014301335B00B0FBF3F008BD0348C1
:1038E000FCE70348FAE700BF0038024000127A0004
:1038F0000024F4002DE9F0410D46044610B90120E2
:10390000BDE8F081454A136803F00F038B4228D3CA
:1039100021688F0730D4C80743D4404A136803F0A6
:103920000F03AB4266D8226851076FD4130707D53F
:103930003B4A2169936823F4604343EAC1039360DF
:10394000FFF7AAFF364B374A9B68C3F30313D35CD8
:10395000D840354B1860354B1868FEF701FC002045
:10396000CEE7136823F00F030B431360136803F0D3
:103970000F038B42C3D1CBE711F0040F284B03D0C8
:103980009A6842F4E0529A600E0703D59A6842F4AE
:1039900060429A609A68A06822F0F00202439A603E
:1039A000B9E761681E4B01291A681BD112F4003F68
:1039B000A5D09A6841F28838194F22F003020A43D1
:1039C0009A60FEF7C1FD0646BB68626803F00C030F
:1039D000B3EB820FA1D0FEF7B7FD801B4045F3D9B2
:1039E00003208DE7022902D112F0007FE0E712F0F8
:1039F000020FDDE7136823F00F032B4313601368F6
:103A000003F00F03AB427FF47AAF8CE70449E06820
:103A10008B6823F4E05303438B6087E7003C02404C
:103A20000038024078B40208040000200C00002096
:103A3000044B054A9B68C3F38223D35C034A106896
:103A4000D84070470038024070B4020804000020DB
:103A5000044B054A9B68C3F34233D35C034A1068A6
:103A6000D84070470038024070B4020804000020BB
:103A70000F2303600B4B9A6802F0030242609A68BE
:103A800002F0F00282609A6802F4E052C2609B6821
:103A9000DB0803F4E0530361034B1B6803F00F03DF
:103AA0000B60704700380240003C024003682DE97B
:103AB000F74313F0010604460BD0AC4A916821F499
:103AC00000019160C66A91683143B6FA86F67609BC
:103AD000916013F4002512D0A449656BD1F88C20B5
:103AE000B5F5801F22F4401208BF012642EA050204
:103AF00016BFB5FA85F500256D09C1F88C20D902ED
:103B000011D59A48A16BD0F88C20B1F5800F22F422
:103B1000400242EA0102C0F88C2000F04C810029EA
:103B200008BF45F001059A0631D5904B904F1A6CAD
:103B300042F080521A641B6C03F080530193019B86
:103B40003B6843F480733B60FEF7FEFC80463B68B5
:103B5000DB0540F13281854F3B6F13F4407340F039
:103B60003781A36A03F44072B2F5407F7F4A40F088
:103B70005581916823F0704021F4F81120F44070D1
:103B800001439160C3F30B03116F0B431367236869
:103B9000DA060CD5754AD2F88C1021F08071C2F883
:103BA0008C10D2F88C10206B0143C2F88C105F048B
:103BB00008D56E49E06DD1F8902022F440320243DE
:103BC000C1F89020180408D56849206ED1F89020DB
:103BD00022F440220243C1F89020D90308D563495A
:103BE000606ED1F8902022F440120243C1F8902078
:103BF0005A0608D55D49E06BD1F8902022F0030207
:103C00000243C1F890201F0608D55849206CD1F80E
:103C1000902022F00C020243C1F89020D80508D56C
:103C20005249606CD1F8902022F030020243C1F872
:103C30009020990508D54D49A06CD1F8902022F02C
:103C4000C0020243C1F890205A0508D54749E06CEC
:103C5000D1F8902022F440720243C1F890201F0551
:103C600008D54249206DD1F8902022F440620243E9
:103C7000C1F89020D80408D53C49606DD1F8902057
:103C800022F440520243C1F89020990408D53749E4
:103C9000A06DD1F8902022F440420243C1F8902058
:103CA0009A020DD53148616FD0F89020B1F1006FC4
:103CB00008BF45F0010522F000620A43C0F89020D9
:103CC0005F0308D52949E06ED1F8902022F04072B8
:103CD0000243C1F89020180208D52449A06FD1F8FA
:103CE000902022F080520243C1F89020590108D55B
:103CF0001E49E06FD1F8902022F000520243C1F833
:103D00009020002E40F08E809A0100F18B80012DD2
:103D10004FD1164D2B6823F080532B60FEF714FC17
:103D200006462B689F0000F1E08021680D0301D555
:103D3000636B1BB1C8021DD5A36BDBB90B4AD4E979
:103D40000453D2F888001B0600F4403043EA851380
:103D50000343C2F88830D2F88C30206A23F4F85339
:103D6000013843EA0023C2F88C3003E000380240F7
:103D7000007000408A0210D5636FB3F1006F0CD160
:103D80006149A369D1F8882020691B0402F07062A0
:103D900043EA80131343C1F888305B4C236843F037
:103DA00080532360FEF7D0FB054623689B0040F15B
:103DB000A380002009E00126B5E6FEF7C5FBA0EBD5
:103DC000080064287FF6C3AE032003B0BDE8F0838B
:103DD000A26A02F4407293423FF4C3AE3B6F3A6F63
:103DE00023F4407342F480323A673A6F22F480320F
:103DF0003A673B673B6FD8077FF5B3AEFEF7A4FB8E
:103E000041F2883980463B6F99073FF5AAAEFEF72D
:103E10009BFBA0EB08004845F5D9D5E7916821F454
:103E2000F811AEE6384E336823F080633360FEF756
:103E30008BFB074633681B0151D42268D7070DD589
:103E4000E36A5BB9D6F88410D4E9010301F070612C
:103E50001B0743EA80130B43C6F88430100303D5D5
:103E6000636BB3F5801F05D0D10219D5A36BB3F5F1
:103E7000800F15D12449E368D1F8840066681B06D9
:103E800000F0E04043EA86130343C1F88430D1F8E0
:103E90008C00E36920F01F00013B0343C1F88C3024
:103EA00092010AD5E36862681B0643EA8213A2689E
:103EB00043EA0273144AC2F88430134E336843F065
:103EC00080633360FEF740FB074633681B013FF514
:103ED0001EAFFEF739FBC01B6428F6D974E7FEF766
:103EE00033FBC01B6428A5D96EE7FEF72DFB801BB2
:103EF00064287FF616AF67E7FEF726FB401B6428B1
:103F00007FF653AF60E700BF003802407047000003
:103F100090F83D30012B33D1022380F83D30036807
:103F2000DA6842F00102DA60164A93421AD0B3F11D
:103F3000804F17D0A2F57C42934213D002F58062E5
:103F400093420FD002F5806293420BD002F5784283
:103F5000934207D002F57052934203D0A2F59432F7
:103F6000934207D19968084A0A40062A06D0B2F55A
:103F7000803F03D01A6842F001021A6000207047A7
:103F800001207047000001400700010070477047A2
:103F900070477047036870B5DD6804461E69B20754
:103FA0000DD5A9070BD56FF002021A610122027725
:103FB0009B699A0775D0FFF7EAFF00232377730701
:103FC00010D568070ED523686FF0040220461A61E9
:103FD000022222779B6913F4407F68D0FFF7D7FF56
:103FE0000023237731070FD52A070DD523686FF0FB
:103FF000080220461A6104222277DB699B075CD005
:10400000FFF7C5FF00232377F10610D5EA060ED58A
:1040100023686FF0100220461A6108222277DB69BC
:1040200013F4407F4FD0FFF7B2FF00232377F3074D
:1040300008D5E80706D523686FF0010220461A610B
:10404000FDF72CFA16F4025F08D0290606D523687E
:104050006FF4025220461A6100F0C1F8F20508D54B
:104060002B0606D523686FF4807220461A6100F093
:10407000B7F8700608D5690606D523686FF04002C8
:1040800020461A61FFF785FFB20622D5AB0620D580
:1040900023686FF0200220461A61BDE8704000F0EE
:1040A0009DB8FFF773FF2046FFF772FF85E7FFF724
:1040B0006DFF2046FFF76CFF92E7FFF767FF204692
:1040C000FFF766FF9EE7FFF761FF2046FFF760FFFF
:1040D000ABE770BD274A0368904212D0B0F1804F21
:1040E0000FD0A2F57C4290420BD002F58062904244
:1040F00007D002F58062904203D002F578429042E8
:1041000008D123F070034A68134323F44073CA684C
:10411000134316E0184A9042F7D002F580629042AD
:10412000F3D002F580629042EFD0A2F5983290422F
:10413000EBD002F580629042E7D002F580629042B7
:10414000E3D04A6923F0800313438A68C2620A6895
:104150008262084A904203D002F58062904201D107
:104160000A690263026842F00402026001224261AD
:1041700003607047000001400040014010B5044654
:1041800050B390F83D3003F0FF021BB980F83C209B
:10419000FFF7BCFE02232068211D84F83D30FFF7A5
:1041A00099FF0123002084F8483084F83E3084F8D9
:1041B0003F3084F8403084F8413084F8423084F84D
:1041C000433084F8443084F8453084F8463084F82D
:1041D000473084F83D3010BD0120FCE77047704740
:1041E0007047026852E8003F23F4907342E80031C0
:1041F00002680029F5D102F1080353E8003F23F0DB
:10420000010302F1080C4CE800310029F3D1036EE0
:10421000012B07D152E8003F23F0100342E80031A0
:104220000029F7D12023C0F880300023036683667D
:104230007047000038B50446C0692169A268236848
:104240000A4361691D680A436E4902432940256A91
:104250000A43E1681A605A6822F440520A435A60DD
:10426000A26999682A4321F430610A439A60664A38
:10427000934213D1654BD3F8903003F00303022B24
:1042800000F0A580032B00F09C80012B67D0B0F5D7
:10429000004F00F09080FFF7DBFB12E05C4A934296
:1042A00026D15A4BD3F8903003F00C03082B00F0C2
:1042B0008E8016D8002B52D1B0F5004F76D0FFF784
:1042C000B7FB002875D0626800EB5203B3FBF2F332
:1042D0004FF6EF72A3F11001914204D82268D36027
:1042E00067E00C2B6DD001200023C4E91A3338BDE0
:1042F000484A934209D1454BD3F8903003F030033C
:10430000202B64D0D6D9302BECE7434A934209D115
:104310003E4BD3F8903003F0C003802B57D0C9D95F
:10432000C02BDFE73D4A93420BD1384BD3F8903096
:1043300003F44073B3F5007F49D0BBD9B3F5407F98
:10434000D0E7374A934213D1304BD3F8903003F47F
:104350004063B3F5006F3AD007D8002B97D0B0F583
:10436000004F2BD1FFF798FA22E0B3F5406FB9E781
:104370002C4A93420BD1254BD3F8903003F4405391
:10438000B3F5005F23D095D9B3F5405FAAE7264A7D
:104390009342A8D11D4BD3F8903003F44043B3F5BA
:1043A000004F14D086D9B3F5404F9BE7FFF740FB91
:1043B00090B9002098E7FFF74BFBF9E7FFF76CFA9D
:1043C0007FE7B0F5004F07D04FF400407BE7B0F532
:1043D000004F16487FF477AF6268530803EB400341
:1043E000B3FBF2F34FF6EF72A3F1100191423FF6E7
:1043F0007AAF23F00F02C3F34203216892B2134352
:10440000CB60D6E7F369FFEF0010014000380240AF
:104410000044004000480040004C00400050004074
:104420000014014000780040007C00400024F400AB
:10443000436A1A0710B506D50168446B4A6822F42E
:10444000004222434A60DC0706D50168846A4A6854
:1044500022F4003222434A60990706D50168C46AF3
:104460004A6822F4803222434A605A0706D501681E
:10447000046B4A6822F4802222434A60DC0606D597
:104480000168846B8A6822F4805222438A6099060C
:1044900006D50168C46B8A6822F4005222438A6000
:1044A0005A0610D50168046C4A68B4F5801F22F4DE
:1044B000801242EA04024A6005D14A68446C22F440
:1044C000C00222434A601B0606D50268816C53680D
:1044D00023F400230B43536010BD2DE9F843DDF8AE
:1044E000209004460D46174698462268D36935EA5F
:1044F00003030CBF01230023BB4201D0002022E0B4
:10450000B9F1FF3FF2D0FEF71FF8A0EB08004845D5
:1045100029D8B9F1000F26D021680B685A07E4D5D5
:10452000802DE2D0402DE0D0CE6916F008060CD0E8
:10453000082520460D62FFF754FE00230120C4F831
:10454000845084F87830BDE8F883CB691B05CCD55E
:104550004FF4006320460B62FFF743FE202384F8EC
:104560007860C4F884300320EDE72DE9F7439846DE
:10457000C36F04460E46202B174643D1002943D073
:10458000002A41D021230025C0F88450C367FDF7DD
:10459000DBFFA3688146A4F85070B3F5805FA4F8F0
:1045A000527003D123690BB935461E46B4F8522028
:1045B0004B46CDF8008092B23AB940212046FFF731
:1045C0008CFF202340B9E36708E0002280212046C9
:1045D000FFF783FF28B120230320E36703B0BDE882
:1045E000F08322685EB935F8023BC3F30803936297
:1045F000B4F85220013A92B2A4F85220D6E716F845
:10460000013BF4E70220E9E70120E7E72DE9F74362
:104610009846D0F8803004460F46202B16465CD1D1
:1046200000295CD0002A5AD022230025C0F88450EB
:10463000C0F880300566FDF787FFA3688146A4F8BF
:104640005860B3F5805FA4F85A600DD12369DBB1DF
:10465000FF221646A4F85C20B4F85A0080B2E0B9F4
:104660002023C4F8803025E033B92569002DEFD030
:104670007F221D461646EDE7B3F1805F0AD123691C
:10468000002BF5D03F22E4E740F2FF123D461F46E3
:104690001646DFE72A462E46DCE74B46002220215D
:1046A0002046CDF80080FFF718FF30B1202303200B
:1046B000C4F8803003B0BDE8F08323685B6A334000
:1046C00047B925F8023BB4F85A30013B9BB2A4F835
:1046D0005A30C1E707F8013BF5E70220EAE701207D
:1046E000E8E737B500250446C0F88450FDF72CFFF5
:1046F00022680346126812071AD56FF07E424FF403
:104700000011204600922A46FFF7E7FE80B122689A
:1047100052E8003F23F0800342E800310029F6D13F
:1047200020230320E367002384F8783003B030BDF2
:1047300020230020E367C4F8803020666066F2E73B
:1047400010B5044640B3C36F1BB980F87830FDF74D
:104750000FFC24232268E367136823F0010313602E
:10476000636A13B12046FFF763FE2046FFF762FD40
:10477000012811D0236820465A6822F490425A60DA
:104780009A6822F02A029A601A6842F00102BDE893
:1047900010401A60FFF7A5BF012010BD82B00023B2
:1047A00002460193019B01330193019BB3F1706FAA
:1047B0001AD81369002BF5DA0A230193019B83B9F8
:1047C000136943F001031361019B01330193019BC2
:1047D000B3F1706F08D8106910F00100F4D102B085
:1047E0007047019B013BE8E70320F8E784B038B548
:1047F00005AD044685E80E009DF819309DF820208F
:10480000012B2AD1836B23F480338363C36823F4A1
:10481000840323F04003C360C36843F01003C36004
:10482000C36823F44013012AE36003D1E36843F42F
:104830008013E3602046FFF7B1FF9DF81630012B8F
:1048400007D1A36843F00603A360A36843F02003E5
:10485000A360BDE8384004B07047032B11D1836BCF
:1048600023F480338363C36823F4840323F0400379
:10487000C360C36823F44013C360C36823F010030C
:10488000D1E7C36843F04003C360FFF787FFA36B22
:1048900043F48033A363D0E7836823F0010383608C
:1048A0000020704738B5C368012905460C4623F03F
:1048B000C043C36013D1C368002443F00053C360F6
:1048C0000A200A34FDF746FE6B69D90702D4C82CCA
:1048D000F6D1C824A4F1C8035842584138BD69B97B
:1048E000C36843F08043C3600A200A34FDF732FEF8
:1048F0006B69DA07EED5C82CF6D1EAE70120EDE7BF
:1049000082B0002302460193019B01330193019B76
:10491000B3F1706F15D81369002BF5DA8901002304
:1049200041F0200101931161019B01330193019B2F
:10493000B3F1706F05D8106910F02000F4D102B007
:1049400070470320FBE782B0002302460193019BDE
:1049500001330193019BB3F1706F13D81369002BDE
:10496000F5DA0023019310231361019B01330193B6
:10497000019BB3F1706F05D8106910F01000F4D1ED
:1049800002B070470320FBE7D0F800381943C0F8A5
:10499000001800207047000084B02DE9F843044659
:1049A00009A880E80E0000239DF824609DF82720C8
:1049B0009DF829101F469DF82E5003F14000013349
:1049C00004EB80000F2B4760F7D104F50067002D42
:1049D00069D17B6843F002037B60A36B23F400136F
:1049E000A363236843F040032360236843F08003FC
:1049F000236000230129C4F8003E5BD1002A57D16F
:104A0000002120464FF67F38FFF7BEFF10212046D9
:104A1000FFF776FF01462046FFF795FF0843002386
:104A200004F51062C0B24FF0904C19464FF0006E82
:104A300000383B617B6118BF0120FB619E423DD87D
:104A4000002204F530634FF0904C4FF0006E114699
:104A50004FF67F38964244D83B6923F480733B611C
:104A60000023A3616FF0804363619DF826301BB97A
:104A7000A36943F01003A361A269234B1343A3610D
:104A80009DF82A301BB1A36943F00803A361012DEF
:104A900005D1A36943F0804343F00403A361BDE85B
:104AA000F84304B07047A36B43F40013A363A0E77B
:104AB0000121A6E70329A1D00321A2E7D2F80090A3
:104AC000B9F1000F0BDA3BB9C2F800E01161013314
:104AD000C2F808802032B1E7C2F800C0F6E71160E2
:104AE000F4E7D3F80090B9F1000F0BDA3AB9C3F844
:104AF00000E019610132C3F808802033AAE7C3F847
:104B000000C0F6E71960F4E700383C80D0F8003EBA
:104B100023F00303C0F8003ED0F8043843F002034A
:104B2000C0F8043800207047EFF3058313B16FF02D
:104B300005007047EFF31082074B12B9EFF31182B3
:104B400012B11A68022AF2D0186810B901221A604C
:104B500070474FF0FF307047B818002008B501F0DB
:104B6000D3FB38B1022804D0034B1868431E5842C7
:104B7000584108BD0320FCE7B818002008B5EFF342
:104B8000058313B16FF0050008BDEFF310820A4BE7
:104B900012B9EFF3118212B11A68022AF2D01A6820
:104BA000012A05D102221A6001F0E8F80020EBE7A3
:104BB0004FF0FF30E8E700BFB8180020F0B514460A
:104BC00087B000220B460592EFF305824ABBEFF354
:104BD000108212B9EFF311821AB11F4A1268022A29
:104BE0001FD0F0B154B3A56925B16A1E372A02D986
:104BF000002017E018256268D207F9D466699EB1D3
:104C0000B2082168D4E9027C87B1BCF1A70F08D9AA
:104C1000246934B12EB10095CDE9014701F042F885
:104C20000590059807B0F0BD8022EAE7BCF1000FBF
:104C3000F7D12469002CF4D10C4601E0182580221C
:104C400005A992B2CDE90051214601F069F8012889
:104C50001CBF00230593E4E7B818002008B5EFF364
:104C6000058313B16FF0050008BDEFF3108313B98E
:104C7000EFF311831BB1044B1B68022BF2D008B178
:104C800001F0EEF90020EFE7B8180020F8B505466E
:104C9000EFF3058717B100242046F8BDEFF310832A
:104CA00013B9EFF311831BB1194B1B68022BF2D020
:104CB00025B36E683307EED406F00106D5E902137A
:104CC00099B14F2BE7D9BEB1042000F0ABFB0446ED
:104CD0000028E0D02D6837462946204600F038FEEF
:104CE000002FD9D044F00104D6E7002BD3D12EB148
:104CF000042000F0CCFBEAE70120E6E7012000F009
:104D0000C6FB04460028C6D0002DE5D00026E1E70A
:104D1000B8180020034620F0010010B503F001028E
:104D20000C46EFF3058111B16FF0050010BDEFF3F4
:104D3000108111B9EFF3118119B10D4909680229E8
:104D4000F2D0012B11D9214662B100F08EFD01286D
:104D500001D10020EAE7002C14BF6FF001006FF0D2
:104D60000200E3E700F0B9FCF1E76FF00300DDE7D4
:104D7000B8180020024620F0010008B502F0010337
:104D8000EFF3058111B16FF0050008BDEFF310815D
:104D900011B9EFF3118119B10B4909680229F2D059
:104DA000012A0DD93BB100F051FB01280CBF0020B6
:104DB0006FF00200E9E71A46194600F079FAF4E7C5
:104DC0006FF00300E1E700BFB818002073B5144688
:104DD000EFF305831BB10025284602B070BDEFF349
:104DE000108313B9EFF311831BB11A4B1B68022B0D
:104DF000F1D00028EFD00029EDD0ECB1D4E9023297
:104E000093B14F2AE7D92269002AE4D001FB00F5CB
:104E10006669AE42DFD30025009500F00CFA054626
:104E20000028D8D024680FE0002AD4D12369002BB1
:104E3000D1D16369002BCED1002200F010FA0546D3
:104E40000028C8D0002CEDD12146284600F080FD76
:104E5000C2E700BFB818002013B51C46EFF3058366
:104E600023B1D8B96FF0030002B010BDEFF3108387
:104E700013B9EFF311831BB1174B1B68022BF0D052
:104E80000028EFD00029EDD00023224600F010FAD0
:104E9000012813D06CB16FF00100E5E70029E1D0E3
:104EA000002CDFD1234601AA019400F00DFB01285C
:104EB00002D06FF00200D7E7019B0BB90020D3E7C7
:104EC0004FF0E0234FF08052C3F8042DBFF34F8F13
:104ED000BFF36F8FF2E700BFB818002013B51C4670
:104EE000EFF3058323B1D0B96FF0030002B010BD1A
:104EF000EFF3108313B9EFF311831BB1164B1B684B
:104F0000022BF0D00028EFD00029EDD0224600F08F
:104F10003FFB012812D064B16FF00100E6E70029E1
:104F2000E2D0002CE0D101AA019400F0BEFC0128DF
:104F300002D06FF00200D9E7019B0BB90020D5E742
:104F40004FF0E0234FF08052C3F8042DBFF34F8F92
:104F5000BFF36F8FF2E700BFB8180020034B036068
:104F6000034B0B6080231360704700BF10180020B4
:104F700010160020034B0360034B0B604FF480734B
:104F800013607047681500206811002000F10803C5
:104F90004FF0FF3243600361C0E902230023036046
:104FA000704700230361704743689A684B608A60CA
:104FB000516099600368086101330360704730B540
:104FC0000C68631C0AD103695A684A6091608B605F
:104FD0005960036808610133036030BD00F10802C5
:104FE000134652681568A542FAD9EDE70369D0E97E
:104FF00001128A6051605968814208BF5A600022DC
:1050000002611A68013A1A601868704710B50446C0
:1050100001F0C0FCA46B01F0E1FCB4FA84F040099B
:1050200010BD70B51646026C0446856B42B9066821
:105030009EB9806801F0B6F9A6600135A56370BD20
:105040006EB9406803F0FFFD6368226C1344A268E8
:105050009342636024BF236863600020EDE7C0686B
:1050600003F0F1FD226CE36851429B1A22689342DF
:10507000E3603EBFA3685B18E360022EEDD10DB183
:10508000013DEAE72846D8E7034608461A6C10B403
:105090005AB1DC68A1189C68A142D9605DF8044B44
:1050A00024BF1968D96003F0CEBD5DF8044B70478A
:1050B00070B5044601F06EFC94F8455004F12406E6
:1050C0006DB2002D01DD636AB3B9FF2304F1100650
:1050D00084F8453001F082FC01F05CFC94F8445007
:1050E0006DB2002D01DD23697BB9FF2384F84430C4
:1050F000BDE8704001F072BC304601F069F808B1BB
:1051000001F0F6F8013D6DB2DBE7304601F060F8E2
:1051100008B101F0EDF8013D6DB2E2E738B50D469A
:10512000044650B94FF0500372B683F31188BFF3B1
:105130006F8FBFF34F8F62B6FEE701F02BFC226842
:10514000D4E90F3162604B43D0185B1AA0601A4457
:105150000020FF23E260A06384F8443084F84530E7
:10516000A5B9236973B104F1100001F031F848B119
:105170004FF0E0234FF08052C3F8042DBFF34F8F60
:10518000BFF36F8F01F02AFC012038BD04F110003D
:10519000FFF7FCFE04F12400FFF7F8FEF2E737B555
:1051A0000D461C4653B94FF0500372B683F3118875
:1051B000BFF36F8FBFF34F8F62B6FEE75AB1B1B93D
:1051C0004FF0500372B683F31188BFF36F8FBFF3B4
:1051D0004F8F62B6FEE751B14FF0500372B683F3C2
:1051E0001188BFF36F8FBFF34F8F62B6FEE7502376
:1051F0000193019B502B0AD04FF0500372B683F3FA
:105200001188BFF36F8FBFF34F8F62B6FEE70121A6
:10521000002D08BF2246019B84F846102260C4E995
:105220000F052046FFF77AFF9DF81830204684F8D6
:105230004C3003B030BD10B49DF8044050B94FF06D
:10524000500372B683F31188BFF36F8FBFF34F8F94
:1052500062B6FEE701945DF8044BFFF7A0BFF8B516
:105260000D461746064650B94FF0500372B683F309
:105270001188BFF36F8FBFF34F8F62B6FEE74843CD
:10528000503001F0DBFC044670B1002380F846305A
:1052900065B100F15003012120462360C4E90F6588
:1052A000FFF73CFF84F84C702046F8BD0346F2E758
:1052B0002DE9FF410F461E460446019250B94FF0BA
:1052C000500372B683F31188BFF36F8FBFF34F8F14
:1052D00062B6FEE761B9036C53B14FF0500372B68A
:1052E00083F31188BFF36F8FBFF34F8F62B6FEE772
:1052F000022E0DD1E36B012B0AD04FF0500372B692
:1053000083F31188BFF36F8FBFF34F8F62B6FEE751
:1053100000F0FAFF054660B9019B5BB14FF0500306
:1053200072B683F31188BFF36F8FBFF34F8F62B6EE
:10533000FEE700254FF0000839E0022E3DD0019B2A
:105340001BB901F04BFB002050E015B902A800F09A
:1053500083FF01F043FB00F065FD01F01BFB94F8B7
:105360004430FF2B01D184F8448094F84530FF2B62
:1053700001D184F8458001F031FB01A902A800F0B9
:1053800077FF002848D101F005FBA26BE36B9A423E
:105390002FD101F023FB019904F1100000F0DCFE95
:1053A0002046FFF785FE00F0E5FD50B3012501F032
:1053B000F1FAA26BE36B9A42BFD2324639462046DD
:1053C000FFF72FFE636A1BB104F1240000F000FF19
:1053D00048B14FF0E0234FF08052C3F8042DBFF3E3
:1053E0004F8FBFF36F8F01F0F9FA012004B0BDE8D1
:1053F000F08101F0F3FA2046FFF75AFE00F0BAFD03
:10540000D4E74FF0E0234FF08052C3F8042DBFF3F0
:105410004F8FBFF36F8FC9E72046FFF749FE00F0BB
:10542000A9FD90E700220B4613B51146009001201C
:10543000FFF7B5FE002304461A4619468360036051
:10544000C360FFF735FF204602B010BD38B50446F3
:1054500050B94FF0500372B683F31188BFF36F8FCA
:10546000BFF34F8F62B6FEE7856800F047FF8542C5
:105470000BD1E368013BE3600BB1012038BD1A4654
:1054800019462046FFF714FFF7E70020F6E770B54E
:105490000646502001F0D2FB044698B100250121B8
:1054A000006080F84650C0E90F15FFF737FE2B4625
:1054B0002A462946204684F84C60A5602560E560B0
:1054C000FFF7F6FE204670BD2DE9F84389461746E2
:1054D0001E46044650B94FF0500372B683F311884C
:1054E000BFF36F8FBFF34F8F62B6FEE761B9036CF6
:1054F00053B14FF0500372B683F31188BFF36F8F2F
:10550000BFF34F8F62B6FEE7022E0DD1E36B012B86
:105510000AD04FF0500372B683F31188BFF36F8F38
:10552000BFF34F8F62B6FEE701F030FBEFF3118857
:105530004FF0500372B683F31188BFF36F8FBFF340
:105540004F8F62B6A26BE36B9A4201D3022E1DD13C
:1055500094F845503246494620466DB2FFF761FD4A
:105560006B1C0ED1636A3BB104F1240000F030FEE5
:1055700010B10FB101233B60012088F31188BDE811
:10558000F88301356DB284F84550F5E70020F4E763
:105590002DE9FF410E460446019250B94FF05003E9
:1055A00072B683F31188BFF36F8FBFF34F8F62B66C
:1055B000FEE761B9036C53B14FF0500372B683F349
:1055C0001188BFF36F8FBFF34F8F62B6FEE700F015
:1055D0009BFE054660B9019B5BB14FF0500372B66C
:1055E00083F31188BFF36F8FBFF34F8F62B6FEE76F
:1055F00000254FF000083DE0019B1BB901F0EEF9DA
:10560000002056E015B902A800F026FE01F0E6F9E8
:1056100000F008FC01F0BEF994F84430FF2B01D1F2
:1056200084F8448094F84530FF2B01D184F84580FC
:1056300001F0D4F901A902A800F01AFE002841D116
:105640002046FFF7E3FCB8B3019904F1240000F011
:1056500083FD2046FFF72CFD00F08CFC48B94FF08D
:10566000E0234FF08052C3F8042DBFF34F8FBFF3F8
:105670006F8F012501F08EF9A76B002FBCD0013F81
:1056800031462046FFF700FDA763236973B104F19B
:10569000100000F09DFD48B14FF0E0234FF0805224
:1056A000C3F8042DBFF34F8FBFF36F8F01F096F94E
:1056B000012004B0BDE8F0812046FFF7F9FC00F0BE
:1056C00059FCD6E72046FFF7F3FC00F053FC2046D8
:1056D000FFF79CFC0028CCD092E7F0B585B00446DB
:1056E000019150B94FF0500372B683F31188BFF3A4
:1056F0006F8FBFF34F8F62B6FEE7056C55B14FF069
:10570000500372B683F31188BFF36F8FBFF34F8FCF
:1057100062B6FEE700F0F8FD064660B9019B6BB18A
:105720004FF0500372B683F31188BFF36F8FBFF34E
:105730004F8F62B6FEE72E46002754E00546FBE792
:10574000019B6BB9002D00F08C804FF0500372B6B6
:1057500083F31188BFF36F8FBFF34F8F62B6FEE7FD
:1057600016B902A800F078FD01F038F900F05AFBF4
:1057700001F010F994F84430FF2B01D184F8447003
:1057800094F84530FF2B01D184F8457001F026F9DB
:1057900001A902A800F06CFD00284CD12046FFF7BB
:1057A00035FC002841D023683BB901F0F3F8A0682C
:1057B00000F0BAFD054601F011F9019904F1240049
:1057C00000F0CAFC2046FFF773FC00F0D3FB48B999
:1057D0004FF0E0234FF08052C3F8042DBFF34F8FFA
:1057E000BFF36F8F012601F0D5F8A36B002BA7D074
:1057F000013BA363236813B900F06CFEA06023692A
:1058000073B104F1100000F0E3FC48B14FF0E02365
:105810004FF08052C3F8042DBFF34F8FBFF36F8F4B
:1058200001F0DCF8012005B0F0BD2046FFF740FC98
:1058300000F0A0FBD6E72046FFF73AFC00F09AFB09
:105840002046FFF7E3FB0028CCD065B101F0A2F8B9
:10585000616A19B1236B1968C1F13801A06800F0C1
:10586000E7FD01F0BBF80020DDE770B50D4604460A
:1058700050B94FF0500372B683F31188BFF36F8FA6
:10588000BFF34F8F62B6FEE7866800F037FD8642B1
:1058900004D1E36801200133E36005E02946204696
:1058A000FFF71BFF0028F4D170BD2DE9F8438946AE
:1058B0009046044650B94FF0500372B683F31188F6
:1058C000BFF36F8FBFF34F8F62B6FEE761B9036C12
:1058D00053B14FF0500372B683F31188BFF36F8F4B
:1058E000BFF34F8F62B6FEE701F050F9EFF3118777
:1058F0004FF0500372B683F31188BFF36F8FBFF37D
:105900004F8F62B6A56B0DB394F8446049462046AC
:10591000013D76B2FFF7B8FBA563731C11D1236973
:1059200053B104F1100000F053FC28B1B8F1000F9E
:1059300002D00123C8F80030012087F31188BDE8A8
:10594000F883013676B284F84460F5E72846F4E738
:105950000023074A30B552F8335002EBC3041DB997
:1059600042F83310606030BD0133082BF3D1FAE701
:10597000BC18002070B504460D46164601F00AF822
:1059800094F84430FF2B02D1002384F8443094F87B
:105990004530FF2B02D1002384F8453001F01EF87A
:1059A000A36B2BB93246294604F1240000F0F0FB2A
:1059B0002046BDE87040FFF77BBB00002DE9F041B9
:1059C000044600F0E7FF2F4B2F4E1A682F4F01328D
:1059D0001A603568002D4AD134601B68012B1FD135
:1059E000B84601354046FFF7D1FA08F11408382DC2
:1059F000F7D1DFF8C080264D4046FFF7C7FA2846AA
:105A0000FFF7C4FA2348FFF7C1FA2348FFF7BEFAAD
:105A10002248FFF7BBFA224BC3F80080214B1D60E0
:105A2000214A136801331360204A63641168E36AF2
:105A30008B4200D913601420211D00FB0370FFF777
:105A4000B3FA00F0CBFF1A4B1B6873B13368DA6A04
:105A5000E36A9A4209D24FF0E0234FF08052C3F834
:105A6000042DBFF34F8FBFF36F8FBDE8F081104B54
:105A70001B68002BD4D13368DA6AE36A9A42CFD824
:105A80003460CDE720190020F41D00209419002077
:105A90006C190020501900203C1900202419002006
:105AA000681900206419002004190020181900202A
:105AB0001419002080190020F8B5154B0646154D25
:105AC0000F461C6828680430FFF790FA731C07D152
:105AD00037B1296810480431BDE8F840FFF764BACF
